{
	"/contracts/HeatwaveProof.sol": {
		"HeatwaveProof": {
			"abi": [
				{
					"inputs": [],
					"stateMutability": "nonpayable",
					"type": "constructor"
				},
				{
					"inputs": [
						{
							"internalType": "string",
							"name": "fieldName",
							"type": "string"
						}
					],
					"name": "EmptyStringNotAllowed",
					"type": "error"
				},
				{
					"inputs": [
						{
							"internalType": "uint8",
							"name": "provided",
							"type": "uint8"
						}
					],
					"name": "HumidityOutOfRange",
					"type": "error"
				},
				{
					"inputs": [],
					"name": "InvalidOwnerAddress",
					"type": "error"
				},
				{
					"inputs": [],
					"name": "NoAlertsPublished",
					"type": "error"
				},
				{
					"inputs": [
						{
							"internalType": "address",
							"name": "owner",
							"type": "address"
						}
					],
					"name": "OwnableInvalidOwner",
					"type": "error"
				},
				{
					"inputs": [
						{
							"internalType": "address",
							"name": "account",
							"type": "address"
						}
					],
					"name": "OwnableUnauthorizedAccount",
					"type": "error"
				},
				{
					"inputs": [
						{
							"internalType": "uint8",
							"name": "provided",
							"type": "uint8"
						}
					],
					"name": "RiskLevelOutOfRange",
					"type": "error"
				},
				{
					"inputs": [
						{
							"internalType": "uint8",
							"name": "provided",
							"type": "uint8"
						}
					],
					"name": "UvIndexOutOfRange",
					"type": "error"
				},
				{
					"anonymous": false,
					"inputs": [
						{
							"indexed": true,
							"internalType": "string",
							"name": "city",
							"type": "string"
						},
						{
							"indexed": false,
							"internalType": "uint8",
							"name": "riskLevel",
							"type": "uint8"
						},
						{
							"indexed": false,
							"internalType": "int256",
							"name": "temperature",
							"type": "int256"
						},
						{
							"indexed": false,
							"internalType": "uint256",
							"name": "timestamp",
							"type": "uint256"
						},
						{
							"indexed": false,
							"internalType": "address",
							"name": "publisher",
							"type": "address"
						}
					],
					"name": "HeatwaveAlertPublished",
					"type": "event"
				},
				{
					"anonymous": false,
					"inputs": [
						{
							"indexed": true,
							"internalType": "address",
							"name": "previousOwner",
							"type": "address"
						},
						{
							"indexed": true,
							"internalType": "address",
							"name": "newOwner",
							"type": "address"
						}
					],
					"name": "OwnershipTransferred",
					"type": "event"
				},
				{
					"anonymous": false,
					"inputs": [
						{
							"indexed": true,
							"internalType": "address",
							"name": "previousOwner",
							"type": "address"
						},
						{
							"indexed": true,
							"internalType": "address",
							"name": "newOwner",
							"type": "address"
						}
					],
					"name": "OwnershipTransferredTo",
					"type": "event"
				},
				{
					"inputs": [
						{
							"internalType": "string",
							"name": "city",
							"type": "string"
						}
					],
					"name": "getAlertsByCity",
					"outputs": [
						{
							"components": [
								{
									"internalType": "string",
									"name": "city",
									"type": "string"
								},
								{
									"internalType": "int256",
									"name": "temperature",
									"type": "int256"
								},
								{
									"internalType": "uint8",
									"name": "humidity",
									"type": "uint8"
								},
								{
									"internalType": "uint8",
									"name": "uvIndex",
									"type": "uint8"
								},
								{
									"internalType": "uint8",
									"name": "riskLevel",
									"type": "uint8"
								},
								{
									"internalType": "string",
									"name": "safetyAdvice",
									"type": "string"
								},
								{
									"internalType": "uint256",
									"name": "timestamp",
									"type": "uint256"
								},
								{
									"internalType": "address",
									"name": "publisher",
									"type": "address"
								}
							],
							"internalType": "struct HeatwaveProof.Alert[]",
							"name": "",
							"type": "tuple[]"
						}
					],
					"stateMutability": "view",
					"type": "function"
				},
				{
					"inputs": [],
					"name": "getLatestAlert",
					"outputs": [
						{
							"components": [
								{
									"internalType": "string",
									"name": "city",
									"type": "string"
								},
								{
									"internalType": "int256",
									"name": "temperature",
									"type": "int256"
								},
								{
									"internalType": "uint8",
									"name": "humidity",
									"type": "uint8"
								},
								{
									"internalType": "uint8",
									"name": "uvIndex",
									"type": "uint8"
								},
								{
									"internalType": "uint8",
									"name": "riskLevel",
									"type": "uint8"
								},
								{
									"internalType": "string",
									"name": "safetyAdvice",
									"type": "string"
								},
								{
									"internalType": "uint256",
									"name": "timestamp",
									"type": "uint256"
								},
								{
									"internalType": "address",
									"name": "publisher",
									"type": "address"
								}
							],
							"internalType": "struct HeatwaveProof.Alert",
							"name": "",
							"type": "tuple"
						}
					],
					"stateMutability": "view",
					"type": "function"
				},
				{
					"inputs": [],
					"name": "getTotalAlerts",
					"outputs": [
						{
							"internalType": "uint256",
							"name": "count",
							"type": "uint256"
						}
					],
					"stateMutability": "view",
					"type": "function"
				},
				{
					"inputs": [],
					"name": "owner",
					"outputs": [
						{
							"internalType": "address",
							"name": "",
							"type": "address"
						}
					],
					"stateMutability": "view",
					"type": "function"
				},
				{
					"inputs": [
						{
							"internalType": "string",
							"name": "city",
							"type": "string"
						},
						{
							"internalType": "int256",
							"name": "temperature",
							"type": "int256"
						},
						{
							"internalType": "uint8",
							"name": "humidity",
							"type": "uint8"
						},
						{
							"internalType": "uint8",
							"name": "uvIndex",
							"type": "uint8"
						},
						{
							"internalType": "uint8",
							"name": "riskLevel",
							"type": "uint8"
						},
						{
							"internalType": "string",
							"name": "safetyAdvice",
							"type": "string"
						}
					],
					"name": "publishAlert",
					"outputs": [],
					"stateMutability": "nonpayable",
					"type": "function"
				},
				{
					"inputs": [],
					"name": "renounceOwnership",
					"outputs": [],
					"stateMutability": "nonpayable",
					"type": "function"
				},
				{
					"inputs": [
						{
							"internalType": "address",
							"name": "newOwner",
							"type": "address"
						}
					],
					"name": "transferOwnership",
					"outputs": [],
					"stateMutability": "nonpayable",
					"type": "function"
				}
			],
			"devdoc": {
				"details": "Inherits from OpenZeppelin's Ownable so that only the deployer         (or a subsequently transferred owner) can publish new alerts.         Temperature is stored as int256 in units of (°C × 10) to preserve         one decimal place without floating-point arithmetic.         Example: 37.5 °C is stored as 375.         Future integrations:         - TODO: Chainlink AggregatorV3Interface for live temperature feed         - TODO: AI oracle hook — verify riskLevel via off-chain AI model before publishing",
				"errors": {
					"OwnableInvalidOwner(address)": [
						{
							"details": "The owner is not a valid owner account. (eg. `address(0)`)"
						}
					],
					"OwnableUnauthorizedAccount(address)": [
						{
							"details": "The caller account is not authorized to perform an operation."
						}
					]
				},
				"events": {
					"HeatwaveAlertPublished(string,uint8,int256,uint256,address)": {
						"params": {
							"city": "The city the alert was published for (indexed for fast filtering).",
							"publisher": "Address of the account that published the alert.",
							"riskLevel": "Risk level of the alert (1–5).",
							"temperature": "Temperature in °C × 10.",
							"timestamp": "Block timestamp when the alert was published."
						}
					},
					"OwnershipTransferredTo(address,address)": {
						"details": "OpenZeppelin's Ownable already emits `OwnershipTransferred`; this         event is provided here as an explicit, named complement for clarity.",
						"params": {
							"newOwner": "Address of the incoming owner.",
							"previousOwner": "Address of the outgoing owner."
						}
					}
				},
				"kind": "dev",
				"methods": {
					"constructor": {
						"details": "`msg.sender` is the wallet or contract that sends the deploy transaction."
					},
					"getAlertsByCity(string)": {
						"details": "Returns an empty array (length 0) if no alerts exist for `city`         rather than reverting — callers should check the array length.",
						"params": {
							"city": "The city name to query alerts for."
						},
						"returns": {
							"_0": "An array of `Alert` structs for the requested city,               ordered from oldest to newest."
						}
					},
					"getLatestAlert()": {
						"details": "Reverts with `NoAlertsPublished` if `allAlerts` is empty.         The latest alert is always the last element of the array         (index = length - 1).",
						"returns": {
							"_0": "The most recent `Alert` struct."
						}
					},
					"getTotalAlerts()": {
						"details": "This is a cheap O(1) read — Solidity tracks array length natively.",
						"returns": {
							"count": "The total number of alerts in `allAlerts`."
						}
					},
					"owner()": {
						"details": "Returns the address of the current owner."
					},
					"publishAlert(string,int256,uint8,uint8,uint8,string)": {
						"details": "Only the contract owner can call this function (`onlyOwner` modifier         from OpenZeppelin's Ownable reverts for any other caller).         Input validation rules:         - `city` must be a non-empty string.         - `safetyAdvice` must be a non-empty string.         - `humidity` must be in range [0, 100].         - `uvIndex` must be in range [0, 20].         - `riskLevel` must be in range [1, 5].         TODO: Chainlink AggregatorV3Interface — replace `temperature` parameter               with a live on-chain feed value pulled from an AggregatorV3Interface               oracle so the temperature cannot be manually manipulated.         TODO: AI oracle hook — verify riskLevel via off-chain AI model before               publishing. The AI model should analyse temperature, humidity, and               uvIndex and confirm or override the supplied riskLevel via a               Chainlink Any API / Functions callback before the alert is stored.",
						"params": {
							"city": "Name of the city (must not be empty).",
							"humidity": "Relative humidity percentage (0–100).",
							"riskLevel": "Heatwave risk level (1 = low … 5 = extreme).",
							"safetyAdvice": "Public safety guidance string (must not be empty).",
							"temperature": "Temperature in °C × 10 (e.g., 375 = 37.5 °C).",
							"uvIndex": "UV index (0–20)."
						}
					},
					"renounceOwnership()": {
						"details": "Leaves the contract without owner. It will not be possible to call `onlyOwner` functions. Can only be called by the current owner. NOTE: Renouncing ownership will leave the contract without an owner, thereby disabling any functionality that is only available to the owner."
					},
					"transferOwnership(address)": {
						"details": "Overrides the inherited `transferOwnership` from OpenZeppelin's         Ownable to add an explicit zero-address guard and emit our own         named event alongside the standard `OwnershipTransferred` event.         Only the current owner can call this function.",
						"params": {
							"newOwner": "The address that will become the new contract owner."
						}
					}
				},
				"title": "HeatwaveProof",
				"version": 1
			},
			"evm": {
				"assembly": "    /* \"/contracts/HeatwaveProof.sol\":1982:17543  contract HeatwaveProof is Ownable {... */\n  mstore(0x40, 0x80)\n    /* \"/contracts/HeatwaveProof.sol\":8539:8691  constructor() Ownable(msg.sender) {... */\n  callvalue\n  dup1\n  iszero\n  tag_1\n  jumpi\n  revert(0x00, 0x00)\ntag_1:\n  pop\n    /* \"/contracts/HeatwaveProof.sol\":8561:8571  msg.sender */\n  caller\n    /* \"@openzeppelin/contracts/access/Ownable.sol\":1297:1298  0 */\n  0x00\n    /* \"@openzeppelin/contracts/access/Ownable.sol\":1273:1299  initialOwner == address(0) */\n  0xffffffffffffffffffffffffffffffffffffffff\n  and\n    /* \"@openzeppelin/contracts/access/Ownable.sol\":1273:1285  initialOwner */\n  dup2\n    /* \"@openzeppelin/contracts/access/Ownable.sol\":1273:1299  initialOwner == address(0) */\n  0xffffffffffffffffffffffffffffffffffffffff\n  and\n  sub\n    /* \"@openzeppelin/contracts/access/Ownable.sol\":1269:1364  if (initialOwner == address(0)) {... */\n  tag_5\n  jumpi\n    /* \"@openzeppelin/contracts/access/Ownable.sol\":1350:1351  0 */\n  0x00\n    /* \"@openzeppelin/contracts/access/Ownable.sol\":1322:1353  OwnableInvalidOwner(address(0)) */\n  mload(0x40)\n  0x1e4fbdf700000000000000000000000000000000000000000000000000000000\n  dup2\n  mstore\n  0x04\n  add\n  tag_6\n  swap2\n  swap1\n  tag_7\n  jump\t// in\ntag_6:\n  mload(0x40)\n  dup1\n  swap2\n  sub\n  swap1\n  revert\n    /* \"@openzeppelin/contracts/access/Ownable.sol\":1269:1364  if (initialOwner == address(0)) {... */\ntag_5:\n    /* \"@openzeppelin/contracts/access/Ownable.sol\":1373:1405  _transferOwnership(initialOwner) */\n  tag_8\n    /* \"@openzeppelin/contracts/access/Ownable.sol\":1392:1404  initialOwner */\n  dup2\n    /* \"@openzeppelin/contracts/access/Ownable.sol\":1373:1391  _transferOwnership */\n  shl(0x20, tag_9)\n    /* \"@openzeppelin/contracts/access/Ownable.sol\":1373:1405  _transferOwnership(initialOwner) */\n  0x20\n  shr\n  jump\t// in\ntag_8:\n    /* \"@openzeppelin/contracts/access/Ownable.sol\":1225:1412  constructor(address initialOwner) {... */\n  pop\n    /* \"/contracts/HeatwaveProof.sol\":1982:17543  contract HeatwaveProof is Ownable {... */\n  jump(tag_11)\n    /* \"@openzeppelin/contracts/access/Ownable.sol\":2912:3099  function _transferOwnership(address newOwner) internal virtual {... */\ntag_9:\n    /* \"@openzeppelin/contracts/access/Ownable.sol\":2985:3001  address oldOwner */\n  0x00\n    /* \"@openzeppelin/contracts/access/Ownable.sol\":3004:3010  _owner */\n  0x00\n  0x00\n  swap1\n  sload\n  swap1\n  0x0100\n  exp\n  swap1\n  div\n  0xffffffffffffffffffffffffffffffffffffffff\n  and\n    /* \"@openzeppelin/contracts/access/Ownable.sol\":2985:3010  address oldOwner = _owner */\n  swap1\n  pop\n    /* \"@openzeppelin/contracts/access/Ownable.sol\":3029:3037  newOwner */\n  dup2\n    /* \"@openzeppelin/contracts/access/Ownable.sol\":3020:3026  _owner */\n  0x00\n  0x00\n    /* \"@openzeppelin/contracts/access/Ownable.sol\":3020:3037  _owner = newOwner */\n  0x0100\n  exp\n  dup2\n  sload\n  dup2\n  0xffffffffffffffffffffffffffffffffffffffff\n  mul\n  not\n  and\n  swap1\n  dup4\n  0xffffffffffffffffffffffffffffffffffffffff\n  and\n  mul\n  or\n  swap1\n  sstore\n  pop\n    /* \"@openzeppelin/contracts/access/Ownable.sol\":3083:3091  newOwner */\n  dup2\n    /* \"@openzeppelin/contracts/access/Ownable.sol\":3052:3092  OwnershipTransferred(oldOwner, newOwner) */\n  0xffffffffffffffffffffffffffffffffffffffff\n  and\n    /* \"@openzeppelin/contracts/access/Ownable.sol\":3073:3081  oldOwner */\n  dup2\n    /* \"@openzeppelin/contracts/access/Ownable.sol\":3052:3092  OwnershipTransferred(oldOwner, newOwner) */\n  0xffffffffffffffffffffffffffffffffffffffff\n  and\n  0x8be0079c531659141344cd1fd0a4f28419497f9722a3daafe3b4186f6b6457e0\n  mload(0x40)\n  mload(0x40)\n  dup1\n  swap2\n  sub\n  swap1\n  log3\n    /* \"@openzeppelin/contracts/access/Ownable.sol\":2975:3099  {... */\n  pop\n    /* \"@openzeppelin/contracts/access/Ownable.sol\":2912:3099  function _transferOwnership(address newOwner) internal virtual {... */\n  pop\n  jump\t// out\n    /* \"#utility.yul\":7:133   */\ntag_13:\n    /* \"#utility.yul\":44:51   */\n  0x00\n    /* \"#utility.yul\":84:126   */\n  0xffffffffffffffffffffffffffffffffffffffff\n    /* \"#utility.yul\":77:82   */\n  dup3\n    /* \"#utility.yul\":73:127   */\n  and\n    /* \"#utility.yul\":62:127   */\n  swap1\n  pop\n    /* \"#utility.yul\":7:133   */\n  swap2\n  swap1\n  pop\n  jump\t// out\n    /* \"#utility.yul\":139:235   */\ntag_14:\n    /* \"#utility.yul\":176:183   */\n  0x00\n    /* \"#utility.yul\":205:229   */\n  tag_19\n    /* \"#utility.yul\":223:228   */\n  dup3\n    /* \"#utility.yul\":205:229   */\n  tag_13\n  jump\t// in\ntag_19:\n    /* \"#utility.yul\":194:229   */\n  swap1\n  pop\n    /* \"#utility.yul\":139:235   */\n  swap2\n  swap1\n  pop\n  jump\t// out\n    /* \"#utility.yul\":241:359   */\ntag_15:\n    /* \"#utility.yul\":328:352   */\n  tag_21\n    /* \"#utility.yul\":346:351   */\n  dup2\n    /* \"#utility.yul\":328:352   */\n  tag_14\n  jump\t// in\ntag_21:\n    /* \"#utility.yul\":323:326   */\n  dup3\n    /* \"#utility.yul\":316:353   */\n  mstore\n    /* \"#utility.yul\":241:359   */\n  pop\n  pop\n  jump\t// out\n    /* \"#utility.yul\":365:587   */\ntag_7:\n    /* \"#utility.yul\":458:462   */\n  0x00\n    /* \"#utility.yul\":496:498   */\n  0x20\n    /* \"#utility.yul\":485:494   */\n  dup3\n    /* \"#utility.yul\":481:499   */\n  add\n    /* \"#utility.yul\":473:499   */\n  swap1\n  pop\n    /* \"#utility.yul\":509:580   */\n  tag_23\n    /* \"#utility.yul\":577:578   */\n  0x00\n    /* \"#utility.yul\":566:575   */\n  dup4\n    /* \"#utility.yul\":562:579   */\n  add\n    /* \"#utility.yul\":553:559   */\n  dup5\n    /* \"#utility.yul\":509:580   */\n  tag_15\n  jump\t// in\ntag_23:\n    /* \"#utility.yul\":365:587   */\n  swap3\n  swap2\n  pop\n  pop\n  jump\t// out\n    /* \"/contracts/HeatwaveProof.sol\":1982:17543  contract HeatwaveProof is Ownable {... */\ntag_11:\n  dataSize(sub_0)\n  dup1\n  dataOffset(sub_0)\n  0x00\n  codecopy\n  0x00\n  return\nstop\n\nsub_0: assembly {\n        /* \"/contracts/HeatwaveProof.sol\":1982:17543  contract HeatwaveProof is Ownable {... */\n      mstore(0x40, 0x80)\n      callvalue\n      dup1\n      iszero\n      tag_1\n      jumpi\n      revert(0x00, 0x00)\n    tag_1:\n      pop\n      jumpi(tag_2, lt(calldatasize, 0x04))\n      shr(0xe0, calldataload(0x00))\n      dup1\n      0x715018a6\n      gt\n      tag_10\n      jumpi\n      dup1\n      0x715018a6\n      eq\n      tag_6\n      jumpi\n      dup1\n      0x8da5cb5b\n      eq\n      tag_7\n      jumpi\n      dup1\n      0xc1be76d7\n      eq\n      tag_8\n      jumpi\n      dup1\n      0xf2fde38b\n      eq\n      tag_9\n      jumpi\n      jump(tag_2)\n    tag_10:\n      dup1\n      0x12670d4a\n      eq\n      tag_3\n      jumpi\n      dup1\n      0x6188f851\n      eq\n      tag_4\n      jumpi\n      dup1\n      0x68cfa2f9\n      eq\n      tag_5\n      jumpi\n    tag_2:\n      revert(0x00, 0x00)\n        /* \"/contracts/HeatwaveProof.sol\":15978:16335  function getLatestAlert() external view returns (Alert memory) {... */\n    tag_3:\n      tag_11\n      tag_12\n      jump\t// in\n    tag_11:\n      mload(0x40)\n      tag_13\n      swap2\n      swap1\n      tag_14\n      jump\t// in\n    tag_13:\n      mload(0x40)\n      dup1\n      swap2\n      sub\n      swap1\n      return\n        /* \"/contracts/HeatwaveProof.sol\":10793:13865  function publishAlert(... */\n    tag_4:\n      tag_15\n      0x04\n      dup1\n      calldatasize\n      sub\n      dup2\n      add\n      swap1\n      tag_16\n      swap2\n      swap1\n      tag_17\n      jump\t// in\n    tag_16:\n      tag_18\n      jump\t// in\n    tag_15:\n      stop\n        /* \"/contracts/HeatwaveProof.sol\":16781:17088  function getAlertsByCity(string memory city)... */\n    tag_5:\n      tag_19\n      0x04\n      dup1\n      calldatasize\n      sub\n      dup2\n      add\n      swap1\n      tag_20\n      swap2\n      swap1\n      tag_21\n      jump\t// in\n    tag_20:\n      tag_22\n      jump\t// in\n    tag_19:\n      mload(0x40)\n      tag_23\n      swap2\n      swap1\n      tag_24\n      jump\t// in\n    tag_23:\n      mload(0x40)\n      dup1\n      swap2\n      sub\n      swap1\n      return\n        /* \"@openzeppelin/contracts/access/Ownable.sol\":2293:2394  function renounceOwnership() public virtual onlyOwner {... */\n    tag_6:\n      tag_25\n      tag_26\n      jump\t// in\n    tag_25:\n      stop\n        /* \"@openzeppelin/contracts/access/Ownable.sol\":1638:1723  function owner() public view virtual returns (address) {... */\n    tag_7:\n      tag_27\n      tag_28\n      jump\t// in\n    tag_27:\n      mload(0x40)\n      tag_29\n      swap2\n      swap1\n      tag_30\n      jump\t// in\n    tag_29:\n      mload(0x40)\n      dup1\n      swap2\n      sub\n      swap1\n      return\n        /* \"/contracts/HeatwaveProof.sol\":17351:17541  function getTotalAlerts() external view returns (uint256 count) {... */\n    tag_8:\n      tag_31\n      tag_32\n      jump\t// in\n    tag_31:\n      mload(0x40)\n      tag_33\n      swap2\n      swap1\n      tag_34\n      jump\t// in\n    tag_33:\n      mload(0x40)\n      dup1\n      swap2\n      sub\n      swap1\n      return\n        /* \"/contracts/HeatwaveProof.sol\":14349:15115  function transferOwnership(address newOwner)... */\n    tag_9:\n      tag_35\n      0x04\n      dup1\n      calldatasize\n      sub\n      dup2\n      add\n      swap1\n      tag_36\n      swap2\n      swap1\n      tag_37\n      jump\t// in\n    tag_36:\n      tag_38\n      jump\t// in\n    tag_35:\n      stop\n        /* \"/contracts/HeatwaveProof.sol\":15978:16335  function getLatestAlert() external view returns (Alert memory) {... */\n    tag_12:\n        /* \"/contracts/HeatwaveProof.sol\":16027:16039  Alert memory */\n      tag_39\n      tag_40\n      jump\t// in\n    tag_39:\n        /* \"/contracts/HeatwaveProof.sol\":16156:16157  0 */\n      0x00\n        /* \"/contracts/HeatwaveProof.sol\":16136:16145  allAlerts */\n      0x02\n        /* \"/contracts/HeatwaveProof.sol\":16136:16152  allAlerts.length */\n      dup1\n      sload\n      swap1\n      pop\n        /* \"/contracts/HeatwaveProof.sol\":16136:16157  allAlerts.length == 0 */\n      sub\n        /* \"/contracts/HeatwaveProof.sol\":16132:16210  if (allAlerts.length == 0) {... */\n      tag_42\n      jumpi\n        /* \"/contracts/HeatwaveProof.sol\":16180:16199  NoAlertsPublished() */\n      mload(0x40)\n      0x57dc5d4f00000000000000000000000000000000000000000000000000000000\n      dup2\n      mstore\n      0x04\n      add\n      mload(0x40)\n      dup1\n      swap2\n      sub\n      swap1\n      revert\n        /* \"/contracts/HeatwaveProof.sol\":16132:16210  if (allAlerts.length == 0) {... */\n    tag_42:\n        /* \"/contracts/HeatwaveProof.sol\":16297:16306  allAlerts */\n      0x02\n        /* \"/contracts/HeatwaveProof.sol\":16326:16327  1 */\n      0x01\n        /* \"/contracts/HeatwaveProof.sol\":16307:16316  allAlerts */\n      0x02\n        /* \"/contracts/HeatwaveProof.sol\":16307:16323  allAlerts.length */\n      dup1\n      sload\n      swap1\n      pop\n        /* \"/contracts/HeatwaveProof.sol\":16307:16327  allAlerts.length - 1 */\n      tag_43\n      swap2\n      swap1\n      tag_44\n      jump\t// in\n    tag_43:\n        /* \"/contracts/HeatwaveProof.sol\":16297:16328  allAlerts[allAlerts.length - 1] */\n      dup2\n      sload\n      dup2\n      lt\n      tag_45\n      jumpi\n      tag_46\n      tag_47\n      jump\t// in\n    tag_46:\n    tag_45:\n      swap1\n      0x00\n      mstore\n      keccak256(0x00, 0x20)\n      swap1\n      0x06\n      mul\n      add\n        /* \"/contracts/HeatwaveProof.sol\":16290:16328  return allAlerts[allAlerts.length - 1] */\n      mload(0x40)\n      dup1\n      0x0100\n      add\n      0x40\n      mstore\n      swap1\n      dup2\n      0x00\n      dup3\n      add\n      dup1\n      sload\n      tag_49\n      swap1\n      tag_50\n      jump\t// in\n    tag_49:\n      dup1\n      0x1f\n      add\n      0x20\n      dup1\n      swap2\n      div\n      mul\n      0x20\n      add\n      mload(0x40)\n      swap1\n      dup2\n      add\n      0x40\n      mstore\n      dup1\n      swap3\n      swap2\n      swap1\n      dup2\n      dup2\n      mstore\n      0x20\n      add\n      dup3\n      dup1\n      sload\n      tag_51\n      swap1\n      tag_50\n      jump\t// in\n    tag_51:\n      dup1\n      iszero\n      tag_52\n      jumpi\n      dup1\n      0x1f\n      lt\n      tag_53\n      jumpi\n      0x0100\n      dup1\n      dup4\n      sload\n      div\n      mul\n      dup4\n      mstore\n      swap2\n      0x20\n      add\n      swap2\n      jump(tag_52)\n    tag_53:\n      dup3\n      add\n      swap2\n      swap1\n      0x00\n      mstore\n      keccak256(0x00, 0x20)\n      swap1\n    tag_54:\n      dup2\n      sload\n      dup2\n      mstore\n      swap1\n      0x01\n      add\n      swap1\n      0x20\n      add\n      dup1\n      dup4\n      gt\n      tag_54\n      jumpi\n      dup3\n      swap1\n      sub\n      0x1f\n      and\n      dup3\n      add\n      swap2\n    tag_52:\n      pop\n      pop\n      pop\n      pop\n      pop\n      dup2\n      mstore\n      0x20\n      add\n      0x01\n      dup3\n      add\n      sload\n      dup2\n      mstore\n      0x20\n      add\n      0x02\n      dup3\n      add\n      0x00\n      swap1\n      sload\n      swap1\n      0x0100\n      exp\n      swap1\n      div\n      0xff\n      and\n      0xff\n      and\n      0xff\n      and\n      dup2\n      mstore\n      0x20\n      add\n      0x02\n      dup3\n      add\n      0x01\n      swap1\n      sload\n      swap1\n      0x0100\n      exp\n      swap1\n      div\n      0xff\n      and\n      0xff\n      and\n      0xff\n      and\n      dup2\n      mstore\n      0x20\n      add\n      0x02\n      dup3\n      add\n      0x02\n      swap1\n      sload\n      swap1\n      0x0100\n      exp\n      swap1\n      div\n      0xff\n      and\n      0xff\n      and\n      0xff\n      and\n      dup2\n      mstore\n      0x20\n      add\n      0x03\n      dup3\n      add\n      dup1\n      sload\n      tag_55\n      swap1\n      tag_50\n      jump\t// in\n    tag_55:\n      dup1\n      0x1f\n      add\n      0x20\n      dup1\n      swap2\n      div\n      mul\n      0x20\n      add\n      mload(0x40)\n      swap1\n      dup2\n      add\n      0x40\n      mstore\n      dup1\n      swap3\n      swap2\n      swap1\n      dup2\n      dup2\n      mstore\n      0x20\n      add\n      dup3\n      dup1\n      sload\n      tag_56\n      swap1\n      tag_50\n      jump\t// in\n    tag_56:\n      dup1\n      iszero\n      tag_57\n      jumpi\n      dup1\n      0x1f\n      lt\n      tag_58\n      jumpi\n      0x0100\n      dup1\n      dup4\n      sload\n      div\n      mul\n      dup4\n      mstore\n      swap2\n      0x20\n      add\n      swap2\n      jump(tag_57)\n    tag_58:\n      dup3\n      add\n      swap2\n      swap1\n      0x00\n      mstore\n      keccak256(0x00, 0x20)\n      swap1\n    tag_59:\n      dup2\n      sload\n      dup2\n      mstore\n      swap1\n      0x01\n      add\n      swap1\n      0x20\n      add\n      dup1\n      dup4\n      gt\n      tag_59\n      jumpi\n      dup3\n      swap1\n      sub\n      0x1f\n      and\n      dup3\n      add\n      swap2\n    tag_57:\n      pop\n      pop\n      pop\n      pop\n      pop\n      dup2\n      mstore\n      0x20\n      add\n      0x04\n      dup3\n      add\n      sload\n      dup2\n      mstore\n      0x20\n      add\n      0x05\n      dup3\n      add\n      0x00\n      swap1\n      sload\n      swap1\n      0x0100\n      exp\n      swap1\n      div\n      0xffffffffffffffffffffffffffffffffffffffff\n      and\n      0xffffffffffffffffffffffffffffffffffffffff\n      and\n      0xffffffffffffffffffffffffffffffffffffffff\n      and\n      dup2\n      mstore\n      pop\n      pop\n      swap1\n      pop\n        /* \"/contracts/HeatwaveProof.sol\":15978:16335  function getLatestAlert() external view returns (Alert memory) {... */\n      swap1\n      jump\t// out\n        /* \"/contracts/HeatwaveProof.sol\":10793:13865  function publishAlert(... */\n    tag_18:\n        /* \"@openzeppelin/contracts/access/Ownable.sol\":1531:1544  _checkOwner() */\n      tag_61\n        /* \"@openzeppelin/contracts/access/Ownable.sol\":1531:1542  _checkOwner */\n      tag_62\n        /* \"@openzeppelin/contracts/access/Ownable.sol\":1531:1544  _checkOwner() */\n      jump\t// in\n    tag_61:\n        /* \"/contracts/HeatwaveProof.sol\":11555:11556  0 */\n      0x00\n        /* \"/contracts/HeatwaveProof.sol\":11539:11543  city */\n      dup7\n        /* \"/contracts/HeatwaveProof.sol\":11533:11551  bytes(city).length */\n      mload\n        /* \"/contracts/HeatwaveProof.sol\":11533:11556  bytes(city).length == 0 */\n      sub\n        /* \"/contracts/HeatwaveProof.sol\":11529:11619  if (bytes(city).length == 0) {... */\n      tag_64\n      jumpi\n        /* \"/contracts/HeatwaveProof.sol\":11579:11608  EmptyStringNotAllowed(\"city\") */\n      mload(0x40)\n      0x0e94c37e00000000000000000000000000000000000000000000000000000000\n      dup2\n      mstore\n      0x04\n      add\n      tag_65\n      swap1\n      tag_66\n      jump\t// in\n    tag_65:\n      mload(0x40)\n      dup1\n      swap2\n      sub\n      swap1\n      revert\n        /* \"/contracts/HeatwaveProof.sol\":11529:11619  if (bytes(city).length == 0) {... */\n    tag_64:\n        /* \"/contracts/HeatwaveProof.sol\":11718:11719  0 */\n      0x00\n        /* \"/contracts/HeatwaveProof.sol\":11694:11706  safetyAdvice */\n      dup2\n        /* \"/contracts/HeatwaveProof.sol\":11688:11714  bytes(safetyAdvice).length */\n      mload\n        /* \"/contracts/HeatwaveProof.sol\":11688:11719  bytes(safetyAdvice).length == 0 */\n      sub\n        /* \"/contracts/HeatwaveProof.sol\":11684:11790  if (bytes(safetyAdvice).length == 0) {... */\n      tag_67\n      jumpi\n        /* \"/contracts/HeatwaveProof.sol\":11742:11779  EmptyStringNotAllowed(\"safetyAdvice\") */\n      mload(0x40)\n      0x0e94c37e00000000000000000000000000000000000000000000000000000000\n      dup2\n      mstore\n      0x04\n      add\n      tag_68\n      swap1\n      tag_69\n      jump\t// in\n    tag_68:\n      mload(0x40)\n      dup1\n      swap2\n      sub\n      swap1\n      revert\n        /* \"/contracts/HeatwaveProof.sol\":11684:11790  if (bytes(safetyAdvice).length == 0) {... */\n    tag_67:\n        /* \"/contracts/HeatwaveProof.sol\":11876:11879  100 */\n      0x64\n        /* \"/contracts/HeatwaveProof.sol\":11865:11873  humidity */\n      dup5\n        /* \"/contracts/HeatwaveProof.sol\":11865:11879  humidity > 100 */\n      0xff\n      and\n      gt\n        /* \"/contracts/HeatwaveProof.sol\":11861:11941  if (humidity > 100) {... */\n      iszero\n      tag_70\n      jumpi\n        /* \"/contracts/HeatwaveProof.sol\":11921:11929  humidity */\n      dup4\n        /* \"/contracts/HeatwaveProof.sol\":11902:11930  HumidityOutOfRange(humidity) */\n      mload(0x40)\n      0xaa67a8e700000000000000000000000000000000000000000000000000000000\n      dup2\n      mstore\n      0x04\n      add\n      tag_71\n      swap2\n      swap1\n      tag_72\n      jump\t// in\n    tag_71:\n      mload(0x40)\n      dup1\n      swap2\n      sub\n      swap1\n      revert\n        /* \"/contracts/HeatwaveProof.sol\":11861:11941  if (humidity > 100) {... */\n    tag_70:\n        /* \"/contracts/HeatwaveProof.sol\":12023:12025  20 */\n      0x14\n        /* \"/contracts/HeatwaveProof.sol\":12013:12020  uvIndex */\n      dup4\n        /* \"/contracts/HeatwaveProof.sol\":12013:12025  uvIndex > 20 */\n      0xff\n      and\n      gt\n        /* \"/contracts/HeatwaveProof.sol\":12009:12085  if (uvIndex > 20) {... */\n      iszero\n      tag_73\n      jumpi\n        /* \"/contracts/HeatwaveProof.sol\":12066:12073  uvIndex */\n      dup3\n        /* \"/contracts/HeatwaveProof.sol\":12048:12074  UvIndexOutOfRange(uvIndex) */\n      mload(0x40)\n      0xa8d761b000000000000000000000000000000000000000000000000000000000\n      dup2\n      mstore\n      0x04\n      add\n      tag_74\n      swap2\n      swap1\n      tag_72\n      jump\t// in\n    tag_74:\n      mload(0x40)\n      dup1\n      swap2\n      sub\n      swap1\n      revert\n        /* \"/contracts/HeatwaveProof.sol\":12009:12085  if (uvIndex > 20) {... */\n    tag_73:\n        /* \"/contracts/HeatwaveProof.sol\":12175:12176  1 */\n      0x01\n        /* \"/contracts/HeatwaveProof.sol\":12163:12172  riskLevel */\n      dup3\n        /* \"/contracts/HeatwaveProof.sol\":12163:12176  riskLevel < 1 */\n      0xff\n      and\n      lt\n        /* \"/contracts/HeatwaveProof.sol\":12163:12193  riskLevel < 1 || riskLevel > 5 */\n      dup1\n      tag_75\n      jumpi\n      pop\n        /* \"/contracts/HeatwaveProof.sol\":12192:12193  5 */\n      0x05\n        /* \"/contracts/HeatwaveProof.sol\":12180:12189  riskLevel */\n      dup3\n        /* \"/contracts/HeatwaveProof.sol\":12180:12193  riskLevel > 5 */\n      0xff\n      and\n      gt\n        /* \"/contracts/HeatwaveProof.sol\":12163:12193  riskLevel < 1 || riskLevel > 5 */\n    tag_75:\n        /* \"/contracts/HeatwaveProof.sol\":12159:12257  if (riskLevel < 1 || riskLevel > 5) {... */\n      iszero\n      tag_76\n      jumpi\n        /* \"/contracts/HeatwaveProof.sol\":12236:12245  riskLevel */\n      dup2\n        /* \"/contracts/HeatwaveProof.sol\":12216:12246  RiskLevelOutOfRange(riskLevel) */\n      mload(0x40)\n      0x9632db5100000000000000000000000000000000000000000000000000000000\n      dup2\n      mstore\n      0x04\n      add\n      tag_77\n      swap2\n      swap1\n      tag_72\n      jump\t// in\n    tag_77:\n      mload(0x40)\n      dup1\n      swap2\n      sub\n      swap1\n      revert\n        /* \"/contracts/HeatwaveProof.sol\":12159:12257  if (riskLevel < 1 || riskLevel > 5) {... */\n    tag_76:\n        /* \"/contracts/HeatwaveProof.sol\":12591:12612  Alert memory newAlert */\n      0x00\n        /* \"/contracts/HeatwaveProof.sol\":12615:13006  Alert({... */\n      mload(0x40)\n      dup1\n      0x0100\n      add\n      0x40\n      mstore\n      dup1\n        /* \"/contracts/HeatwaveProof.sol\":12648:12652  city */\n      dup9\n        /* \"/contracts/HeatwaveProof.sol\":12615:13006  Alert({... */\n      dup2\n      mstore\n      0x20\n      add\n        /* \"/contracts/HeatwaveProof.sol\":12679:12690  temperature */\n      dup8\n        /* \"/contracts/HeatwaveProof.sol\":12615:13006  Alert({... */\n      dup2\n      mstore\n      0x20\n      add\n        /* \"/contracts/HeatwaveProof.sol\":12717:12725  humidity */\n      dup7\n        /* \"/contracts/HeatwaveProof.sol\":12615:13006  Alert({... */\n      0xff\n      and\n      dup2\n      mstore\n      0x20\n      add\n        /* \"/contracts/HeatwaveProof.sol\":12752:12759  uvIndex */\n      dup6\n        /* \"/contracts/HeatwaveProof.sol\":12615:13006  Alert({... */\n      0xff\n      and\n      dup2\n      mstore\n      0x20\n      add\n        /* \"/contracts/HeatwaveProof.sol\":12786:12795  riskLevel */\n      dup5\n        /* \"/contracts/HeatwaveProof.sol\":12615:13006  Alert({... */\n      0xff\n      and\n      dup2\n      mstore\n      0x20\n      add\n        /* \"/contracts/HeatwaveProof.sol\":12823:12835  safetyAdvice */\n      dup4\n        /* \"/contracts/HeatwaveProof.sol\":12615:13006  Alert({... */\n      dup2\n      mstore\n      0x20\n      add\n        /* \"/contracts/HeatwaveProof.sol\":12862:12877  block.timestamp */\n      timestamp\n        /* \"/contracts/HeatwaveProof.sol\":12615:13006  Alert({... */\n      dup2\n      mstore\n      0x20\n      add\n        /* \"/contracts/HeatwaveProof.sol\":12940:12950  msg.sender */\n      caller\n        /* \"/contracts/HeatwaveProof.sol\":12615:13006  Alert({... */\n      0xffffffffffffffffffffffffffffffffffffffff\n      and\n      dup2\n      mstore\n      pop\n        /* \"/contracts/HeatwaveProof.sol\":12591:13006  Alert memory newAlert = Alert({... */\n      swap1\n      pop\n        /* \"/contracts/HeatwaveProof.sol\":13224:13234  cityAlerts */\n      0x01\n        /* \"/contracts/HeatwaveProof.sol\":13235:13239  city */\n      dup8\n        /* \"/contracts/HeatwaveProof.sol\":13224:13240  cityAlerts[city] */\n      mload(0x40)\n      tag_78\n      swap2\n      swap1\n      tag_79\n      jump\t// in\n    tag_78:\n      swap1\n      dup2\n      mstore\n      0x20\n      add\n      mload(0x40)\n      dup1\n      swap2\n      sub\n      swap1\n      keccak256\n        /* \"/contracts/HeatwaveProof.sol\":13246:13254  newAlert */\n      dup2\n        /* \"/contracts/HeatwaveProof.sol\":13224:13255  cityAlerts[city].push(newAlert) */\n      swap1\n      dup1\n      0x01\n      dup2\n      sload\n      add\n      dup1\n      dup3\n      sstore\n      dup1\n      swap2\n      pop\n      pop\n      0x01\n      swap1\n      sub\n      swap1\n      0x00\n      mstore\n      keccak256(0x00, 0x20)\n      swap1\n      0x06\n      mul\n      add\n      0x00\n      swap1\n      swap2\n      swap1\n      swap2\n      swap1\n      swap2\n      pop\n      0x00\n      dup3\n      add\n      mload\n      dup2\n      0x00\n      add\n      swap1\n      dup2\n      tag_81\n      swap2\n      swap1\n      tag_82\n      jump\t// in\n    tag_81:\n      pop\n      0x20\n      dup3\n      add\n      mload\n      dup2\n      0x01\n      add\n      sstore\n      0x40\n      dup3\n      add\n      mload\n      dup2\n      0x02\n      add\n      exp(0x0100, 0x00)\n      dup2\n      sload\n      dup2\n      0xff\n      mul\n      not\n      and\n      swap1\n      dup4\n      0xff\n      and\n      mul\n      or\n      swap1\n      sstore\n      pop\n      0x60\n      dup3\n      add\n      mload\n      dup2\n      0x02\n      add\n      exp(0x0100, 0x01)\n      dup2\n      sload\n      dup2\n      0xff\n      mul\n      not\n      and\n      swap1\n      dup4\n      0xff\n      and\n      mul\n      or\n      swap1\n      sstore\n      pop\n      0x80\n      dup3\n      add\n      mload\n      dup2\n      0x02\n      add\n      exp(0x0100, 0x02)\n      dup2\n      sload\n      dup2\n      0xff\n      mul\n      not\n      and\n      swap1\n      dup4\n      0xff\n      and\n      mul\n      or\n      swap1\n      sstore\n      pop\n      0xa0\n      dup3\n      add\n      mload\n      dup2\n      0x03\n      add\n      swap1\n      dup2\n      tag_83\n      swap2\n      swap1\n      tag_82\n      jump\t// in\n    tag_83:\n      pop\n      0xc0\n      dup3\n      add\n      mload\n      dup2\n      0x04\n      add\n      sstore\n      0xe0\n      dup3\n      add\n      mload\n      dup2\n      0x05\n      add\n      exp(0x0100, 0x00)\n      dup2\n      sload\n      dup2\n      0xffffffffffffffffffffffffffffffffffffffff\n      mul\n      not\n      and\n      swap1\n      dup4\n      0xffffffffffffffffffffffffffffffffffffffff\n      and\n      mul\n      or\n      swap1\n      sstore\n      pop\n      pop\n      pop\n        /* \"/contracts/HeatwaveProof.sol\":13339:13348  allAlerts */\n      0x02\n        /* \"/contracts/HeatwaveProof.sol\":13354:13362  newAlert */\n      dup2\n        /* \"/contracts/HeatwaveProof.sol\":13339:13363  allAlerts.push(newAlert) */\n      swap1\n      dup1\n      0x01\n      dup2\n      sload\n      add\n      dup1\n      dup3\n      sstore\n      dup1\n      swap2\n      pop\n      pop\n      0x01\n      swap1\n      sub\n      swap1\n      0x00\n      mstore\n      keccak256(0x00, 0x20)\n      swap1\n      0x06\n      mul\n      add\n      0x00\n      swap1\n      swap2\n      swap1\n      swap2\n      swap1\n      swap2\n      pop\n      0x00\n      dup3\n      add\n      mload\n      dup2\n      0x00\n      add\n      swap1\n      dup2\n      tag_85\n      swap2\n      swap1\n      tag_82\n      jump\t// in\n    tag_85:\n      pop\n      0x20\n      dup3\n      add\n      mload\n      dup2\n      0x01\n      add\n      sstore\n      0x40\n      dup3\n      add\n      mload\n      dup2\n      0x02\n      add\n      exp(0x0100, 0x00)\n      dup2\n      sload\n      dup2\n      0xff\n      mul\n      not\n      and\n      swap1\n      dup4\n      0xff\n      and\n      mul\n      or\n      swap1\n      sstore\n      pop\n      0x60\n      dup3\n      add\n      mload\n      dup2\n      0x02\n      add\n      exp(0x0100, 0x01)\n      dup2\n      sload\n      dup2\n      0xff\n      mul\n      not\n      and\n      swap1\n      dup4\n      0xff\n      and\n      mul\n      or\n      swap1\n      sstore\n      pop\n      0x80\n      dup3\n      add\n      mload\n      dup2\n      0x02\n      add\n      exp(0x0100, 0x02)\n      dup2\n      sload\n      dup2\n      0xff\n      mul\n      not\n      and\n      swap1\n      dup4\n      0xff\n      and\n      mul\n      or\n      swap1\n      sstore\n      pop\n      0xa0\n      dup3\n      add\n      mload\n      dup2\n      0x03\n      add\n      swap1\n      dup2\n      tag_86\n      swap2\n      swap1\n      tag_82\n      jump\t// in\n    tag_86:\n      pop\n      0xc0\n      dup3\n      add\n      mload\n      dup2\n      0x04\n      add\n      sstore\n      0xe0\n      dup3\n      add\n      mload\n      dup2\n      0x05\n      add\n      exp(0x0100, 0x00)\n      dup2\n      sload\n      dup2\n      0xffffffffffffffffffffffffffffffffffffffff\n      mul\n      not\n      and\n      swap1\n      dup4\n      0xffffffffffffffffffffffffffffffffffffffff\n      and\n      mul\n      or\n      swap1\n      sstore\n      pop\n      pop\n      pop\n        /* \"/contracts/HeatwaveProof.sol\":13743:13747  city */\n      dup7\n        /* \"/contracts/HeatwaveProof.sol\":13707:13858  HeatwaveAlertPublished(... */\n      mload(0x40)\n      tag_87\n      swap2\n      swap1\n      tag_79\n      jump\t// in\n    tag_87:\n      mload(0x40)\n      dup1\n      swap2\n      sub\n      swap1\n      keccak256\n      0x4314cb9ed0f3588d4307a46e2087ddf0b05e24ec4d4dda26b9ad01ae9d57d322\n        /* \"/contracts/HeatwaveProof.sol\":13761:13770  riskLevel */\n      dup5\n        /* \"/contracts/HeatwaveProof.sol\":13784:13795  temperature */\n      dup9\n        /* \"/contracts/HeatwaveProof.sol\":13809:13824  block.timestamp */\n      timestamp\n        /* \"/contracts/HeatwaveProof.sol\":13838:13848  msg.sender */\n      caller\n        /* \"/contracts/HeatwaveProof.sol\":13707:13858  HeatwaveAlertPublished(... */\n      mload(0x40)\n      tag_88\n      swap5\n      swap4\n      swap3\n      swap2\n      swap1\n      tag_89\n      jump\t// in\n    tag_88:\n      mload(0x40)\n      dup1\n      swap2\n      sub\n      swap1\n      log2\n        /* \"/contracts/HeatwaveProof.sol\":11115:13865  {... */\n      pop\n        /* \"/contracts/HeatwaveProof.sol\":10793:13865  function publishAlert(... */\n      pop\n      pop\n      pop\n      pop\n      pop\n      pop\n      jump\t// out\n        /* \"/contracts/HeatwaveProof.sol\":16781:17088  function getAlertsByCity(string memory city)... */\n    tag_22:\n        /* \"/contracts/HeatwaveProof.sol\":16873:16887  Alert[] memory */\n      0x60\n        /* \"/contracts/HeatwaveProof.sol\":17065:17075  cityAlerts */\n      0x01\n        /* \"/contracts/HeatwaveProof.sol\":17076:17080  city */\n      dup3\n        /* \"/contracts/HeatwaveProof.sol\":17065:17081  cityAlerts[city] */\n      mload(0x40)\n      tag_91\n      swap2\n      swap1\n      tag_79\n      jump\t// in\n    tag_91:\n      swap1\n      dup2\n      mstore\n      0x20\n      add\n      mload(0x40)\n      dup1\n      swap2\n      sub\n      swap1\n      keccak256\n        /* \"/contracts/HeatwaveProof.sol\":17058:17081  return cityAlerts[city] */\n      dup1\n      sload\n      dup1\n      0x20\n      mul\n      0x20\n      add\n      mload(0x40)\n      swap1\n      dup2\n      add\n      0x40\n      mstore\n      dup1\n      swap3\n      swap2\n      swap1\n      dup2\n      dup2\n      mstore\n      0x20\n      add\n      0x00\n      swap1\n    tag_92:\n      dup3\n      dup3\n      lt\n      iszero\n      tag_93\n      jumpi\n      dup4\n      dup3\n      swap1\n      0x00\n      mstore\n      keccak256(0x00, 0x20)\n      swap1\n      0x06\n      mul\n      add\n      mload(0x40)\n      dup1\n      0x0100\n      add\n      0x40\n      mstore\n      swap1\n      dup2\n      0x00\n      dup3\n      add\n      dup1\n      sload\n      tag_95\n      swap1\n      tag_50\n      jump\t// in\n    tag_95:\n      dup1\n      0x1f\n      add\n      0x20\n      dup1\n      swap2\n      div\n      mul\n      0x20\n      add\n      mload(0x40)\n      swap1\n      dup2\n      add\n      0x40\n      mstore\n      dup1\n      swap3\n      swap2\n      swap1\n      dup2\n      dup2\n      mstore\n      0x20\n      add\n      dup3\n      dup1\n      sload\n      tag_96\n      swap1\n      tag_50\n      jump\t// in\n    tag_96:\n      dup1\n      iszero\n      tag_97\n      jumpi\n      dup1\n      0x1f\n      lt\n      tag_98\n      jumpi\n      0x0100\n      dup1\n      dup4\n      sload\n      div\n      mul\n      dup4\n      mstore\n      swap2\n      0x20\n      add\n      swap2\n      jump(tag_97)\n    tag_98:\n      dup3\n      add\n      swap2\n      swap1\n      0x00\n      mstore\n      keccak256(0x00, 0x20)\n      swap1\n    tag_99:\n      dup2\n      sload\n      dup2\n      mstore\n      swap1\n      0x01\n      add\n      swap1\n      0x20\n      add\n      dup1\n      dup4\n      gt\n      tag_99\n      jumpi\n      dup3\n      swap1\n      sub\n      0x1f\n      and\n      dup3\n      add\n      swap2\n    tag_97:\n      pop\n      pop\n      pop\n      pop\n      pop\n      dup2\n      mstore\n      0x20\n      add\n      0x01\n      dup3\n      add\n      sload\n      dup2\n      mstore\n      0x20\n      add\n      0x02\n      dup3\n      add\n      0x00\n      swap1\n      sload\n      swap1\n      0x0100\n      exp\n      swap1\n      div\n      0xff\n      and\n      0xff\n      and\n      0xff\n      and\n      dup2\n      mstore\n      0x20\n      add\n      0x02\n      dup3\n      add\n      0x01\n      swap1\n      sload\n      swap1\n      0x0100\n      exp\n      swap1\n      div\n      0xff\n      and\n      0xff\n      and\n      0xff\n      and\n      dup2\n      mstore\n      0x20\n      add\n      0x02\n      dup3\n      add\n      0x02\n      swap1\n      sload\n      swap1\n      0x0100\n      exp\n      swap1\n      div\n      0xff\n      and\n      0xff\n      and\n      0xff\n      and\n      dup2\n      mstore\n      0x20\n      add\n      0x03\n      dup3\n      add\n      dup1\n      sload\n      tag_100\n      swap1\n      tag_50\n      jump\t// in\n    tag_100:\n      dup1\n      0x1f\n      add\n      0x20\n      dup1\n      swap2\n      div\n      mul\n      0x20\n      add\n      mload(0x40)\n      swap1\n      dup2\n      add\n      0x40\n      mstore\n      dup1\n      swap3\n      swap2\n      swap1\n      dup2\n      dup2\n      mstore\n      0x20\n      add\n      dup3\n      dup1\n      sload\n      tag_101\n      swap1\n      tag_50\n      jump\t// in\n    tag_101:\n      dup1\n      iszero\n      tag_102\n      jumpi\n      dup1\n      0x1f\n      lt\n      tag_103\n      jumpi\n      0x0100\n      dup1\n      dup4\n      sload\n      div\n      mul\n      dup4\n      mstore\n      swap2\n      0x20\n      add\n      swap2\n      jump(tag_102)\n    tag_103:\n      dup3\n      add\n      swap2\n      swap1\n      0x00\n      mstore\n      keccak256(0x00, 0x20)\n      swap1\n    tag_104:\n      dup2\n      sload\n      dup2\n      mstore\n      swap1\n      0x01\n      add\n      swap1\n      0x20\n      add\n      dup1\n      dup4\n      gt\n      tag_104\n      jumpi\n      dup3\n      swap1\n      sub\n      0x1f\n      and\n      dup3\n      add\n      swap2\n    tag_102:\n      pop\n      pop\n      pop\n      pop\n      pop\n      dup2\n      mstore\n      0x20\n      add\n      0x04\n      dup3\n      add\n      sload\n      dup2\n      mstore\n      0x20\n      add\n      0x05\n      dup3\n      add\n      0x00\n      swap1\n      sload\n      swap1\n      0x0100\n      exp\n      swap1\n      div\n      0xffffffffffffffffffffffffffffffffffffffff\n      and\n      0xffffffffffffffffffffffffffffffffffffffff\n      and\n      0xffffffffffffffffffffffffffffffffffffffff\n      and\n      dup2\n      mstore\n      pop\n      pop\n      dup2\n      mstore\n      0x20\n      add\n      swap1\n      0x01\n      add\n      swap1\n      jump(tag_92)\n    tag_93:\n      pop\n      pop\n      pop\n      pop\n      swap1\n      pop\n        /* \"/contracts/HeatwaveProof.sol\":16781:17088  function getAlertsByCity(string memory city)... */\n      swap2\n      swap1\n      pop\n      jump\t// out\n        /* \"@openzeppelin/contracts/access/Ownable.sol\":2293:2394  function renounceOwnership() public virtual onlyOwner {... */\n    tag_26:\n        /* \"@openzeppelin/contracts/access/Ownable.sol\":1531:1544  _checkOwner() */\n      tag_106\n        /* \"@openzeppelin/contracts/access/Ownable.sol\":1531:1542  _checkOwner */\n      tag_62\n        /* \"@openzeppelin/contracts/access/Ownable.sol\":1531:1544  _checkOwner() */\n      jump\t// in\n    tag_106:\n        /* \"@openzeppelin/contracts/access/Ownable.sol\":2357:2387  _transferOwnership(address(0)) */\n      tag_108\n        /* \"@openzeppelin/contracts/access/Ownable.sol\":2384:2385  0 */\n      0x00\n        /* \"@openzeppelin/contracts/access/Ownable.sol\":2357:2375  _transferOwnership */\n      tag_109\n        /* \"@openzeppelin/contracts/access/Ownable.sol\":2357:2387  _transferOwnership(address(0)) */\n      jump\t// in\n    tag_108:\n        /* \"@openzeppelin/contracts/access/Ownable.sol\":2293:2394  function renounceOwnership() public virtual onlyOwner {... */\n      jump\t// out\n        /* \"@openzeppelin/contracts/access/Ownable.sol\":1638:1723  function owner() public view virtual returns (address) {... */\n    tag_28:\n        /* \"@openzeppelin/contracts/access/Ownable.sol\":1684:1691  address */\n      0x00\n        /* \"@openzeppelin/contracts/access/Ownable.sol\":1710:1716  _owner */\n      0x00\n      0x00\n      swap1\n      sload\n      swap1\n      0x0100\n      exp\n      swap1\n      div\n      0xffffffffffffffffffffffffffffffffffffffff\n      and\n        /* \"@openzeppelin/contracts/access/Ownable.sol\":1703:1716  return _owner */\n      swap1\n      pop\n        /* \"@openzeppelin/contracts/access/Ownable.sol\":1638:1723  function owner() public view virtual returns (address) {... */\n      swap1\n      jump\t// out\n        /* \"/contracts/HeatwaveProof.sol\":17351:17541  function getTotalAlerts() external view returns (uint256 count) {... */\n    tag_32:\n        /* \"/contracts/HeatwaveProof.sol\":17400:17413  uint256 count */\n      0x00\n        /* \"/contracts/HeatwaveProof.sol\":17518:17527  allAlerts */\n      0x02\n        /* \"/contracts/HeatwaveProof.sol\":17518:17534  allAlerts.length */\n      dup1\n      sload\n      swap1\n      pop\n        /* \"/contracts/HeatwaveProof.sol\":17511:17534  return allAlerts.length */\n      swap1\n      pop\n        /* \"/contracts/HeatwaveProof.sol\":17351:17541  function getTotalAlerts() external view returns (uint256 count) {... */\n      swap1\n      jump\t// out\n        /* \"/contracts/HeatwaveProof.sol\":14349:15115  function transferOwnership(address newOwner)... */\n    tag_38:\n        /* \"@openzeppelin/contracts/access/Ownable.sol\":1531:1544  _checkOwner() */\n      tag_113\n        /* \"@openzeppelin/contracts/access/Ownable.sol\":1531:1542  _checkOwner */\n      tag_62\n        /* \"@openzeppelin/contracts/access/Ownable.sol\":1531:1544  _checkOwner() */\n      jump\t// in\n    tag_113:\n        /* \"/contracts/HeatwaveProof.sol\":14624:14625  0 */\n      0x00\n        /* \"/contracts/HeatwaveProof.sol\":14604:14626  newOwner == address(0) */\n      0xffffffffffffffffffffffffffffffffffffffff\n      and\n        /* \"/contracts/HeatwaveProof.sol\":14604:14612  newOwner */\n      dup2\n        /* \"/contracts/HeatwaveProof.sol\":14604:14626  newOwner == address(0) */\n      0xffffffffffffffffffffffffffffffffffffffff\n      and\n      sub\n        /* \"/contracts/HeatwaveProof.sol\":14600:14681  if (newOwner == address(0)) {... */\n      tag_115\n      jumpi\n        /* \"/contracts/HeatwaveProof.sol\":14649:14670  InvalidOwnerAddress() */\n      mload(0x40)\n      0xd924e5f400000000000000000000000000000000000000000000000000000000\n      dup2\n      mstore\n      0x04\n      add\n      mload(0x40)\n      dup1\n      swap2\n      sub\n      swap1\n      revert\n        /* \"/contracts/HeatwaveProof.sol\":14600:14681  if (newOwner == address(0)) {... */\n    tag_115:\n        /* \"/contracts/HeatwaveProof.sol\":14760:14781  address previousOwner */\n      0x00\n        /* \"/contracts/HeatwaveProof.sol\":14784:14791  owner() */\n      tag_116\n        /* \"/contracts/HeatwaveProof.sol\":14784:14789  owner */\n      tag_28\n        /* \"/contracts/HeatwaveProof.sol\":14784:14791  owner() */\n      jump\t// in\n    tag_116:\n        /* \"/contracts/HeatwaveProof.sol\":14760:14791  address previousOwner = owner() */\n      swap1\n      pop\n        /* \"/contracts/HeatwaveProof.sol\":14934:14967  super.transferOwnership(newOwner) */\n      tag_117\n        /* \"/contracts/HeatwaveProof.sol\":14958:14966  newOwner */\n      dup3\n        /* \"/contracts/HeatwaveProof.sol\":14934:14957  super.transferOwnership */\n      tag_118\n        /* \"/contracts/HeatwaveProof.sol\":14934:14967  super.transferOwnership(newOwner) */\n      jump\t// in\n    tag_117:\n        /* \"/contracts/HeatwaveProof.sol\":15099:15107  newOwner */\n      dup2\n        /* \"/contracts/HeatwaveProof.sol\":15061:15108  OwnershipTransferredTo(previousOwner, newOwner) */\n      0xffffffffffffffffffffffffffffffffffffffff\n      and\n        /* \"/contracts/HeatwaveProof.sol\":15084:15097  previousOwner */\n      dup2\n        /* \"/contracts/HeatwaveProof.sol\":15061:15108  OwnershipTransferredTo(previousOwner, newOwner) */\n      0xffffffffffffffffffffffffffffffffffffffff\n      and\n      0x7d46c44c679f20fcf2506fd685154a7fde7ba01a8538da8bfd1800b87c5d2dee\n      mload(0x40)\n      mload(0x40)\n      dup1\n      swap2\n      sub\n      swap1\n      log3\n        /* \"/contracts/HeatwaveProof.sol\":14504:15115  {... */\n      pop\n        /* \"/contracts/HeatwaveProof.sol\":14349:15115  function transferOwnership(address newOwner)... */\n      pop\n      jump\t// out\n        /* \"@openzeppelin/contracts/access/Ownable.sol\":1796:1958  function _checkOwner() internal view virtual {... */\n    tag_62:\n        /* \"@openzeppelin/contracts/access/Ownable.sol\":1866:1878  _msgSender() */\n      tag_120\n        /* \"@openzeppelin/contracts/access/Ownable.sol\":1866:1876  _msgSender */\n      tag_121\n        /* \"@openzeppelin/contracts/access/Ownable.sol\":1866:1878  _msgSender() */\n      jump\t// in\n    tag_120:\n        /* \"@openzeppelin/contracts/access/Ownable.sol\":1855:1878  owner() != _msgSender() */\n      0xffffffffffffffffffffffffffffffffffffffff\n      and\n        /* \"@openzeppelin/contracts/access/Ownable.sol\":1855:1862  owner() */\n      tag_122\n        /* \"@openzeppelin/contracts/access/Ownable.sol\":1855:1860  owner */\n      tag_28\n        /* \"@openzeppelin/contracts/access/Ownable.sol\":1855:1862  owner() */\n      jump\t// in\n    tag_122:\n        /* \"@openzeppelin/contracts/access/Ownable.sol\":1855:1878  owner() != _msgSender() */\n      0xffffffffffffffffffffffffffffffffffffffff\n      and\n      eq\n        /* \"@openzeppelin/contracts/access/Ownable.sol\":1851:1952  if (owner() != _msgSender()) {... */\n      tag_123\n      jumpi\n        /* \"@openzeppelin/contracts/access/Ownable.sol\":1928:1940  _msgSender() */\n      tag_124\n        /* \"@openzeppelin/contracts/access/Ownable.sol\":1928:1938  _msgSender */\n      tag_121\n        /* \"@openzeppelin/contracts/access/Ownable.sol\":1928:1940  _msgSender() */\n      jump\t// in\n    tag_124:\n        /* \"@openzeppelin/contracts/access/Ownable.sol\":1901:1941  OwnableUnauthorizedAccount(_msgSender()) */\n      mload(0x40)\n      0x118cdaa700000000000000000000000000000000000000000000000000000000\n      dup2\n      mstore\n      0x04\n      add\n      tag_125\n      swap2\n      swap1\n      tag_30\n      jump\t// in\n    tag_125:\n      mload(0x40)\n      dup1\n      swap2\n      sub\n      swap1\n      revert\n        /* \"@openzeppelin/contracts/access/Ownable.sol\":1851:1952  if (owner() != _msgSender()) {... */\n    tag_123:\n        /* \"@openzeppelin/contracts/access/Ownable.sol\":1796:1958  function _checkOwner() internal view virtual {... */\n      jump\t// out\n        /* \"@openzeppelin/contracts/access/Ownable.sol\":2912:3099  function _transferOwnership(address newOwner) internal virtual {... */\n    tag_109:\n        /* \"@openzeppelin/contracts/access/Ownable.sol\":2985:3001  address oldOwner */\n      0x00\n        /* \"@openzeppelin/contracts/access/Ownable.sol\":3004:3010  _owner */\n      0x00\n      0x00\n      swap1\n      sload\n      swap1\n      0x0100\n      exp\n      swap1\n      div\n      0xffffffffffffffffffffffffffffffffffffffff\n      and\n        /* \"@openzeppelin/contracts/access/Ownable.sol\":2985:3010  address oldOwner = _owner */\n      swap1\n      pop\n        /* \"@openzeppelin/contracts/access/Ownable.sol\":3029:3037  newOwner */\n      dup2\n        /* \"@openzeppelin/contracts/access/Ownable.sol\":3020:3026  _owner */\n      0x00\n      0x00\n        /* \"@openzeppelin/contracts/access/Ownable.sol\":3020:3037  _owner = newOwner */\n      0x0100\n      exp\n      dup2\n      sload\n      dup2\n      0xffffffffffffffffffffffffffffffffffffffff\n      mul\n      not\n      and\n      swap1\n      dup4\n      0xffffffffffffffffffffffffffffffffffffffff\n      and\n      mul\n      or\n      swap1\n      sstore\n      pop\n        /* \"@openzeppelin/contracts/access/Ownable.sol\":3083:3091  newOwner */\n      dup2\n        /* \"@openzeppelin/contracts/access/Ownable.sol\":3052:3092  OwnershipTransferred(oldOwner, newOwner) */\n      0xffffffffffffffffffffffffffffffffffffffff\n      and\n        /* \"@openzeppelin/contracts/access/Ownable.sol\":3073:3081  oldOwner */\n      dup2\n        /* \"@openzeppelin/contracts/access/Ownable.sol\":3052:3092  OwnershipTransferred(oldOwner, newOwner) */\n      0xffffffffffffffffffffffffffffffffffffffff\n      and\n      0x8be0079c531659141344cd1fd0a4f28419497f9722a3daafe3b4186f6b6457e0\n      mload(0x40)\n      mload(0x40)\n      dup1\n      swap2\n      sub\n      swap1\n      log3\n        /* \"@openzeppelin/contracts/access/Ownable.sol\":2975:3099  {... */\n      pop\n        /* \"@openzeppelin/contracts/access/Ownable.sol\":2912:3099  function _transferOwnership(address newOwner) internal virtual {... */\n      pop\n      jump\t// out\n        /* \"@openzeppelin/contracts/access/Ownable.sol\":2543:2758  function transferOwnership(address newOwner) public virtual onlyOwner {... */\n    tag_118:\n        /* \"@openzeppelin/contracts/access/Ownable.sol\":1531:1544  _checkOwner() */\n      tag_128\n        /* \"@openzeppelin/contracts/access/Ownable.sol\":1531:1542  _checkOwner */\n      tag_62\n        /* \"@openzeppelin/contracts/access/Ownable.sol\":1531:1544  _checkOwner() */\n      jump\t// in\n    tag_128:\n        /* \"@openzeppelin/contracts/access/Ownable.sol\":2647:2648  0 */\n      0x00\n        /* \"@openzeppelin/contracts/access/Ownable.sol\":2627:2649  newOwner == address(0) */\n      0xffffffffffffffffffffffffffffffffffffffff\n      and\n        /* \"@openzeppelin/contracts/access/Ownable.sol\":2627:2635  newOwner */\n      dup2\n        /* \"@openzeppelin/contracts/access/Ownable.sol\":2627:2649  newOwner == address(0) */\n      0xffffffffffffffffffffffffffffffffffffffff\n      and\n      sub\n        /* \"@openzeppelin/contracts/access/Ownable.sol\":2623:2714  if (newOwner == address(0)) {... */\n      tag_130\n      jumpi\n        /* \"@openzeppelin/contracts/access/Ownable.sol\":2700:2701  0 */\n      0x00\n        /* \"@openzeppelin/contracts/access/Ownable.sol\":2672:2703  OwnableInvalidOwner(address(0)) */\n      mload(0x40)\n      0x1e4fbdf700000000000000000000000000000000000000000000000000000000\n      dup2\n      mstore\n      0x04\n      add\n      tag_131\n      swap2\n      swap1\n      tag_30\n      jump\t// in\n    tag_131:\n      mload(0x40)\n      dup1\n      swap2\n      sub\n      swap1\n      revert\n        /* \"@openzeppelin/contracts/access/Ownable.sol\":2623:2714  if (newOwner == address(0)) {... */\n    tag_130:\n        /* \"@openzeppelin/contracts/access/Ownable.sol\":2723:2751  _transferOwnership(newOwner) */\n      tag_132\n        /* \"@openzeppelin/contracts/access/Ownable.sol\":2742:2750  newOwner */\n      dup2\n        /* \"@openzeppelin/contracts/access/Ownable.sol\":2723:2741  _transferOwnership */\n      tag_109\n        /* \"@openzeppelin/contracts/access/Ownable.sol\":2723:2751  _transferOwnership(newOwner) */\n      jump\t// in\n    tag_132:\n        /* \"@openzeppelin/contracts/access/Ownable.sol\":2543:2758  function transferOwnership(address newOwner) public virtual onlyOwner {... */\n      pop\n      jump\t// out\n        /* \"@openzeppelin/contracts/utils/Context.sol\":656:752  function _msgSender() internal view virtual returns (address) {... */\n    tag_121:\n        /* \"@openzeppelin/contracts/utils/Context.sol\":709:716  address */\n      0x00\n        /* \"@openzeppelin/contracts/utils/Context.sol\":735:745  msg.sender */\n      caller\n        /* \"@openzeppelin/contracts/utils/Context.sol\":728:745  return msg.sender */\n      swap1\n      pop\n        /* \"@openzeppelin/contracts/utils/Context.sol\":656:752  function _msgSender() internal view virtual returns (address) {... */\n      swap1\n      jump\t// out\n    tag_40:\n      mload(0x40)\n      dup1\n      0x0100\n      add\n      0x40\n      mstore\n      dup1\n      0x60\n      dup2\n      mstore\n      0x20\n      add\n      0x00\n      dup2\n      mstore\n      0x20\n      add\n      and(0xff, 0x00)\n      dup2\n      mstore\n      0x20\n      add\n      and(0xff, 0x00)\n      dup2\n      mstore\n      0x20\n      add\n      and(0xff, 0x00)\n      dup2\n      mstore\n      0x20\n      add\n      0x60\n      dup2\n      mstore\n      0x20\n      add\n      0x00\n      dup2\n      mstore\n      0x20\n      add\n      and(0xffffffffffffffffffffffffffffffffffffffff, 0x00)\n      dup2\n      mstore\n      pop\n      swap1\n      jump\t// out\n        /* \"#utility.yul\":7:106   */\n    tag_134:\n        /* \"#utility.yul\":59:65   */\n      0x00\n        /* \"#utility.yul\":93:98   */\n      dup2\n        /* \"#utility.yul\":87:99   */\n      mload\n        /* \"#utility.yul\":77:99   */\n      swap1\n      pop\n        /* \"#utility.yul\":7:106   */\n      swap2\n      swap1\n      pop\n      jump\t// out\n        /* \"#utility.yul\":112:271   */\n    tag_135:\n        /* \"#utility.yul\":186:197   */\n      0x00\n        /* \"#utility.yul\":220:226   */\n      dup3\n        /* \"#utility.yul\":215:218   */\n      dup3\n        /* \"#utility.yul\":208:227   */\n      mstore\n        /* \"#utility.yul\":260:264   */\n      0x20\n        /* \"#utility.yul\":255:258   */\n      dup3\n        /* \"#utility.yul\":251:265   */\n      add\n        /* \"#utility.yul\":236:265   */\n      swap1\n      pop\n        /* \"#utility.yul\":112:271   */\n      swap3\n      swap2\n      pop\n      pop\n      jump\t// out\n        /* \"#utility.yul\":277:416   */\n    tag_136:\n        /* \"#utility.yul\":366:372   */\n      dup3\n        /* \"#utility.yul\":361:364   */\n      dup2\n        /* \"#utility.yul\":356:359   */\n      dup4\n        /* \"#utility.yul\":350:373   */\n      mcopy\n        /* \"#utility.yul\":407:408   */\n      0x00\n        /* \"#utility.yul\":398:404   */\n      dup4\n        /* \"#utility.yul\":393:396   */\n      dup4\n        /* \"#utility.yul\":389:405   */\n      add\n        /* \"#utility.yul\":382:409   */\n      mstore\n        /* \"#utility.yul\":277:416   */\n      pop\n      pop\n      pop\n      jump\t// out\n        /* \"#utility.yul\":422:524   */\n    tag_137:\n        /* \"#utility.yul\":463:469   */\n      0x00\n        /* \"#utility.yul\":514:516   */\n      0x1f\n        /* \"#utility.yul\":510:517   */\n      not\n        /* \"#utility.yul\":505:507   */\n      0x1f\n        /* \"#utility.yul\":498:503   */\n      dup4\n        /* \"#utility.yul\":494:508   */\n      add\n        /* \"#utility.yul\":490:518   */\n      and\n        /* \"#utility.yul\":480:518   */\n      swap1\n      pop\n        /* \"#utility.yul\":422:524   */\n      swap2\n      swap1\n      pop\n      jump\t// out\n        /* \"#utility.yul\":530:887   */\n    tag_138:\n        /* \"#utility.yul\":608:611   */\n      0x00\n        /* \"#utility.yul\":636:675   */\n      tag_208\n        /* \"#utility.yul\":669:674   */\n      dup3\n        /* \"#utility.yul\":636:675   */\n      tag_134\n      jump\t// in\n    tag_208:\n        /* \"#utility.yul\":691:752   */\n      tag_209\n        /* \"#utility.yul\":745:751   */\n      dup2\n        /* \"#utility.yul\":740:743   */\n      dup6\n        /* \"#utility.yul\":691:752   */\n      tag_135\n      jump\t// in\n    tag_209:\n        /* \"#utility.yul\":684:752   */\n      swap4\n      pop\n        /* \"#utility.yul\":761:826   */\n      tag_210\n        /* \"#utility.yul\":819:825   */\n      dup2\n        /* \"#utility.yul\":814:817   */\n      dup6\n        /* \"#utility.yul\":807:811   */\n      0x20\n        /* \"#utility.yul\":800:805   */\n      dup7\n        /* \"#utility.yul\":796:812   */\n      add\n        /* \"#utility.yul\":761:826   */\n      tag_136\n      jump\t// in\n    tag_210:\n        /* \"#utility.yul\":851:880   */\n      tag_211\n        /* \"#utility.yul\":873:879   */\n      dup2\n        /* \"#utility.yul\":851:880   */\n      tag_137\n      jump\t// in\n    tag_211:\n        /* \"#utility.yul\":846:849   */\n      dup5\n        /* \"#utility.yul\":842:881   */\n      add\n        /* \"#utility.yul\":835:881   */\n      swap2\n      pop\n        /* \"#utility.yul\":612:887   */\n      pop\n        /* \"#utility.yul\":530:887   */\n      swap3\n      swap2\n      pop\n      pop\n      jump\t// out\n        /* \"#utility.yul\":893:969   */\n    tag_139:\n        /* \"#utility.yul\":929:936   */\n      0x00\n        /* \"#utility.yul\":958:963   */\n      dup2\n        /* \"#utility.yul\":947:963   */\n      swap1\n      pop\n        /* \"#utility.yul\":893:969   */\n      swap2\n      swap1\n      pop\n      jump\t// out\n        /* \"#utility.yul\":975:1080   */\n    tag_140:\n        /* \"#utility.yul\":1050:1073   */\n      tag_214\n        /* \"#utility.yul\":1067:1072   */\n      dup2\n        /* \"#utility.yul\":1050:1073   */\n      tag_139\n      jump\t// in\n    tag_214:\n        /* \"#utility.yul\":1045:1048   */\n      dup3\n        /* \"#utility.yul\":1038:1074   */\n      mstore\n        /* \"#utility.yul\":975:1080   */\n      pop\n      pop\n      jump\t// out\n        /* \"#utility.yul\":1086:1172   */\n    tag_141:\n        /* \"#utility.yul\":1121:1128   */\n      0x00\n        /* \"#utility.yul\":1161:1165   */\n      0xff\n        /* \"#utility.yul\":1154:1159   */\n      dup3\n        /* \"#utility.yul\":1150:1166   */\n      and\n        /* \"#utility.yul\":1139:1166   */\n      swap1\n      pop\n        /* \"#utility.yul\":1086:1172   */\n      swap2\n      swap1\n      pop\n      jump\t// out\n        /* \"#utility.yul\":1178:1280   */\n    tag_142:\n        /* \"#utility.yul\":1251:1273   */\n      tag_217\n        /* \"#utility.yul\":1267:1272   */\n      dup2\n        /* \"#utility.yul\":1251:1273   */\n      tag_141\n      jump\t// in\n    tag_217:\n        /* \"#utility.yul\":1246:1249   */\n      dup3\n        /* \"#utility.yul\":1239:1274   */\n      mstore\n        /* \"#utility.yul\":1178:1280   */\n      pop\n      pop\n      jump\t// out\n        /* \"#utility.yul\":1286:1363   */\n    tag_143:\n        /* \"#utility.yul\":1323:1330   */\n      0x00\n        /* \"#utility.yul\":1352:1357   */\n      dup2\n        /* \"#utility.yul\":1341:1357   */\n      swap1\n      pop\n        /* \"#utility.yul\":1286:1363   */\n      swap2\n      swap1\n      pop\n      jump\t// out\n        /* \"#utility.yul\":1369:1477   */\n    tag_144:\n        /* \"#utility.yul\":1446:1470   */\n      tag_220\n        /* \"#utility.yul\":1464:1469   */\n      dup2\n        /* \"#utility.yul\":1446:1470   */\n      tag_143\n      jump\t// in\n    tag_220:\n        /* \"#utility.yul\":1441:1444   */\n      dup3\n        /* \"#utility.yul\":1434:1471   */\n      mstore\n        /* \"#utility.yul\":1369:1477   */\n      pop\n      pop\n      jump\t// out\n        /* \"#utility.yul\":1483:1609   */\n    tag_145:\n        /* \"#utility.yul\":1520:1527   */\n      0x00\n        /* \"#utility.yul\":1560:1602   */\n      0xffffffffffffffffffffffffffffffffffffffff\n        /* \"#utility.yul\":1553:1558   */\n      dup3\n        /* \"#utility.yul\":1549:1603   */\n      and\n        /* \"#utility.yul\":1538:1603   */\n      swap1\n      pop\n        /* \"#utility.yul\":1483:1609   */\n      swap2\n      swap1\n      pop\n      jump\t// out\n        /* \"#utility.yul\":1615:1711   */\n    tag_146:\n        /* \"#utility.yul\":1652:1659   */\n      0x00\n        /* \"#utility.yul\":1681:1705   */\n      tag_223\n        /* \"#utility.yul\":1699:1704   */\n      dup3\n        /* \"#utility.yul\":1681:1705   */\n      tag_145\n      jump\t// in\n    tag_223:\n        /* \"#utility.yul\":1670:1705   */\n      swap1\n      pop\n        /* \"#utility.yul\":1615:1711   */\n      swap2\n      swap1\n      pop\n      jump\t// out\n        /* \"#utility.yul\":1717:1825   */\n    tag_147:\n        /* \"#utility.yul\":1794:1818   */\n      tag_225\n        /* \"#utility.yul\":1812:1817   */\n      dup2\n        /* \"#utility.yul\":1794:1818   */\n      tag_146\n      jump\t// in\n    tag_225:\n        /* \"#utility.yul\":1789:1792   */\n      dup3\n        /* \"#utility.yul\":1782:1819   */\n      mstore\n        /* \"#utility.yul\":1717:1825   */\n      pop\n      pop\n      jump\t// out\n        /* \"#utility.yul\":1895:3633   */\n    tag_148:\n        /* \"#utility.yul\":2006:2009   */\n      0x00\n        /* \"#utility.yul\":2042:2048   */\n      0x0100\n        /* \"#utility.yul\":2037:2040   */\n      dup4\n        /* \"#utility.yul\":2033:2049   */\n      add\n        /* \"#utility.yul\":2131:2135   */\n      0x00\n        /* \"#utility.yul\":2124:2129   */\n      dup4\n        /* \"#utility.yul\":2120:2136   */\n      add\n        /* \"#utility.yul\":2114:2137   */\n      mload\n        /* \"#utility.yul\":2184:2187   */\n      dup5\n        /* \"#utility.yul\":2178:2182   */\n      dup3\n        /* \"#utility.yul\":2174:2188   */\n      sub\n        /* \"#utility.yul\":2167:2171   */\n      0x00\n        /* \"#utility.yul\":2162:2165   */\n      dup7\n        /* \"#utility.yul\":2158:2172   */\n      add\n        /* \"#utility.yul\":2151:2189   */\n      mstore\n        /* \"#utility.yul\":2210:2283   */\n      tag_227\n        /* \"#utility.yul\":2278:2282   */\n      dup3\n        /* \"#utility.yul\":2264:2276   */\n      dup3\n        /* \"#utility.yul\":2210:2283   */\n      tag_138\n      jump\t// in\n    tag_227:\n        /* \"#utility.yul\":2202:2283   */\n      swap2\n      pop\n        /* \"#utility.yul\":2059:2294   */\n      pop\n        /* \"#utility.yul\":2383:2387   */\n      0x20\n        /* \"#utility.yul\":2376:2381   */\n      dup4\n        /* \"#utility.yul\":2372:2388   */\n      add\n        /* \"#utility.yul\":2366:2389   */\n      mload\n        /* \"#utility.yul\":2402:2463   */\n      tag_228\n        /* \"#utility.yul\":2457:2461   */\n      0x20\n        /* \"#utility.yul\":2452:2455   */\n      dup7\n        /* \"#utility.yul\":2448:2462   */\n      add\n        /* \"#utility.yul\":2434:2446   */\n      dup3\n        /* \"#utility.yul\":2402:2463   */\n      tag_140\n      jump\t// in\n    tag_228:\n        /* \"#utility.yul\":2304:2473   */\n      pop\n        /* \"#utility.yul\":2559:2563   */\n      0x40\n        /* \"#utility.yul\":2552:2557   */\n      dup4\n        /* \"#utility.yul\":2548:2564   */\n      add\n        /* \"#utility.yul\":2542:2565   */\n      mload\n        /* \"#utility.yul\":2578:2637   */\n      tag_229\n        /* \"#utility.yul\":2631:2635   */\n      0x40\n        /* \"#utility.yul\":2626:2629   */\n      dup7\n        /* \"#utility.yul\":2622:2636   */\n      add\n        /* \"#utility.yul\":2608:2620   */\n      dup3\n        /* \"#utility.yul\":2578:2637   */\n      tag_142\n      jump\t// in\n    tag_229:\n        /* \"#utility.yul\":2483:2647   */\n      pop\n        /* \"#utility.yul\":2732:2736   */\n      0x60\n        /* \"#utility.yul\":2725:2730   */\n      dup4\n        /* \"#utility.yul\":2721:2737   */\n      add\n        /* \"#utility.yul\":2715:2738   */\n      mload\n        /* \"#utility.yul\":2751:2810   */\n      tag_230\n        /* \"#utility.yul\":2804:2808   */\n      0x60\n        /* \"#utility.yul\":2799:2802   */\n      dup7\n        /* \"#utility.yul\":2795:2809   */\n      add\n        /* \"#utility.yul\":2781:2793   */\n      dup3\n        /* \"#utility.yul\":2751:2810   */\n      tag_142\n      jump\t// in\n    tag_230:\n        /* \"#utility.yul\":2657:2820   */\n      pop\n        /* \"#utility.yul\":2907:2911   */\n      0x80\n        /* \"#utility.yul\":2900:2905   */\n      dup4\n        /* \"#utility.yul\":2896:2912   */\n      add\n        /* \"#utility.yul\":2890:2913   */\n      mload\n        /* \"#utility.yul\":2926:2985   */\n      tag_231\n        /* \"#utility.yul\":2979:2983   */\n      0x80\n        /* \"#utility.yul\":2974:2977   */\n      dup7\n        /* \"#utility.yul\":2970:2984   */\n      add\n        /* \"#utility.yul\":2956:2968   */\n      dup3\n        /* \"#utility.yul\":2926:2985   */\n      tag_142\n      jump\t// in\n    tag_231:\n        /* \"#utility.yul\":2830:2995   */\n      pop\n        /* \"#utility.yul\":3085:3089   */\n      0xa0\n        /* \"#utility.yul\":3078:3083   */\n      dup4\n        /* \"#utility.yul\":3074:3090   */\n      add\n        /* \"#utility.yul\":3068:3091   */\n      mload\n        /* \"#utility.yul\":3138:3141   */\n      dup5\n        /* \"#utility.yul\":3132:3136   */\n      dup3\n        /* \"#utility.yul\":3128:3142   */\n      sub\n        /* \"#utility.yul\":3121:3125   */\n      0xa0\n        /* \"#utility.yul\":3116:3119   */\n      dup7\n        /* \"#utility.yul\":3112:3126   */\n      add\n        /* \"#utility.yul\":3105:3143   */\n      mstore\n        /* \"#utility.yul\":3164:3237   */\n      tag_232\n        /* \"#utility.yul\":3232:3236   */\n      dup3\n        /* \"#utility.yul\":3218:3230   */\n      dup3\n        /* \"#utility.yul\":3164:3237   */\n      tag_138\n      jump\t// in\n    tag_232:\n        /* \"#utility.yul\":3156:3237   */\n      swap2\n      pop\n        /* \"#utility.yul\":3005:3248   */\n      pop\n        /* \"#utility.yul\":3335:3339   */\n      0xc0\n        /* \"#utility.yul\":3328:3333   */\n      dup4\n        /* \"#utility.yul\":3324:3340   */\n      add\n        /* \"#utility.yul\":3318:3341   */\n      mload\n        /* \"#utility.yul\":3354:3417   */\n      tag_233\n        /* \"#utility.yul\":3411:3415   */\n      0xc0\n        /* \"#utility.yul\":3406:3409   */\n      dup7\n        /* \"#utility.yul\":3402:3416   */\n      add\n        /* \"#utility.yul\":3388:3400   */\n      dup3\n        /* \"#utility.yul\":3354:3417   */\n      tag_144\n      jump\t// in\n    tag_233:\n        /* \"#utility.yul\":3258:3427   */\n      pop\n        /* \"#utility.yul\":3514:3518   */\n      0xe0\n        /* \"#utility.yul\":3507:3512   */\n      dup4\n        /* \"#utility.yul\":3503:3519   */\n      add\n        /* \"#utility.yul\":3497:3520   */\n      mload\n        /* \"#utility.yul\":3533:3596   */\n      tag_234\n        /* \"#utility.yul\":3590:3594   */\n      0xe0\n        /* \"#utility.yul\":3585:3588   */\n      dup7\n        /* \"#utility.yul\":3581:3595   */\n      add\n        /* \"#utility.yul\":3567:3579   */\n      dup3\n        /* \"#utility.yul\":3533:3596   */\n      tag_147\n      jump\t// in\n    tag_234:\n        /* \"#utility.yul\":3437:3606   */\n      pop\n        /* \"#utility.yul\":3623:3627   */\n      dup1\n        /* \"#utility.yul\":3616:3627   */\n      swap2\n      pop\n        /* \"#utility.yul\":2011:3633   */\n      pop\n        /* \"#utility.yul\":1895:3633   */\n      swap3\n      swap2\n      pop\n      pop\n      jump\t// out\n        /* \"#utility.yul\":3639:3996   */\n    tag_14:\n        /* \"#utility.yul\":3774:3778   */\n      0x00\n        /* \"#utility.yul\":3812:3814   */\n      0x20\n        /* \"#utility.yul\":3801:3810   */\n      dup3\n        /* \"#utility.yul\":3797:3815   */\n      add\n        /* \"#utility.yul\":3789:3815   */\n      swap1\n      pop\n        /* \"#utility.yul\":3861:3870   */\n      dup2\n        /* \"#utility.yul\":3855:3859   */\n      dup2\n        /* \"#utility.yul\":3851:3871   */\n      sub\n        /* \"#utility.yul\":3847:3848   */\n      0x00\n        /* \"#utility.yul\":3836:3845   */\n      dup4\n        /* \"#utility.yul\":3832:3849   */\n      add\n        /* \"#utility.yul\":3825:3872   */\n      mstore\n        /* \"#utility.yul\":3889:3989   */\n      tag_236\n        /* \"#utility.yul\":3984:3988   */\n      dup2\n        /* \"#utility.yul\":3975:3981   */\n      dup5\n        /* \"#utility.yul\":3889:3989   */\n      tag_148\n      jump\t// in\n    tag_236:\n        /* \"#utility.yul\":3881:3989   */\n      swap1\n      pop\n        /* \"#utility.yul\":3639:3996   */\n      swap3\n      swap2\n      pop\n      pop\n      jump\t// out\n        /* \"#utility.yul\":4002:4077   */\n    tag_149:\n        /* \"#utility.yul\":4035:4041   */\n      0x00\n        /* \"#utility.yul\":4068:4070   */\n      0x40\n        /* \"#utility.yul\":4062:4071   */\n      mload\n        /* \"#utility.yul\":4052:4071   */\n      swap1\n      pop\n        /* \"#utility.yul\":4002:4077   */\n      swap1\n      jump\t// out\n        /* \"#utility.yul\":4083:4200   */\n    tag_150:\n        /* \"#utility.yul\":4192:4193   */\n      0x00\n        /* \"#utility.yul\":4189:4190   */\n      0x00\n        /* \"#utility.yul\":4182:4194   */\n      revert\n        /* \"#utility.yul\":4206:4323   */\n    tag_151:\n        /* \"#utility.yul\":4315:4316   */\n      0x00\n        /* \"#utility.yul\":4312:4313   */\n      0x00\n        /* \"#utility.yul\":4305:4317   */\n      revert\n        /* \"#utility.yul\":4329:4446   */\n    tag_152:\n        /* \"#utility.yul\":4438:4439   */\n      0x00\n        /* \"#utility.yul\":4435:4436   */\n      0x00\n        /* \"#utility.yul\":4428:4440   */\n      revert\n        /* \"#utility.yul\":4452:4569   */\n    tag_153:\n        /* \"#utility.yul\":4561:4562   */\n      0x00\n        /* \"#utility.yul\":4558:4559   */\n      0x00\n        /* \"#utility.yul\":4551:4563   */\n      revert\n        /* \"#utility.yul\":4575:4755   */\n    tag_154:\n        /* \"#utility.yul\":4623:4700   */\n      0x4e487b7100000000000000000000000000000000000000000000000000000000\n        /* \"#utility.yul\":4620:4621   */\n      0x00\n        /* \"#utility.yul\":4613:4701   */\n      mstore\n        /* \"#utility.yul\":4720:4724   */\n      0x41\n        /* \"#utility.yul\":4717:4718   */\n      0x04\n        /* \"#utility.yul\":4710:4725   */\n      mstore\n        /* \"#utility.yul\":4744:4748   */\n      0x24\n        /* \"#utility.yul\":4741:4742   */\n      0x00\n        /* \"#utility.yul\":4734:4749   */\n      revert\n        /* \"#utility.yul\":4761:5042   */\n    tag_155:\n        /* \"#utility.yul\":4844:4871   */\n      tag_244\n        /* \"#utility.yul\":4866:4870   */\n      dup3\n        /* \"#utility.yul\":4844:4871   */\n      tag_137\n      jump\t// in\n    tag_244:\n        /* \"#utility.yul\":4836:4842   */\n      dup2\n        /* \"#utility.yul\":4832:4872   */\n      add\n        /* \"#utility.yul\":4974:4980   */\n      dup2\n        /* \"#utility.yul\":4962:4972   */\n      dup2\n        /* \"#utility.yul\":4959:4981   */\n      lt\n        /* \"#utility.yul\":4938:4956   */\n      0xffffffffffffffff\n        /* \"#utility.yul\":4926:4936   */\n      dup3\n        /* \"#utility.yul\":4923:4957   */\n      gt\n        /* \"#utility.yul\":4920:4982   */\n      or\n        /* \"#utility.yul\":4917:5005   */\n      iszero\n      tag_245\n      jumpi\n        /* \"#utility.yul\":4985:5003   */\n      tag_246\n      tag_154\n      jump\t// in\n    tag_246:\n        /* \"#utility.yul\":4917:5005   */\n    tag_245:\n        /* \"#utility.yul\":5025:5035   */\n      dup1\n        /* \"#utility.yul\":5021:5023   */\n      0x40\n        /* \"#utility.yul\":5014:5036   */\n      mstore\n        /* \"#utility.yul\":4804:5042   */\n      pop\n        /* \"#utility.yul\":4761:5042   */\n      pop\n      pop\n      jump\t// out\n        /* \"#utility.yul\":5048:5177   */\n    tag_156:\n        /* \"#utility.yul\":5082:5088   */\n      0x00\n        /* \"#utility.yul\":5109:5129   */\n      tag_248\n      tag_149\n      jump\t// in\n    tag_248:\n        /* \"#utility.yul\":5099:5129   */\n      swap1\n      pop\n        /* \"#utility.yul\":5138:5171   */\n      tag_249\n        /* \"#utility.yul\":5166:5170   */\n      dup3\n        /* \"#utility.yul\":5158:5164   */\n      dup3\n        /* \"#utility.yul\":5138:5171   */\n      tag_155\n      jump\t// in\n    tag_249:\n        /* \"#utility.yul\":5048:5177   */\n      swap2\n      swap1\n      pop\n      jump\t// out\n        /* \"#utility.yul\":5183:5491   */\n    tag_157:\n        /* \"#utility.yul\":5245:5249   */\n      0x00\n        /* \"#utility.yul\":5335:5353   */\n      0xffffffffffffffff\n        /* \"#utility.yul\":5327:5333   */\n      dup3\n        /* \"#utility.yul\":5324:5354   */\n      gt\n        /* \"#utility.yul\":5321:5377   */\n      iszero\n      tag_251\n      jumpi\n        /* \"#utility.yul\":5357:5375   */\n      tag_252\n      tag_154\n      jump\t// in\n    tag_252:\n        /* \"#utility.yul\":5321:5377   */\n    tag_251:\n        /* \"#utility.yul\":5395:5424   */\n      tag_253\n        /* \"#utility.yul\":5417:5423   */\n      dup3\n        /* \"#utility.yul\":5395:5424   */\n      tag_137\n      jump\t// in\n    tag_253:\n        /* \"#utility.yul\":5387:5424   */\n      swap1\n      pop\n        /* \"#utility.yul\":5479:5483   */\n      0x20\n        /* \"#utility.yul\":5473:5477   */\n      dup2\n        /* \"#utility.yul\":5469:5484   */\n      add\n        /* \"#utility.yul\":5461:5484   */\n      swap1\n      pop\n        /* \"#utility.yul\":5183:5491   */\n      swap2\n      swap1\n      pop\n      jump\t// out\n        /* \"#utility.yul\":5497:5645   */\n    tag_158:\n        /* \"#utility.yul\":5595:5601   */\n      dup3\n        /* \"#utility.yul\":5590:5593   */\n      dup2\n        /* \"#utility.yul\":5585:5588   */\n      dup4\n        /* \"#utility.yul\":5572:5602   */\n      calldatacopy\n        /* \"#utility.yul\":5636:5637   */\n      0x00\n        /* \"#utility.yul\":5627:5633   */\n      dup4\n        /* \"#utility.yul\":5622:5625   */\n      dup4\n        /* \"#utility.yul\":5618:5634   */\n      add\n        /* \"#utility.yul\":5611:5638   */\n      mstore\n        /* \"#utility.yul\":5497:5645   */\n      pop\n      pop\n      pop\n      jump\t// out\n        /* \"#utility.yul\":5651:6076   */\n    tag_159:\n        /* \"#utility.yul\":5729:5734   */\n      0x00\n        /* \"#utility.yul\":5754:5820   */\n      tag_256\n        /* \"#utility.yul\":5770:5819   */\n      tag_257\n        /* \"#utility.yul\":5812:5818   */\n      dup5\n        /* \"#utility.yul\":5770:5819   */\n      tag_157\n      jump\t// in\n    tag_257:\n        /* \"#utility.yul\":5754:5820   */\n      tag_156\n      jump\t// in\n    tag_256:\n        /* \"#utility.yul\":5745:5820   */\n      swap1\n      pop\n        /* \"#utility.yul\":5843:5849   */\n      dup3\n        /* \"#utility.yul\":5836:5841   */\n      dup2\n        /* \"#utility.yul\":5829:5850   */\n      mstore\n        /* \"#utility.yul\":5881:5885   */\n      0x20\n        /* \"#utility.yul\":5874:5879   */\n      dup2\n        /* \"#utility.yul\":5870:5886   */\n      add\n        /* \"#utility.yul\":5919:5922   */\n      dup5\n        /* \"#utility.yul\":5910:5916   */\n      dup5\n        /* \"#utility.yul\":5905:5908   */\n      dup5\n        /* \"#utility.yul\":5901:5917   */\n      add\n        /* \"#utility.yul\":5898:5923   */\n      gt\n        /* \"#utility.yul\":5895:6007   */\n      iszero\n      tag_258\n      jumpi\n        /* \"#utility.yul\":5926:6005   */\n      tag_259\n      tag_153\n      jump\t// in\n    tag_259:\n        /* \"#utility.yul\":5895:6007   */\n    tag_258:\n        /* \"#utility.yul\":6016:6070   */\n      tag_260\n        /* \"#utility.yul\":6063:6069   */\n      dup5\n        /* \"#utility.yul\":6058:6061   */\n      dup3\n        /* \"#utility.yul\":6053:6056   */\n      dup6\n        /* \"#utility.yul\":6016:6070   */\n      tag_158\n      jump\t// in\n    tag_260:\n        /* \"#utility.yul\":5735:6076   */\n      pop\n        /* \"#utility.yul\":5651:6076   */\n      swap4\n      swap3\n      pop\n      pop\n      pop\n      jump\t// out\n        /* \"#utility.yul\":6096:6436   */\n    tag_160:\n        /* \"#utility.yul\":6152:6157   */\n      0x00\n        /* \"#utility.yul\":6201:6204   */\n      dup3\n        /* \"#utility.yul\":6194:6198   */\n      0x1f\n        /* \"#utility.yul\":6186:6192   */\n      dup4\n        /* \"#utility.yul\":6182:6199   */\n      add\n        /* \"#utility.yul\":6178:6205   */\n      slt\n        /* \"#utility.yul\":6168:6290   */\n      tag_262\n      jumpi\n        /* \"#utility.yul\":6209:6288   */\n      tag_263\n      tag_152\n      jump\t// in\n    tag_263:\n        /* \"#utility.yul\":6168:6290   */\n    tag_262:\n        /* \"#utility.yul\":6326:6332   */\n      dup2\n        /* \"#utility.yul\":6313:6333   */\n      calldataload\n        /* \"#utility.yul\":6351:6430   */\n      tag_264\n        /* \"#utility.yul\":6426:6429   */\n      dup5\n        /* \"#utility.yul\":6418:6424   */\n      dup3\n        /* \"#utility.yul\":6411:6415   */\n      0x20\n        /* \"#utility.yul\":6403:6409   */\n      dup7\n        /* \"#utility.yul\":6399:6416   */\n      add\n        /* \"#utility.yul\":6351:6430   */\n      tag_159\n      jump\t// in\n    tag_264:\n        /* \"#utility.yul\":6342:6430   */\n      swap2\n      pop\n        /* \"#utility.yul\":6158:6436   */\n      pop\n        /* \"#utility.yul\":6096:6436   */\n      swap3\n      swap2\n      pop\n      pop\n      jump\t// out\n        /* \"#utility.yul\":6442:6562   */\n    tag_161:\n        /* \"#utility.yul\":6514:6537   */\n      tag_266\n        /* \"#utility.yul\":6531:6536   */\n      dup2\n        /* \"#utility.yul\":6514:6537   */\n      tag_139\n      jump\t// in\n    tag_266:\n        /* \"#utility.yul\":6507:6512   */\n      dup2\n        /* \"#utility.yul\":6504:6538   */\n      eq\n        /* \"#utility.yul\":6494:6556   */\n      tag_267\n      jumpi\n        /* \"#utility.yul\":6552:6553   */\n      0x00\n        /* \"#utility.yul\":6549:6550   */\n      0x00\n        /* \"#utility.yul\":6542:6554   */\n      revert\n        /* \"#utility.yul\":6494:6556   */\n    tag_267:\n        /* \"#utility.yul\":6442:6562   */\n      pop\n      jump\t// out\n        /* \"#utility.yul\":6568:6705   */\n    tag_162:\n        /* \"#utility.yul\":6613:6618   */\n      0x00\n        /* \"#utility.yul\":6651:6657   */\n      dup2\n        /* \"#utility.yul\":6638:6658   */\n      calldataload\n        /* \"#utility.yul\":6629:6658   */\n      swap1\n      pop\n        /* \"#utility.yul\":6667:6699   */\n      tag_269\n        /* \"#utility.yul\":6693:6698   */\n      dup2\n        /* \"#utility.yul\":6667:6699   */\n      tag_161\n      jump\t// in\n    tag_269:\n        /* \"#utility.yul\":6568:6705   */\n      swap3\n      swap2\n      pop\n      pop\n      jump\t// out\n        /* \"#utility.yul\":6711:6829   */\n    tag_163:\n        /* \"#utility.yul\":6782:6804   */\n      tag_271\n        /* \"#utility.yul\":6798:6803   */\n      dup2\n        /* \"#utility.yul\":6782:6804   */\n      tag_141\n      jump\t// in\n    tag_271:\n        /* \"#utility.yul\":6775:6780   */\n      dup2\n        /* \"#utility.yul\":6772:6805   */\n      eq\n        /* \"#utility.yul\":6762:6823   */\n      tag_272\n      jumpi\n        /* \"#utility.yul\":6819:6820   */\n      0x00\n        /* \"#utility.yul\":6816:6817   */\n      0x00\n        /* \"#utility.yul\":6809:6821   */\n      revert\n        /* \"#utility.yul\":6762:6823   */\n    tag_272:\n        /* \"#utility.yul\":6711:6829   */\n      pop\n      jump\t// out\n        /* \"#utility.yul\":6835:6970   */\n    tag_164:\n        /* \"#utility.yul\":6879:6884   */\n      0x00\n        /* \"#utility.yul\":6917:6923   */\n      dup2\n        /* \"#utility.yul\":6904:6924   */\n      calldataload\n        /* \"#utility.yul\":6895:6924   */\n      swap1\n      pop\n        /* \"#utility.yul\":6933:6964   */\n      tag_274\n        /* \"#utility.yul\":6958:6963   */\n      dup2\n        /* \"#utility.yul\":6933:6964   */\n      tag_163\n      jump\t// in\n    tag_274:\n        /* \"#utility.yul\":6835:6970   */\n      swap3\n      swap2\n      pop\n      pop\n      jump\t// out\n        /* \"#utility.yul\":6976:8379   */\n    tag_17:\n        /* \"#utility.yul\":7093:7099   */\n      0x00\n        /* \"#utility.yul\":7101:7107   */\n      0x00\n        /* \"#utility.yul\":7109:7115   */\n      0x00\n        /* \"#utility.yul\":7117:7123   */\n      0x00\n        /* \"#utility.yul\":7125:7131   */\n      0x00\n        /* \"#utility.yul\":7133:7139   */\n      0x00\n        /* \"#utility.yul\":7182:7185   */\n      0xc0\n        /* \"#utility.yul\":7170:7179   */\n      dup8\n        /* \"#utility.yul\":7161:7168   */\n      dup10\n        /* \"#utility.yul\":7157:7180   */\n      sub\n        /* \"#utility.yul\":7153:7186   */\n      slt\n        /* \"#utility.yul\":7150:7270   */\n      iszero\n      tag_276\n      jumpi\n        /* \"#utility.yul\":7189:7268   */\n      tag_277\n      tag_150\n      jump\t// in\n    tag_277:\n        /* \"#utility.yul\":7150:7270   */\n    tag_276:\n        /* \"#utility.yul\":7337:7338   */\n      0x00\n        /* \"#utility.yul\":7326:7335   */\n      dup8\n        /* \"#utility.yul\":7322:7339   */\n      add\n        /* \"#utility.yul\":7309:7340   */\n      calldataload\n        /* \"#utility.yul\":7367:7385   */\n      0xffffffffffffffff\n        /* \"#utility.yul\":7359:7365   */\n      dup2\n        /* \"#utility.yul\":7356:7386   */\n      gt\n        /* \"#utility.yul\":7353:7470   */\n      iszero\n      tag_278\n      jumpi\n        /* \"#utility.yul\":7389:7468   */\n      tag_279\n      tag_151\n      jump\t// in\n    tag_279:\n        /* \"#utility.yul\":7353:7470   */\n    tag_278:\n        /* \"#utility.yul\":7494:7557   */\n      tag_280\n        /* \"#utility.yul\":7549:7556   */\n      dup10\n        /* \"#utility.yul\":7540:7546   */\n      dup3\n        /* \"#utility.yul\":7529:7538   */\n      dup11\n        /* \"#utility.yul\":7525:7547   */\n      add\n        /* \"#utility.yul\":7494:7557   */\n      tag_160\n      jump\t// in\n    tag_280:\n        /* \"#utility.yul\":7484:7557   */\n      swap7\n      pop\n        /* \"#utility.yul\":7280:7567   */\n      pop\n        /* \"#utility.yul\":7606:7608   */\n      0x20\n        /* \"#utility.yul\":7632:7684   */\n      tag_281\n        /* \"#utility.yul\":7676:7683   */\n      dup10\n        /* \"#utility.yul\":7667:7673   */\n      dup3\n        /* \"#utility.yul\":7656:7665   */\n      dup11\n        /* \"#utility.yul\":7652:7674   */\n      add\n        /* \"#utility.yul\":7632:7684   */\n      tag_162\n      jump\t// in\n    tag_281:\n        /* \"#utility.yul\":7622:7684   */\n      swap6\n      pop\n        /* \"#utility.yul\":7577:7694   */\n      pop\n        /* \"#utility.yul\":7733:7735   */\n      0x40\n        /* \"#utility.yul\":7759:7810   */\n      tag_282\n        /* \"#utility.yul\":7802:7809   */\n      dup10\n        /* \"#utility.yul\":7793:7799   */\n      dup3\n        /* \"#utility.yul\":7782:7791   */\n      dup11\n        /* \"#utility.yul\":7778:7800   */\n      add\n        /* \"#utility.yul\":7759:7810   */\n      tag_164\n      jump\t// in\n    tag_282:\n        /* \"#utility.yul\":7749:7810   */\n      swap5\n      pop\n        /* \"#utility.yul\":7704:7820   */\n      pop\n        /* \"#utility.yul\":7859:7861   */\n      0x60\n        /* \"#utility.yul\":7885:7936   */\n      tag_283\n        /* \"#utility.yul\":7928:7935   */\n      dup10\n        /* \"#utility.yul\":7919:7925   */\n      dup3\n        /* \"#utility.yul\":7908:7917   */\n      dup11\n        /* \"#utility.yul\":7904:7926   */\n      add\n        /* \"#utility.yul\":7885:7936   */\n      tag_164\n      jump\t// in\n    tag_283:\n        /* \"#utility.yul\":7875:7936   */\n      swap4\n      pop\n        /* \"#utility.yul\":7830:7946   */\n      pop\n        /* \"#utility.yul\":7985:7988   */\n      0x80\n        /* \"#utility.yul\":8012:8063   */\n      tag_284\n        /* \"#utility.yul\":8055:8062   */\n      dup10\n        /* \"#utility.yul\":8046:8052   */\n      dup3\n        /* \"#utility.yul\":8035:8044   */\n      dup11\n        /* \"#utility.yul\":8031:8053   */\n      add\n        /* \"#utility.yul\":8012:8063   */\n      tag_164\n      jump\t// in\n    tag_284:\n        /* \"#utility.yul\":8002:8063   */\n      swap3\n      pop\n        /* \"#utility.yul\":7956:8073   */\n      pop\n        /* \"#utility.yul\":8140:8143   */\n      0xa0\n        /* \"#utility.yul\":8129:8138   */\n      dup8\n        /* \"#utility.yul\":8125:8144   */\n      add\n        /* \"#utility.yul\":8112:8145   */\n      calldataload\n        /* \"#utility.yul\":8172:8190   */\n      0xffffffffffffffff\n        /* \"#utility.yul\":8164:8170   */\n      dup2\n        /* \"#utility.yul\":8161:8191   */\n      gt\n        /* \"#utility.yul\":8158:8275   */\n      iszero\n      tag_285\n      jumpi\n        /* \"#utility.yul\":8194:8273   */\n      tag_286\n      tag_151\n      jump\t// in\n    tag_286:\n        /* \"#utility.yul\":8158:8275   */\n    tag_285:\n        /* \"#utility.yul\":8299:8362   */\n      tag_287\n        /* \"#utility.yul\":8354:8361   */\n      dup10\n        /* \"#utility.yul\":8345:8351   */\n      dup3\n        /* \"#utility.yul\":8334:8343   */\n      dup11\n        /* \"#utility.yul\":8330:8352   */\n      add\n        /* \"#utility.yul\":8299:8362   */\n      tag_160\n      jump\t// in\n    tag_287:\n        /* \"#utility.yul\":8289:8362   */\n      swap2\n      pop\n        /* \"#utility.yul\":8083:8372   */\n      pop\n        /* \"#utility.yul\":6976:8379   */\n      swap3\n      swap6\n      pop\n      swap3\n      swap6\n      pop\n      swap3\n      swap6\n      jump\t// out\n        /* \"#utility.yul\":8385:8894   */\n    tag_21:\n        /* \"#utility.yul\":8454:8460   */\n      0x00\n        /* \"#utility.yul\":8503:8505   */\n      0x20\n        /* \"#utility.yul\":8491:8500   */\n      dup3\n        /* \"#utility.yul\":8482:8489   */\n      dup5\n        /* \"#utility.yul\":8478:8501   */\n      sub\n        /* \"#utility.yul\":8474:8506   */\n      slt\n        /* \"#utility.yul\":8471:8590   */\n      iszero\n      tag_289\n      jumpi\n        /* \"#utility.yul\":8509:8588   */\n      tag_290\n      tag_150\n      jump\t// in\n    tag_290:\n        /* \"#utility.yul\":8471:8590   */\n    tag_289:\n        /* \"#utility.yul\":8657:8658   */\n      0x00\n        /* \"#utility.yul\":8646:8655   */\n      dup3\n        /* \"#utility.yul\":8642:8659   */\n      add\n        /* \"#utility.yul\":8629:8660   */\n      calldataload\n        /* \"#utility.yul\":8687:8705   */\n      0xffffffffffffffff\n        /* \"#utility.yul\":8679:8685   */\n      dup2\n        /* \"#utility.yul\":8676:8706   */\n      gt\n        /* \"#utility.yul\":8673:8790   */\n      iszero\n      tag_291\n      jumpi\n        /* \"#utility.yul\":8709:8788   */\n      tag_292\n      tag_151\n      jump\t// in\n    tag_292:\n        /* \"#utility.yul\":8673:8790   */\n    tag_291:\n        /* \"#utility.yul\":8814:8877   */\n      tag_293\n        /* \"#utility.yul\":8869:8876   */\n      dup5\n        /* \"#utility.yul\":8860:8866   */\n      dup3\n        /* \"#utility.yul\":8849:8858   */\n      dup6\n        /* \"#utility.yul\":8845:8867   */\n      add\n        /* \"#utility.yul\":8814:8877   */\n      tag_160\n      jump\t// in\n    tag_293:\n        /* \"#utility.yul\":8804:8877   */\n      swap2\n      pop\n        /* \"#utility.yul\":8600:8887   */\n      pop\n        /* \"#utility.yul\":8385:8894   */\n      swap3\n      swap2\n      pop\n      pop\n      jump\t// out\n        /* \"#utility.yul\":8900:9035   */\n    tag_165:\n        /* \"#utility.yul\":8988:8994   */\n      0x00\n        /* \"#utility.yul\":9022:9027   */\n      dup2\n        /* \"#utility.yul\":9016:9028   */\n      mload\n        /* \"#utility.yul\":9006:9028   */\n      swap1\n      pop\n        /* \"#utility.yul\":8900:9035   */\n      swap2\n      swap1\n      pop\n      jump\t// out\n        /* \"#utility.yul\":9041:9246   */\n    tag_166:\n        /* \"#utility.yul\":9161:9172   */\n      0x00\n        /* \"#utility.yul\":9195:9201   */\n      dup3\n        /* \"#utility.yul\":9190:9193   */\n      dup3\n        /* \"#utility.yul\":9183:9202   */\n      mstore\n        /* \"#utility.yul\":9235:9239   */\n      0x20\n        /* \"#utility.yul\":9230:9233   */\n      dup3\n        /* \"#utility.yul\":9226:9240   */\n      add\n        /* \"#utility.yul\":9211:9240   */\n      swap1\n      pop\n        /* \"#utility.yul\":9041:9246   */\n      swap3\n      swap2\n      pop\n      pop\n      jump\t// out\n        /* \"#utility.yul\":9252:9405   */\n    tag_167:\n        /* \"#utility.yul\":9340:9344   */\n      0x00\n        /* \"#utility.yul\":9363:9366   */\n      dup2\n        /* \"#utility.yul\":9355:9366   */\n      swap1\n      pop\n        /* \"#utility.yul\":9393:9397   */\n      0x20\n        /* \"#utility.yul\":9388:9391   */\n      dup3\n        /* \"#utility.yul\":9384:9398   */\n      add\n        /* \"#utility.yul\":9376:9398   */\n      swap1\n      pop\n        /* \"#utility.yul\":9252:9405   */\n      swap2\n      swap1\n      pop\n      jump\t// out\n        /* \"#utility.yul\":9475:11203   */\n    tag_168:\n        /* \"#utility.yul\":9576:9579   */\n      0x00\n        /* \"#utility.yul\":9612:9618   */\n      0x0100\n        /* \"#utility.yul\":9607:9610   */\n      dup4\n        /* \"#utility.yul\":9603:9619   */\n      add\n        /* \"#utility.yul\":9701:9705   */\n      0x00\n        /* \"#utility.yul\":9694:9699   */\n      dup4\n        /* \"#utility.yul\":9690:9706   */\n      add\n        /* \"#utility.yul\":9684:9707   */\n      mload\n        /* \"#utility.yul\":9754:9757   */\n      dup5\n        /* \"#utility.yul\":9748:9752   */\n      dup3\n        /* \"#utility.yul\":9744:9758   */\n      sub\n        /* \"#utility.yul\":9737:9741   */\n      0x00\n        /* \"#utility.yul\":9732:9735   */\n      dup7\n        /* \"#utility.yul\":9728:9742   */\n      add\n        /* \"#utility.yul\":9721:9759   */\n      mstore\n        /* \"#utility.yul\":9780:9853   */\n      tag_298\n        /* \"#utility.yul\":9848:9852   */\n      dup3\n        /* \"#utility.yul\":9834:9846   */\n      dup3\n        /* \"#utility.yul\":9780:9853   */\n      tag_138\n      jump\t// in\n    tag_298:\n        /* \"#utility.yul\":9772:9853   */\n      swap2\n      pop\n        /* \"#utility.yul\":9629:9864   */\n      pop\n        /* \"#utility.yul\":9953:9957   */\n      0x20\n        /* \"#utility.yul\":9946:9951   */\n      dup4\n        /* \"#utility.yul\":9942:9958   */\n      add\n        /* \"#utility.yul\":9936:9959   */\n      mload\n        /* \"#utility.yul\":9972:10033   */\n      tag_299\n        /* \"#utility.yul\":10027:10031   */\n      0x20\n        /* \"#utility.yul\":10022:10025   */\n      dup7\n        /* \"#utility.yul\":10018:10032   */\n      add\n        /* \"#utility.yul\":10004:10016   */\n      dup3\n        /* \"#utility.yul\":9972:10033   */\n      tag_140\n      jump\t// in\n    tag_299:\n        /* \"#utility.yul\":9874:10043   */\n      pop\n        /* \"#utility.yul\":10129:10133   */\n      0x40\n        /* \"#utility.yul\":10122:10127   */\n      dup4\n        /* \"#utility.yul\":10118:10134   */\n      add\n        /* \"#utility.yul\":10112:10135   */\n      mload\n        /* \"#utility.yul\":10148:10207   */\n      tag_300\n        /* \"#utility.yul\":10201:10205   */\n      0x40\n        /* \"#utility.yul\":10196:10199   */\n      dup7\n        /* \"#utility.yul\":10192:10206   */\n      add\n        /* \"#utility.yul\":10178:10190   */\n      dup3\n        /* \"#utility.yul\":10148:10207   */\n      tag_142\n      jump\t// in\n    tag_300:\n        /* \"#utility.yul\":10053:10217   */\n      pop\n        /* \"#utility.yul\":10302:10306   */\n      0x60\n        /* \"#utility.yul\":10295:10300   */\n      dup4\n        /* \"#utility.yul\":10291:10307   */\n      add\n        /* \"#utility.yul\":10285:10308   */\n      mload\n        /* \"#utility.yul\":10321:10380   */\n      tag_301\n        /* \"#utility.yul\":10374:10378   */\n      0x60\n        /* \"#utility.yul\":10369:10372   */\n      dup7\n        /* \"#utility.yul\":10365:10379   */\n      add\n        /* \"#utility.yul\":10351:10363   */\n      dup3\n        /* \"#utility.yul\":10321:10380   */\n      tag_142\n      jump\t// in\n    tag_301:\n        /* \"#utility.yul\":10227:10390   */\n      pop\n        /* \"#utility.yul\":10477:10481   */\n      0x80\n        /* \"#utility.yul\":10470:10475   */\n      dup4\n        /* \"#utility.yul\":10466:10482   */\n      add\n        /* \"#utility.yul\":10460:10483   */\n      mload\n        /* \"#utility.yul\":10496:10555   */\n      tag_302\n        /* \"#utility.yul\":10549:10553   */\n      0x80\n        /* \"#utility.yul\":10544:10547   */\n      dup7\n        /* \"#utility.yul\":10540:10554   */\n      add\n        /* \"#utility.yul\":10526:10538   */\n      dup3\n        /* \"#utility.yul\":10496:10555   */\n      tag_142\n      jump\t// in\n    tag_302:\n        /* \"#utility.yul\":10400:10565   */\n      pop\n        /* \"#utility.yul\":10655:10659   */\n      0xa0\n        /* \"#utility.yul\":10648:10653   */\n      dup4\n        /* \"#utility.yul\":10644:10660   */\n      add\n        /* \"#utility.yul\":10638:10661   */\n      mload\n        /* \"#utility.yul\":10708:10711   */\n      dup5\n        /* \"#utility.yul\":10702:10706   */\n      dup3\n        /* \"#utility.yul\":10698:10712   */\n      sub\n        /* \"#utility.yul\":10691:10695   */\n      0xa0\n        /* \"#utility.yul\":10686:10689   */\n      dup7\n        /* \"#utility.yul\":10682:10696   */\n      add\n        /* \"#utility.yul\":10675:10713   */\n      mstore\n        /* \"#utility.yul\":10734:10807   */\n      tag_303\n        /* \"#utility.yul\":10802:10806   */\n      dup3\n        /* \"#utility.yul\":10788:10800   */\n      dup3\n        /* \"#utility.yul\":10734:10807   */\n      tag_138\n      jump\t// in\n    tag_303:\n        /* \"#utility.yul\":10726:10807   */\n      swap2\n      pop\n        /* \"#utility.yul\":10575:10818   */\n      pop\n        /* \"#utility.yul\":10905:10909   */\n      0xc0\n        /* \"#utility.yul\":10898:10903   */\n      dup4\n        /* \"#utility.yul\":10894:10910   */\n      add\n        /* \"#utility.yul\":10888:10911   */\n      mload\n        /* \"#utility.yul\":10924:10987   */\n      tag_304\n        /* \"#utility.yul\":10981:10985   */\n      0xc0\n        /* \"#utility.yul\":10976:10979   */\n      dup7\n        /* \"#utility.yul\":10972:10986   */\n      add\n        /* \"#utility.yul\":10958:10970   */\n      dup3\n        /* \"#utility.yul\":10924:10987   */\n      tag_144\n      jump\t// in\n    tag_304:\n        /* \"#utility.yul\":10828:10997   */\n      pop\n        /* \"#utility.yul\":11084:11088   */\n      0xe0\n        /* \"#utility.yul\":11077:11082   */\n      dup4\n        /* \"#utility.yul\":11073:11089   */\n      add\n        /* \"#utility.yul\":11067:11090   */\n      mload\n        /* \"#utility.yul\":11103:11166   */\n      tag_305\n        /* \"#utility.yul\":11160:11164   */\n      0xe0\n        /* \"#utility.yul\":11155:11158   */\n      dup7\n        /* \"#utility.yul\":11151:11165   */\n      add\n        /* \"#utility.yul\":11137:11149   */\n      dup3\n        /* \"#utility.yul\":11103:11166   */\n      tag_147\n      jump\t// in\n    tag_305:\n        /* \"#utility.yul\":11007:11176   */\n      pop\n        /* \"#utility.yul\":11193:11197   */\n      dup1\n        /* \"#utility.yul\":11186:11197   */\n      swap2\n      pop\n        /* \"#utility.yul\":9581:11203   */\n      pop\n        /* \"#utility.yul\":9475:11203   */\n      swap3\n      swap2\n      pop\n      pop\n      jump\t// out\n        /* \"#utility.yul\":11209:11449   */\n    tag_169:\n        /* \"#utility.yul\":11320:11330   */\n      0x00\n        /* \"#utility.yul\":11355:11443   */\n      tag_307\n        /* \"#utility.yul\":11439:11442   */\n      dup4\n        /* \"#utility.yul\":11431:11437   */\n      dup4\n        /* \"#utility.yul\":11355:11443   */\n      tag_168\n      jump\t// in\n    tag_307:\n        /* \"#utility.yul\":11341:11443   */\n      swap1\n      pop\n        /* \"#utility.yul\":11209:11449   */\n      swap3\n      swap2\n      pop\n      pop\n      jump\t// out\n        /* \"#utility.yul\":11455:11589   */\n    tag_170:\n        /* \"#utility.yul\":11546:11550   */\n      0x00\n        /* \"#utility.yul\":11578:11582   */\n      0x20\n        /* \"#utility.yul\":11573:11576   */\n      dup3\n        /* \"#utility.yul\":11569:11583   */\n      add\n        /* \"#utility.yul\":11561:11583   */\n      swap1\n      pop\n        /* \"#utility.yul\":11455:11589   */\n      swap2\n      swap1\n      pop\n      jump\t// out\n        /* \"#utility.yul\":11663:12742   */\n    tag_171:\n        /* \"#utility.yul\":11824:11827   */\n      0x00\n        /* \"#utility.yul\":11853:11928   */\n      tag_310\n        /* \"#utility.yul\":11922:11927   */\n      dup3\n        /* \"#utility.yul\":11853:11928   */\n      tag_165\n      jump\t// in\n    tag_310:\n        /* \"#utility.yul\":11944:12051   */\n      tag_311\n        /* \"#utility.yul\":12044:12050   */\n      dup2\n        /* \"#utility.yul\":12039:12042   */\n      dup6\n        /* \"#utility.yul\":11944:12051   */\n      tag_166\n      jump\t// in\n    tag_311:\n        /* \"#utility.yul\":11937:12051   */\n      swap4\n      pop\n        /* \"#utility.yul\":12077:12080   */\n      dup4\n        /* \"#utility.yul\":12122:12126   */\n      0x20\n        /* \"#utility.yul\":12114:12120   */\n      dup3\n        /* \"#utility.yul\":12110:12127   */\n      mul\n        /* \"#utility.yul\":12105:12108   */\n      dup6\n        /* \"#utility.yul\":12101:12128   */\n      add\n        /* \"#utility.yul\":12152:12229   */\n      tag_312\n        /* \"#utility.yul\":12223:12228   */\n      dup6\n        /* \"#utility.yul\":12152:12229   */\n      tag_167\n      jump\t// in\n    tag_312:\n        /* \"#utility.yul\":12252:12259   */\n      dup1\n        /* \"#utility.yul\":12283:12284   */\n      0x00\n        /* \"#utility.yul\":12268:12697   */\n    tag_313:\n        /* \"#utility.yul\":12293:12299   */\n      dup6\n        /* \"#utility.yul\":12290:12291   */\n      dup2\n        /* \"#utility.yul\":12287:12300   */\n      lt\n        /* \"#utility.yul\":12268:12697   */\n      iszero\n      tag_315\n      jumpi\n        /* \"#utility.yul\":12364:12373   */\n      dup5\n        /* \"#utility.yul\":12358:12362   */\n      dup5\n        /* \"#utility.yul\":12354:12374   */\n      sub\n        /* \"#utility.yul\":12349:12352   */\n      dup10\n        /* \"#utility.yul\":12342:12375   */\n      mstore\n        /* \"#utility.yul\":12415:12421   */\n      dup2\n        /* \"#utility.yul\":12409:12422   */\n      mload\n        /* \"#utility.yul\":12443:12549   */\n      tag_316\n        /* \"#utility.yul\":12544:12548   */\n      dup6\n        /* \"#utility.yul\":12529:12542   */\n      dup3\n        /* \"#utility.yul\":12443:12549   */\n      tag_169\n      jump\t// in\n    tag_316:\n        /* \"#utility.yul\":12435:12549   */\n      swap5\n      pop\n        /* \"#utility.yul\":12572:12653   */\n      tag_317\n        /* \"#utility.yul\":12646:12652   */\n      dup4\n        /* \"#utility.yul\":12572:12653   */\n      tag_170\n      jump\t// in\n    tag_317:\n        /* \"#utility.yul\":12562:12653   */\n      swap3\n      pop\n        /* \"#utility.yul\":12682:12686   */\n      0x20\n        /* \"#utility.yul\":12677:12680   */\n      dup11\n        /* \"#utility.yul\":12673:12687   */\n      add\n        /* \"#utility.yul\":12666:12687   */\n      swap10\n      pop\n        /* \"#utility.yul\":12328:12697   */\n      pop\n        /* \"#utility.yul\":12315:12316   */\n      0x01\n        /* \"#utility.yul\":12312:12313   */\n      dup2\n        /* \"#utility.yul\":12308:12317   */\n      add\n        /* \"#utility.yul\":12303:12317   */\n      swap1\n      pop\n        /* \"#utility.yul\":12268:12697   */\n      jump(tag_313)\n    tag_315:\n        /* \"#utility.yul\":12272:12286   */\n      pop\n        /* \"#utility.yul\":12713:12717   */\n      dup3\n        /* \"#utility.yul\":12706:12717   */\n      swap8\n      pop\n        /* \"#utility.yul\":12733:12736   */\n      dup8\n        /* \"#utility.yul\":12726:12736   */\n      swap6\n      pop\n        /* \"#utility.yul\":11829:12742   */\n      pop\n      pop\n      pop\n      pop\n      pop\n        /* \"#utility.yul\":11663:12742   */\n      swap3\n      swap2\n      pop\n      pop\n      jump\t// out\n        /* \"#utility.yul\":12748:13205   */\n    tag_24:\n        /* \"#utility.yul\":12933:12937   */\n      0x00\n        /* \"#utility.yul\":12971:12973   */\n      0x20\n        /* \"#utility.yul\":12960:12969   */\n      dup3\n        /* \"#utility.yul\":12956:12974   */\n      add\n        /* \"#utility.yul\":12948:12974   */\n      swap1\n      pop\n        /* \"#utility.yul\":13020:13029   */\n      dup2\n        /* \"#utility.yul\":13014:13018   */\n      dup2\n        /* \"#utility.yul\":13010:13030   */\n      sub\n        /* \"#utility.yul\":13006:13007   */\n      0x00\n        /* \"#utility.yul\":12995:13004   */\n      dup4\n        /* \"#utility.yul\":12991:13008   */\n      add\n        /* \"#utility.yul\":12984:13031   */\n      mstore\n        /* \"#utility.yul\":13048:13198   */\n      tag_319\n        /* \"#utility.yul\":13193:13197   */\n      dup2\n        /* \"#utility.yul\":13184:13190   */\n      dup5\n        /* \"#utility.yul\":13048:13198   */\n      tag_171\n      jump\t// in\n    tag_319:\n        /* \"#utility.yul\":13040:13198   */\n      swap1\n      pop\n        /* \"#utility.yul\":12748:13205   */\n      swap3\n      swap2\n      pop\n      pop\n      jump\t// out\n        /* \"#utility.yul\":13211:13329   */\n    tag_172:\n        /* \"#utility.yul\":13298:13322   */\n      tag_321\n        /* \"#utility.yul\":13316:13321   */\n      dup2\n        /* \"#utility.yul\":13298:13322   */\n      tag_146\n      jump\t// in\n    tag_321:\n        /* \"#utility.yul\":13293:13296   */\n      dup3\n        /* \"#utility.yul\":13286:13323   */\n      mstore\n        /* \"#utility.yul\":13211:13329   */\n      pop\n      pop\n      jump\t// out\n        /* \"#utility.yul\":13335:13557   */\n    tag_30:\n        /* \"#utility.yul\":13428:13432   */\n      0x00\n        /* \"#utility.yul\":13466:13468   */\n      0x20\n        /* \"#utility.yul\":13455:13464   */\n      dup3\n        /* \"#utility.yul\":13451:13469   */\n      add\n        /* \"#utility.yul\":13443:13469   */\n      swap1\n      pop\n        /* \"#utility.yul\":13479:13550   */\n      tag_323\n        /* \"#utility.yul\":13547:13548   */\n      0x00\n        /* \"#utility.yul\":13536:13545   */\n      dup4\n        /* \"#utility.yul\":13532:13549   */\n      add\n        /* \"#utility.yul\":13523:13529   */\n      dup5\n        /* \"#utility.yul\":13479:13550   */\n      tag_172\n      jump\t// in\n    tag_323:\n        /* \"#utility.yul\":13335:13557   */\n      swap3\n      swap2\n      pop\n      pop\n      jump\t// out\n        /* \"#utility.yul\":13563:13681   */\n    tag_173:\n        /* \"#utility.yul\":13650:13674   */\n      tag_325\n        /* \"#utility.yul\":13668:13673   */\n      dup2\n        /* \"#utility.yul\":13650:13674   */\n      tag_143\n      jump\t// in\n    tag_325:\n        /* \"#utility.yul\":13645:13648   */\n      dup3\n        /* \"#utility.yul\":13638:13675   */\n      mstore\n        /* \"#utility.yul\":13563:13681   */\n      pop\n      pop\n      jump\t// out\n        /* \"#utility.yul\":13687:13909   */\n    tag_34:\n        /* \"#utility.yul\":13780:13784   */\n      0x00\n        /* \"#utility.yul\":13818:13820   */\n      0x20\n        /* \"#utility.yul\":13807:13816   */\n      dup3\n        /* \"#utility.yul\":13803:13821   */\n      add\n        /* \"#utility.yul\":13795:13821   */\n      swap1\n      pop\n        /* \"#utility.yul\":13831:13902   */\n      tag_327\n        /* \"#utility.yul\":13899:13900   */\n      0x00\n        /* \"#utility.yul\":13888:13897   */\n      dup4\n        /* \"#utility.yul\":13884:13901   */\n      add\n        /* \"#utility.yul\":13875:13881   */\n      dup5\n        /* \"#utility.yul\":13831:13902   */\n      tag_173\n      jump\t// in\n    tag_327:\n        /* \"#utility.yul\":13687:13909   */\n      swap3\n      swap2\n      pop\n      pop\n      jump\t// out\n        /* \"#utility.yul\":13915:14037   */\n    tag_174:\n        /* \"#utility.yul\":13988:14012   */\n      tag_329\n        /* \"#utility.yul\":14006:14011   */\n      dup2\n        /* \"#utility.yul\":13988:14012   */\n      tag_146\n      jump\t// in\n    tag_329:\n        /* \"#utility.yul\":13981:13986   */\n      dup2\n        /* \"#utility.yul\":13978:14013   */\n      eq\n        /* \"#utility.yul\":13968:14031   */\n      tag_330\n      jumpi\n        /* \"#utility.yul\":14027:14028   */\n      0x00\n        /* \"#utility.yul\":14024:14025   */\n      0x00\n        /* \"#utility.yul\":14017:14029   */\n      revert\n        /* \"#utility.yul\":13968:14031   */\n    tag_330:\n        /* \"#utility.yul\":13915:14037   */\n      pop\n      jump\t// out\n        /* \"#utility.yul\":14043:14182   */\n    tag_175:\n        /* \"#utility.yul\":14089:14094   */\n      0x00\n        /* \"#utility.yul\":14127:14133   */\n      dup2\n        /* \"#utility.yul\":14114:14134   */\n      calldataload\n        /* \"#utility.yul\":14105:14134   */\n      swap1\n      pop\n        /* \"#utility.yul\":14143:14176   */\n      tag_332\n        /* \"#utility.yul\":14170:14175   */\n      dup2\n        /* \"#utility.yul\":14143:14176   */\n      tag_174\n      jump\t// in\n    tag_332:\n        /* \"#utility.yul\":14043:14182   */\n      swap3\n      swap2\n      pop\n      pop\n      jump\t// out\n        /* \"#utility.yul\":14188:14517   */\n    tag_37:\n        /* \"#utility.yul\":14247:14253   */\n      0x00\n        /* \"#utility.yul\":14296:14298   */\n      0x20\n        /* \"#utility.yul\":14284:14293   */\n      dup3\n        /* \"#utility.yul\":14275:14282   */\n      dup5\n        /* \"#utility.yul\":14271:14294   */\n      sub\n        /* \"#utility.yul\":14267:14299   */\n      slt\n        /* \"#utility.yul\":14264:14383   */\n      iszero\n      tag_334\n      jumpi\n        /* \"#utility.yul\":14302:14381   */\n      tag_335\n      tag_150\n      jump\t// in\n    tag_335:\n        /* \"#utility.yul\":14264:14383   */\n    tag_334:\n        /* \"#utility.yul\":14422:14423   */\n      0x00\n        /* \"#utility.yul\":14447:14500   */\n      tag_336\n        /* \"#utility.yul\":14492:14499   */\n      dup5\n        /* \"#utility.yul\":14483:14489   */\n      dup3\n        /* \"#utility.yul\":14472:14481   */\n      dup6\n        /* \"#utility.yul\":14468:14490   */\n      add\n        /* \"#utility.yul\":14447:14500   */\n      tag_175\n      jump\t// in\n    tag_336:\n        /* \"#utility.yul\":14437:14500   */\n      swap2\n      pop\n        /* \"#utility.yul\":14393:14510   */\n      pop\n        /* \"#utility.yul\":14188:14517   */\n      swap3\n      swap2\n      pop\n      pop\n      jump\t// out\n        /* \"#utility.yul\":14523:14703   */\n    tag_176:\n        /* \"#utility.yul\":14571:14648   */\n      0x4e487b7100000000000000000000000000000000000000000000000000000000\n        /* \"#utility.yul\":14568:14569   */\n      0x00\n        /* \"#utility.yul\":14561:14649   */\n      mstore\n        /* \"#utility.yul\":14668:14672   */\n      0x11\n        /* \"#utility.yul\":14665:14666   */\n      0x04\n        /* \"#utility.yul\":14658:14673   */\n      mstore\n        /* \"#utility.yul\":14692:14696   */\n      0x24\n        /* \"#utility.yul\":14689:14690   */\n      0x00\n        /* \"#utility.yul\":14682:14697   */\n      revert\n        /* \"#utility.yul\":14709:14903   */\n    tag_44:\n        /* \"#utility.yul\":14749:14753   */\n      0x00\n        /* \"#utility.yul\":14769:14789   */\n      tag_339\n        /* \"#utility.yul\":14787:14788   */\n      dup3\n        /* \"#utility.yul\":14769:14789   */\n      tag_143\n      jump\t// in\n    tag_339:\n        /* \"#utility.yul\":14764:14789   */\n      swap2\n      pop\n        /* \"#utility.yul\":14803:14823   */\n      tag_340\n        /* \"#utility.yul\":14821:14822   */\n      dup4\n        /* \"#utility.yul\":14803:14823   */\n      tag_143\n      jump\t// in\n    tag_340:\n        /* \"#utility.yul\":14798:14823   */\n      swap3\n      pop\n        /* \"#utility.yul\":14847:14848   */\n      dup3\n        /* \"#utility.yul\":14844:14845   */\n      dup3\n        /* \"#utility.yul\":14840:14849   */\n      sub\n        /* \"#utility.yul\":14832:14849   */\n      swap1\n      pop\n        /* \"#utility.yul\":14871:14872   */\n      dup2\n        /* \"#utility.yul\":14865:14869   */\n      dup2\n        /* \"#utility.yul\":14862:14873   */\n      gt\n        /* \"#utility.yul\":14859:14896   */\n      iszero\n      tag_341\n      jumpi\n        /* \"#utility.yul\":14876:14894   */\n      tag_342\n      tag_176\n      jump\t// in\n    tag_342:\n        /* \"#utility.yul\":14859:14896   */\n    tag_341:\n        /* \"#utility.yul\":14709:14903   */\n      swap3\n      swap2\n      pop\n      pop\n      jump\t// out\n        /* \"#utility.yul\":14909:15089   */\n    tag_47:\n        /* \"#utility.yul\":14957:15034   */\n      0x4e487b7100000000000000000000000000000000000000000000000000000000\n        /* \"#utility.yul\":14954:14955   */\n      0x00\n        /* \"#utility.yul\":14947:15035   */\n      mstore\n        /* \"#utility.yul\":15054:15058   */\n      0x32\n        /* \"#utility.yul\":15051:15052   */\n      0x04\n        /* \"#utility.yul\":15044:15059   */\n      mstore\n        /* \"#utility.yul\":15078:15082   */\n      0x24\n        /* \"#utility.yul\":15075:15076   */\n      0x00\n        /* \"#utility.yul\":15068:15083   */\n      revert\n        /* \"#utility.yul\":15095:15275   */\n    tag_177:\n        /* \"#utility.yul\":15143:15220   */\n      0x4e487b7100000000000000000000000000000000000000000000000000000000\n        /* \"#utility.yul\":15140:15141   */\n      0x00\n        /* \"#utility.yul\":15133:15221   */\n      mstore\n        /* \"#utility.yul\":15240:15244   */\n      0x22\n        /* \"#utility.yul\":15237:15238   */\n      0x04\n        /* \"#utility.yul\":15230:15245   */\n      mstore\n        /* \"#utility.yul\":15264:15268   */\n      0x24\n        /* \"#utility.yul\":15261:15262   */\n      0x00\n        /* \"#utility.yul\":15254:15269   */\n      revert\n        /* \"#utility.yul\":15281:15601   */\n    tag_50:\n        /* \"#utility.yul\":15325:15331   */\n      0x00\n        /* \"#utility.yul\":15362:15363   */\n      0x02\n        /* \"#utility.yul\":15356:15360   */\n      dup3\n        /* \"#utility.yul\":15352:15364   */\n      div\n        /* \"#utility.yul\":15342:15364   */\n      swap1\n      pop\n        /* \"#utility.yul\":15409:15410   */\n      0x01\n        /* \"#utility.yul\":15403:15407   */\n      dup3\n        /* \"#utility.yul\":15399:15411   */\n      and\n        /* \"#utility.yul\":15430:15448   */\n      dup1\n        /* \"#utility.yul\":15420:15501   */\n      tag_346\n      jumpi\n        /* \"#utility.yul\":15486:15490   */\n      0x7f\n        /* \"#utility.yul\":15478:15484   */\n      dup3\n        /* \"#utility.yul\":15474:15491   */\n      and\n        /* \"#utility.yul\":15464:15491   */\n      swap2\n      pop\n        /* \"#utility.yul\":15420:15501   */\n    tag_346:\n        /* \"#utility.yul\":15548:15550   */\n      0x20\n        /* \"#utility.yul\":15540:15546   */\n      dup3\n        /* \"#utility.yul\":15537:15551   */\n      lt\n        /* \"#utility.yul\":15517:15535   */\n      dup2\n        /* \"#utility.yul\":15514:15552   */\n      sub\n        /* \"#utility.yul\":15511:15595   */\n      tag_347\n      jumpi\n        /* \"#utility.yul\":15567:15585   */\n      tag_348\n      tag_177\n      jump\t// in\n    tag_348:\n        /* \"#utility.yul\":15511:15595   */\n    tag_347:\n        /* \"#utility.yul\":15332:15601   */\n      pop\n        /* \"#utility.yul\":15281:15601   */\n      swap2\n      swap1\n      pop\n      jump\t// out\n        /* \"#utility.yul\":15607:15776   */\n    tag_178:\n        /* \"#utility.yul\":15691:15702   */\n      0x00\n        /* \"#utility.yul\":15725:15731   */\n      dup3\n        /* \"#utility.yul\":15720:15723   */\n      dup3\n        /* \"#utility.yul\":15713:15732   */\n      mstore\n        /* \"#utility.yul\":15765:15769   */\n      0x20\n        /* \"#utility.yul\":15760:15763   */\n      dup3\n        /* \"#utility.yul\":15756:15770   */\n      add\n        /* \"#utility.yul\":15741:15770   */\n      swap1\n      pop\n        /* \"#utility.yul\":15607:15776   */\n      swap3\n      swap2\n      pop\n      pop\n      jump\t// out\n        /* \"#utility.yul\":15782:15936   */\n    tag_179:\n        /* \"#utility.yul\":15922:15928   */\n      0x6369747900000000000000000000000000000000000000000000000000000000\n        /* \"#utility.yul\":15918:15919   */\n      0x00\n        /* \"#utility.yul\":15910:15916   */\n      dup3\n        /* \"#utility.yul\":15906:15920   */\n      add\n        /* \"#utility.yul\":15899:15929   */\n      mstore\n        /* \"#utility.yul\":15782:15936   */\n      pop\n      jump\t// out\n        /* \"#utility.yul\":15942:16307   */\n    tag_180:\n        /* \"#utility.yul\":16084:16087   */\n      0x00\n        /* \"#utility.yul\":16105:16171   */\n      tag_352\n        /* \"#utility.yul\":16169:16170   */\n      0x04\n        /* \"#utility.yul\":16164:16167   */\n      dup4\n        /* \"#utility.yul\":16105:16171   */\n      tag_178\n      jump\t// in\n    tag_352:\n        /* \"#utility.yul\":16098:16171   */\n      swap2\n      pop\n        /* \"#utility.yul\":16180:16273   */\n      tag_353\n        /* \"#utility.yul\":16269:16272   */\n      dup3\n        /* \"#utility.yul\":16180:16273   */\n      tag_179\n      jump\t// in\n    tag_353:\n        /* \"#utility.yul\":16298:16300   */\n      0x20\n        /* \"#utility.yul\":16293:16296   */\n      dup3\n        /* \"#utility.yul\":16289:16301   */\n      add\n        /* \"#utility.yul\":16282:16301   */\n      swap1\n      pop\n        /* \"#utility.yul\":15942:16307   */\n      swap2\n      swap1\n      pop\n      jump\t// out\n        /* \"#utility.yul\":16313:16732   */\n    tag_66:\n        /* \"#utility.yul\":16479:16483   */\n      0x00\n        /* \"#utility.yul\":16517:16519   */\n      0x20\n        /* \"#utility.yul\":16506:16515   */\n      dup3\n        /* \"#utility.yul\":16502:16520   */\n      add\n        /* \"#utility.yul\":16494:16520   */\n      swap1\n      pop\n        /* \"#utility.yul\":16566:16575   */\n      dup2\n        /* \"#utility.yul\":16560:16564   */\n      dup2\n        /* \"#utility.yul\":16556:16576   */\n      sub\n        /* \"#utility.yul\":16552:16553   */\n      0x00\n        /* \"#utility.yul\":16541:16550   */\n      dup4\n        /* \"#utility.yul\":16537:16554   */\n      add\n        /* \"#utility.yul\":16530:16577   */\n      mstore\n        /* \"#utility.yul\":16594:16725   */\n      tag_355\n        /* \"#utility.yul\":16720:16724   */\n      dup2\n        /* \"#utility.yul\":16594:16725   */\n      tag_180\n      jump\t// in\n    tag_355:\n        /* \"#utility.yul\":16586:16725   */\n      swap1\n      pop\n        /* \"#utility.yul\":16313:16732   */\n      swap2\n      swap1\n      pop\n      jump\t// out\n        /* \"#utility.yul\":16738:16900   */\n    tag_181:\n        /* \"#utility.yul\":16878:16892   */\n      0x7361666574794164766963650000000000000000000000000000000000000000\n        /* \"#utility.yul\":16874:16875   */\n      0x00\n        /* \"#utility.yul\":16866:16872   */\n      dup3\n        /* \"#utility.yul\":16862:16876   */\n      add\n        /* \"#utility.yul\":16855:16893   */\n      mstore\n        /* \"#utility.yul\":16738:16900   */\n      pop\n      jump\t// out\n        /* \"#utility.yul\":16906:17272   */\n    tag_182:\n        /* \"#utility.yul\":17048:17051   */\n      0x00\n        /* \"#utility.yul\":17069:17136   */\n      tag_358\n        /* \"#utility.yul\":17133:17135   */\n      0x0c\n        /* \"#utility.yul\":17128:17131   */\n      dup4\n        /* \"#utility.yul\":17069:17136   */\n      tag_178\n      jump\t// in\n    tag_358:\n        /* \"#utility.yul\":17062:17136   */\n      swap2\n      pop\n        /* \"#utility.yul\":17145:17238   */\n      tag_359\n        /* \"#utility.yul\":17234:17237   */\n      dup3\n        /* \"#utility.yul\":17145:17238   */\n      tag_181\n      jump\t// in\n    tag_359:\n        /* \"#utility.yul\":17263:17265   */\n      0x20\n        /* \"#utility.yul\":17258:17261   */\n      dup3\n        /* \"#utility.yul\":17254:17266   */\n      add\n        /* \"#utility.yul\":17247:17266   */\n      swap1\n      pop\n        /* \"#utility.yul\":16906:17272   */\n      swap2\n      swap1\n      pop\n      jump\t// out\n        /* \"#utility.yul\":17278:17697   */\n    tag_69:\n        /* \"#utility.yul\":17444:17448   */\n      0x00\n        /* \"#utility.yul\":17482:17484   */\n      0x20\n        /* \"#utility.yul\":17471:17480   */\n      dup3\n        /* \"#utility.yul\":17467:17485   */\n      add\n        /* \"#utility.yul\":17459:17485   */\n      swap1\n      pop\n        /* \"#utility.yul\":17531:17540   */\n      dup2\n        /* \"#utility.yul\":17525:17529   */\n      dup2\n        /* \"#utility.yul\":17521:17541   */\n      sub\n        /* \"#utility.yul\":17517:17518   */\n      0x00\n        /* \"#utility.yul\":17506:17515   */\n      dup4\n        /* \"#utility.yul\":17502:17519   */\n      add\n        /* \"#utility.yul\":17495:17542   */\n      mstore\n        /* \"#utility.yul\":17559:17690   */\n      tag_361\n        /* \"#utility.yul\":17685:17689   */\n      dup2\n        /* \"#utility.yul\":17559:17690   */\n      tag_182\n      jump\t// in\n    tag_361:\n        /* \"#utility.yul\":17551:17690   */\n      swap1\n      pop\n        /* \"#utility.yul\":17278:17697   */\n      swap2\n      swap1\n      pop\n      jump\t// out\n        /* \"#utility.yul\":17703:17815   */\n    tag_183:\n        /* \"#utility.yul\":17786:17808   */\n      tag_363\n        /* \"#utility.yul\":17802:17807   */\n      dup2\n        /* \"#utility.yul\":17786:17808   */\n      tag_141\n      jump\t// in\n    tag_363:\n        /* \"#utility.yul\":17781:17784   */\n      dup3\n        /* \"#utility.yul\":17774:17809   */\n      mstore\n        /* \"#utility.yul\":17703:17815   */\n      pop\n      pop\n      jump\t// out\n        /* \"#utility.yul\":17821:18035   */\n    tag_72:\n        /* \"#utility.yul\":17910:17914   */\n      0x00\n        /* \"#utility.yul\":17948:17950   */\n      0x20\n        /* \"#utility.yul\":17937:17946   */\n      dup3\n        /* \"#utility.yul\":17933:17951   */\n      add\n        /* \"#utility.yul\":17925:17951   */\n      swap1\n      pop\n        /* \"#utility.yul\":17961:18028   */\n      tag_365\n        /* \"#utility.yul\":18025:18026   */\n      0x00\n        /* \"#utility.yul\":18014:18023   */\n      dup4\n        /* \"#utility.yul\":18010:18027   */\n      add\n        /* \"#utility.yul\":18001:18007   */\n      dup5\n        /* \"#utility.yul\":17961:18028   */\n      tag_183\n      jump\t// in\n    tag_365:\n        /* \"#utility.yul\":17821:18035   */\n      swap3\n      swap2\n      pop\n      pop\n      jump\t// out\n        /* \"#utility.yul\":18041:18189   */\n    tag_184:\n        /* \"#utility.yul\":18143:18154   */\n      0x00\n        /* \"#utility.yul\":18180:18183   */\n      dup2\n        /* \"#utility.yul\":18165:18183   */\n      swap1\n      pop\n        /* \"#utility.yul\":18041:18189   */\n      swap3\n      swap2\n      pop\n      pop\n      jump\t// out\n        /* \"#utility.yul\":18195:18585   */\n    tag_185:\n        /* \"#utility.yul\":18301:18304   */\n      0x00\n        /* \"#utility.yul\":18329:18368   */\n      tag_368\n        /* \"#utility.yul\":18362:18367   */\n      dup3\n        /* \"#utility.yul\":18329:18368   */\n      tag_134\n      jump\t// in\n    tag_368:\n        /* \"#utility.yul\":18384:18473   */\n      tag_369\n        /* \"#utility.yul\":18466:18472   */\n      dup2\n        /* \"#utility.yul\":18461:18464   */\n      dup6\n        /* \"#utility.yul\":18384:18473   */\n      tag_184\n      jump\t// in\n    tag_369:\n        /* \"#utility.yul\":18377:18473   */\n      swap4\n      pop\n        /* \"#utility.yul\":18482:18547   */\n      tag_370\n        /* \"#utility.yul\":18540:18546   */\n      dup2\n        /* \"#utility.yul\":18535:18538   */\n      dup6\n        /* \"#utility.yul\":18528:18532   */\n      0x20\n        /* \"#utility.yul\":18521:18526   */\n      dup7\n        /* \"#utility.yul\":18517:18533   */\n      add\n        /* \"#utility.yul\":18482:18547   */\n      tag_136\n      jump\t// in\n    tag_370:\n        /* \"#utility.yul\":18572:18578   */\n      dup1\n        /* \"#utility.yul\":18567:18570   */\n      dup5\n        /* \"#utility.yul\":18563:18579   */\n      add\n        /* \"#utility.yul\":18556:18579   */\n      swap2\n      pop\n        /* \"#utility.yul\":18305:18585   */\n      pop\n        /* \"#utility.yul\":18195:18585   */\n      swap3\n      swap2\n      pop\n      pop\n      jump\t// out\n        /* \"#utility.yul\":18591:18866   */\n    tag_79:\n        /* \"#utility.yul\":18723:18726   */\n      0x00\n        /* \"#utility.yul\":18745:18840   */\n      tag_372\n        /* \"#utility.yul\":18836:18839   */\n      dup3\n        /* \"#utility.yul\":18827:18833   */\n      dup5\n        /* \"#utility.yul\":18745:18840   */\n      tag_185\n      jump\t// in\n    tag_372:\n        /* \"#utility.yul\":18738:18840   */\n      swap2\n      pop\n        /* \"#utility.yul\":18857:18860   */\n      dup2\n        /* \"#utility.yul\":18850:18860   */\n      swap1\n      pop\n        /* \"#utility.yul\":18591:18866   */\n      swap3\n      swap2\n      pop\n      pop\n      jump\t// out\n        /* \"#utility.yul\":18872:19013   */\n    tag_186:\n        /* \"#utility.yul\":18921:18925   */\n      0x00\n        /* \"#utility.yul\":18944:18947   */\n      dup2\n        /* \"#utility.yul\":18936:18947   */\n      swap1\n      pop\n        /* \"#utility.yul\":18967:18970   */\n      dup2\n        /* \"#utility.yul\":18964:18965   */\n      0x00\n        /* \"#utility.yul\":18957:18971   */\n      mstore\n        /* \"#utility.yul\":19001:19005   */\n      0x20\n        /* \"#utility.yul\":18998:18999   */\n      0x00\n        /* \"#utility.yul\":18988:19006   */\n      keccak256\n        /* \"#utility.yul\":18980:19006   */\n      swap1\n      pop\n        /* \"#utility.yul\":18872:19013   */\n      swap2\n      swap1\n      pop\n      jump\t// out\n        /* \"#utility.yul\":19019:19112   */\n    tag_187:\n        /* \"#utility.yul\":19056:19062   */\n      0x00\n        /* \"#utility.yul\":19103:19105   */\n      0x20\n        /* \"#utility.yul\":19098:19100   */\n      0x1f\n        /* \"#utility.yul\":19091:19096   */\n      dup4\n        /* \"#utility.yul\":19087:19101   */\n      add\n        /* \"#utility.yul\":19083:19106   */\n      div\n        /* \"#utility.yul\":19073:19106   */\n      swap1\n      pop\n        /* \"#utility.yul\":19019:19112   */\n      swap2\n      swap1\n      pop\n      jump\t// out\n        /* \"#utility.yul\":19118:19225   */\n    tag_188:\n        /* \"#utility.yul\":19162:19170   */\n      0x00\n        /* \"#utility.yul\":19212:19217   */\n      dup3\n        /* \"#utility.yul\":19206:19210   */\n      dup3\n        /* \"#utility.yul\":19202:19218   */\n      shl\n        /* \"#utility.yul\":19181:19218   */\n      swap1\n      pop\n        /* \"#utility.yul\":19118:19225   */\n      swap3\n      swap2\n      pop\n      pop\n      jump\t// out\n        /* \"#utility.yul\":19231:19624   */\n    tag_189:\n        /* \"#utility.yul\":19300:19306   */\n      0x00\n        /* \"#utility.yul\":19350:19351   */\n      0x08\n        /* \"#utility.yul\":19338:19348   */\n      dup4\n        /* \"#utility.yul\":19334:19352   */\n      mul\n        /* \"#utility.yul\":19373:19470   */\n      tag_377\n        /* \"#utility.yul\":19403:19469   */\n      0xffffffffffffffffffffffffffffffffffffffffffffffffffffffffffffffff\n        /* \"#utility.yul\":19392:19401   */\n      dup3\n        /* \"#utility.yul\":19373:19470   */\n      tag_188\n      jump\t// in\n    tag_377:\n        /* \"#utility.yul\":19491:19530   */\n      tag_378\n        /* \"#utility.yul\":19521:19529   */\n      dup7\n        /* \"#utility.yul\":19510:19519   */\n      dup4\n        /* \"#utility.yul\":19491:19530   */\n      tag_188\n      jump\t// in\n    tag_378:\n        /* \"#utility.yul\":19479:19530   */\n      swap6\n      pop\n        /* \"#utility.yul\":19563:19567   */\n      dup1\n        /* \"#utility.yul\":19559:19568   */\n      not\n        /* \"#utility.yul\":19552:19557   */\n      dup5\n        /* \"#utility.yul\":19548:19569   */\n      and\n        /* \"#utility.yul\":19539:19569   */\n      swap4\n      pop\n        /* \"#utility.yul\":19612:19616   */\n      dup1\n        /* \"#utility.yul\":19602:19610   */\n      dup7\n        /* \"#utility.yul\":19598:19617   */\n      and\n        /* \"#utility.yul\":19591:19596   */\n      dup5\n        /* \"#utility.yul\":19588:19618   */\n      or\n        /* \"#utility.yul\":19578:19618   */\n      swap3\n      pop\n        /* \"#utility.yul\":19307:19624   */\n      pop\n      pop\n        /* \"#utility.yul\":19231:19624   */\n      swap4\n      swap3\n      pop\n      pop\n      pop\n      jump\t// out\n        /* \"#utility.yul\":19630:19690   */\n    tag_190:\n        /* \"#utility.yul\":19658:19661   */\n      0x00\n        /* \"#utility.yul\":19679:19684   */\n      dup2\n        /* \"#utility.yul\":19672:19684   */\n      swap1\n      pop\n        /* \"#utility.yul\":19630:19690   */\n      swap2\n      swap1\n      pop\n      jump\t// out\n        /* \"#utility.yul\":19696:19838   */\n    tag_191:\n        /* \"#utility.yul\":19746:19755   */\n      0x00\n        /* \"#utility.yul\":19779:19832   */\n      tag_381\n        /* \"#utility.yul\":19797:19831   */\n      tag_382\n        /* \"#utility.yul\":19806:19830   */\n      tag_383\n        /* \"#utility.yul\":19824:19829   */\n      dup5\n        /* \"#utility.yul\":19806:19830   */\n      tag_143\n      jump\t// in\n    tag_383:\n        /* \"#utility.yul\":19797:19831   */\n      tag_190\n      jump\t// in\n    tag_382:\n        /* \"#utility.yul\":19779:19832   */\n      tag_143\n      jump\t// in\n    tag_381:\n        /* \"#utility.yul\":19766:19832   */\n      swap1\n      pop\n        /* \"#utility.yul\":19696:19838   */\n      swap2\n      swap1\n      pop\n      jump\t// out\n        /* \"#utility.yul\":19844:19919   */\n    tag_192:\n        /* \"#utility.yul\":19887:19890   */\n      0x00\n        /* \"#utility.yul\":19908:19913   */\n      dup2\n        /* \"#utility.yul\":19901:19913   */\n      swap1\n      pop\n        /* \"#utility.yul\":19844:19919   */\n      swap2\n      swap1\n      pop\n      jump\t// out\n        /* \"#utility.yul\":19925:20194   */\n    tag_193:\n        /* \"#utility.yul\":20035:20074   */\n      tag_386\n        /* \"#utility.yul\":20066:20073   */\n      dup4\n        /* \"#utility.yul\":20035:20074   */\n      tag_191\n      jump\t// in\n    tag_386:\n        /* \"#utility.yul\":20096:20187   */\n      tag_387\n        /* \"#utility.yul\":20145:20186   */\n      tag_388\n        /* \"#utility.yul\":20169:20185   */\n      dup3\n        /* \"#utility.yul\":20145:20186   */\n      tag_192\n      jump\t// in\n    tag_388:\n        /* \"#utility.yul\":20137:20143   */\n      dup5\n        /* \"#utility.yul\":20130:20134   */\n      dup5\n        /* \"#utility.yul\":20124:20135   */\n      sload\n        /* \"#utility.yul\":20096:20187   */\n      tag_189\n      jump\t// in\n    tag_387:\n        /* \"#utility.yul\":20090:20094   */\n      dup3\n        /* \"#utility.yul\":20083:20188   */\n      sstore\n        /* \"#utility.yul\":20001:20194   */\n      pop\n        /* \"#utility.yul\":19925:20194   */\n      pop\n      pop\n      pop\n      jump\t// out\n        /* \"#utility.yul\":20200:20273   */\n    tag_194:\n        /* \"#utility.yul\":20245:20248   */\n      0x00\n        /* \"#utility.yul\":20266:20267   */\n      0x00\n        /* \"#utility.yul\":20259:20267   */\n      swap1\n      pop\n        /* \"#utility.yul\":20200:20273   */\n      swap1\n      jump\t// out\n        /* \"#utility.yul\":20279:20468   */\n    tag_195:\n        /* \"#utility.yul\":20356:20388   */\n      tag_391\n      tag_194\n      jump\t// in\n    tag_391:\n        /* \"#utility.yul\":20397:20462   */\n      tag_392\n        /* \"#utility.yul\":20455:20461   */\n      dup2\n        /* \"#utility.yul\":20447:20453   */\n      dup5\n        /* \"#utility.yul\":20441:20445   */\n      dup5\n        /* \"#utility.yul\":20397:20462   */\n      tag_193\n      jump\t// in\n    tag_392:\n        /* \"#utility.yul\":20332:20468   */\n      pop\n        /* \"#utility.yul\":20279:20468   */\n      pop\n      pop\n      jump\t// out\n        /* \"#utility.yul\":20474:20688   */\n    tag_196:\n        /* \"#utility.yul\":20559:20560   */\n      0x00\n        /* \"#utility.yul\":20544:20682   */\n    tag_394:\n        /* \"#utility.yul\":20569:20578   */\n      dup3\n        /* \"#utility.yul\":20566:20567   */\n      dup2\n        /* \"#utility.yul\":20563:20579   */\n      lt\n        /* \"#utility.yul\":20544:20682   */\n      iszero\n      tag_396\n      jumpi\n        /* \"#utility.yul\":20621:20672   */\n      tag_397\n        /* \"#utility.yul\":20670:20671   */\n      0x00\n        /* \"#utility.yul\":20666:20667   */\n      dup3\n        /* \"#utility.yul\":20655:20664   */\n      dup5\n        /* \"#utility.yul\":20651:20668   */\n      add\n        /* \"#utility.yul\":20621:20672   */\n      tag_195\n      jump\t// in\n    tag_397:\n        /* \"#utility.yul\":20594:20595   */\n      0x01\n        /* \"#utility.yul\":20591:20592   */\n      dup2\n        /* \"#utility.yul\":20587:20596   */\n      add\n        /* \"#utility.yul\":20582:20596   */\n      swap1\n      pop\n        /* \"#utility.yul\":20544:20682   */\n      jump(tag_394)\n    tag_396:\n        /* \"#utility.yul\":20548:20562   */\n      pop\n        /* \"#utility.yul\":20474:20688   */\n      pop\n      pop\n      jump\t// out\n        /* \"#utility.yul\":20694:21440   */\n    tag_197:\n        /* \"#utility.yul\":20795:20797   */\n      0x1f\n        /* \"#utility.yul\":20790:20793   */\n      dup3\n        /* \"#utility.yul\":20787:20798   */\n      gt\n        /* \"#utility.yul\":20784:21433   */\n      iszero\n      tag_399\n      jumpi\n        /* \"#utility.yul\":20824:20834   */\n      dup3\n        /* \"#utility.yul\":20819:20822   */\n      dup3\n        /* \"#utility.yul\":20816:20835   */\n      gt\n        /* \"#utility.yul\":20813:21423   */\n      iszero\n      tag_400\n      jumpi\n        /* \"#utility.yul\":20870:20908   */\n      tag_401\n        /* \"#utility.yul\":20902:20907   */\n      dup2\n        /* \"#utility.yul\":20870:20908   */\n      tag_186\n      jump\t// in\n    tag_401:\n        /* \"#utility.yul\":20945:20967   */\n      tag_402\n        /* \"#utility.yul\":20963:20966   */\n      dup4\n        /* \"#utility.yul\":20945:20967   */\n      tag_187\n      jump\t// in\n    tag_402:\n        /* \"#utility.yul\":21004:21033   */\n      tag_403\n        /* \"#utility.yul\":21022:21032   */\n      dup6\n        /* \"#utility.yul\":21004:21033   */\n      tag_187\n      jump\t// in\n    tag_403:\n        /* \"#utility.yul\":21194:21196   */\n      0x20\n        /* \"#utility.yul\":21182:21192   */\n      dup7\n        /* \"#utility.yul\":21179:21197   */\n      lt\n        /* \"#utility.yul\":21176:21255   */\n      iszero\n      tag_404\n      jumpi\n        /* \"#utility.yul\":21236:21237   */\n      0x00\n        /* \"#utility.yul\":21220:21237   */\n      swap1\n      pop\n        /* \"#utility.yul\":21176:21255   */\n    tag_404:\n        /* \"#utility.yul\":21305:21317   */\n      dup1\n        /* \"#utility.yul\":21295:21303   */\n      dup4\n        /* \"#utility.yul\":21291:21318   */\n      add\n        /* \"#utility.yul\":21335:21409   */\n      tag_405\n        /* \"#utility.yul\":21395:21407   */\n      dup3\n        /* \"#utility.yul\":21381:21393   */\n      dup5\n        /* \"#utility.yul\":21377:21408   */\n      sub\n        /* \"#utility.yul\":21364:21375   */\n      dup3\n        /* \"#utility.yul\":21335:21409   */\n      tag_196\n      jump\t// in\n    tag_405:\n        /* \"#utility.yul\":20836:21423   */\n      pop\n      pop\n      pop\n      pop\n        /* \"#utility.yul\":20813:21423   */\n    tag_400:\n        /* \"#utility.yul\":20784:21433   */\n    tag_399:\n        /* \"#utility.yul\":20694:21440   */\n      pop\n      pop\n      pop\n      jump\t// out\n        /* \"#utility.yul\":21446:21563   */\n    tag_198:\n        /* \"#utility.yul\":21500:21508   */\n      0x00\n        /* \"#utility.yul\":21550:21555   */\n      dup3\n        /* \"#utility.yul\":21544:21548   */\n      dup3\n        /* \"#utility.yul\":21540:21556   */\n      shr\n        /* \"#utility.yul\":21519:21556   */\n      swap1\n      pop\n        /* \"#utility.yul\":21446:21563   */\n      swap3\n      swap2\n      pop\n      pop\n      jump\t// out\n        /* \"#utility.yul\":21569:21738   */\n    tag_199:\n        /* \"#utility.yul\":21613:21619   */\n      0x00\n        /* \"#utility.yul\":21646:21697   */\n      tag_408\n        /* \"#utility.yul\":21694:21695   */\n      0x00\n        /* \"#utility.yul\":21690:21696   */\n      not\n        /* \"#utility.yul\":21682:21687   */\n      dup5\n        /* \"#utility.yul\":21679:21680   */\n      0x08\n        /* \"#utility.yul\":21675:21688   */\n      mul\n        /* \"#utility.yul\":21646:21697   */\n      tag_198\n      jump\t// in\n    tag_408:\n        /* \"#utility.yul\":21642:21698   */\n      not\n        /* \"#utility.yul\":21727:21731   */\n      dup1\n        /* \"#utility.yul\":21721:21725   */\n      dup4\n        /* \"#utility.yul\":21717:21732   */\n      and\n        /* \"#utility.yul\":21707:21732   */\n      swap2\n      pop\n        /* \"#utility.yul\":21620:21738   */\n      pop\n        /* \"#utility.yul\":21569:21738   */\n      swap3\n      swap2\n      pop\n      pop\n      jump\t// out\n        /* \"#utility.yul\":21743:22038   */\n    tag_200:\n        /* \"#utility.yul\":21819:21823   */\n      0x00\n        /* \"#utility.yul\":21965:21994   */\n      tag_410\n        /* \"#utility.yul\":21990:21993   */\n      dup4\n        /* \"#utility.yul\":21984:21988   */\n      dup4\n        /* \"#utility.yul\":21965:21994   */\n      tag_199\n      jump\t// in\n    tag_410:\n        /* \"#utility.yul\":21957:21994   */\n      swap2\n      pop\n        /* \"#utility.yul\":22027:22030   */\n      dup3\n        /* \"#utility.yul\":22024:22025   */\n      0x02\n        /* \"#utility.yul\":22020:22031   */\n      mul\n        /* \"#utility.yul\":22014:22018   */\n      dup3\n        /* \"#utility.yul\":22011:22032   */\n      or\n        /* \"#utility.yul\":22003:22032   */\n      swap1\n      pop\n        /* \"#utility.yul\":21743:22038   */\n      swap3\n      swap2\n      pop\n      pop\n      jump\t// out\n        /* \"#utility.yul\":22043:23438   */\n    tag_82:\n        /* \"#utility.yul\":22160:22197   */\n      tag_412\n        /* \"#utility.yul\":22193:22196   */\n      dup3\n        /* \"#utility.yul\":22160:22197   */\n      tag_134\n      jump\t// in\n    tag_412:\n        /* \"#utility.yul\":22262:22280   */\n      0xffffffffffffffff\n        /* \"#utility.yul\":22254:22260   */\n      dup2\n        /* \"#utility.yul\":22251:22281   */\n      gt\n        /* \"#utility.yul\":22248:22304   */\n      iszero\n      tag_413\n      jumpi\n        /* \"#utility.yul\":22284:22302   */\n      tag_414\n      tag_154\n      jump\t// in\n    tag_414:\n        /* \"#utility.yul\":22248:22304   */\n    tag_413:\n        /* \"#utility.yul\":22328:22366   */\n      tag_415\n        /* \"#utility.yul\":22360:22364   */\n      dup3\n        /* \"#utility.yul\":22354:22365   */\n      sload\n        /* \"#utility.yul\":22328:22366   */\n      tag_50\n      jump\t// in\n    tag_415:\n        /* \"#utility.yul\":22413:22480   */\n      tag_416\n        /* \"#utility.yul\":22473:22479   */\n      dup3\n        /* \"#utility.yul\":22465:22471   */\n      dup3\n        /* \"#utility.yul\":22459:22463   */\n      dup6\n        /* \"#utility.yul\":22413:22480   */\n      tag_197\n      jump\t// in\n    tag_416:\n        /* \"#utility.yul\":22507:22508   */\n      0x00\n        /* \"#utility.yul\":22531:22535   */\n      0x20\n        /* \"#utility.yul\":22518:22535   */\n      swap1\n      pop\n        /* \"#utility.yul\":22563:22565   */\n      0x1f\n        /* \"#utility.yul\":22555:22561   */\n      dup4\n        /* \"#utility.yul\":22552:22566   */\n      gt\n        /* \"#utility.yul\":22580:22581   */\n      0x01\n        /* \"#utility.yul\":22575:23193   */\n      dup2\n      eq\n      tag_418\n      jumpi\n        /* \"#utility.yul\":23237:23238   */\n      0x00\n        /* \"#utility.yul\":23254:23260   */\n      dup5\n        /* \"#utility.yul\":23251:23328   */\n      iszero\n      tag_419\n      jumpi\n        /* \"#utility.yul\":23303:23312   */\n      dup3\n        /* \"#utility.yul\":23298:23301   */\n      dup8\n        /* \"#utility.yul\":23294:23313   */\n      add\n        /* \"#utility.yul\":23288:23314   */\n      mload\n        /* \"#utility.yul\":23279:23314   */\n      swap1\n      pop\n        /* \"#utility.yul\":23251:23328   */\n    tag_419:\n        /* \"#utility.yul\":23354:23421   */\n      tag_420\n        /* \"#utility.yul\":23414:23420   */\n      dup6\n        /* \"#utility.yul\":23407:23412   */\n      dup3\n        /* \"#utility.yul\":23354:23421   */\n      tag_200\n      jump\t// in\n    tag_420:\n        /* \"#utility.yul\":23348:23352   */\n      dup7\n        /* \"#utility.yul\":23341:23422   */\n      sstore\n        /* \"#utility.yul\":23210:23432   */\n      pop\n        /* \"#utility.yul\":22545:23432   */\n      jump(tag_417)\n        /* \"#utility.yul\":22575:23193   */\n    tag_418:\n        /* \"#utility.yul\":22627:22631   */\n      0x1f\n        /* \"#utility.yul\":22623:22632   */\n      not\n        /* \"#utility.yul\":22615:22621   */\n      dup5\n        /* \"#utility.yul\":22611:22633   */\n      and\n        /* \"#utility.yul\":22661:22698   */\n      tag_421\n        /* \"#utility.yul\":22693:22697   */\n      dup7\n        /* \"#utility.yul\":22661:22698   */\n      tag_186\n      jump\t// in\n    tag_421:\n        /* \"#utility.yul\":22720:22721   */\n      0x00\n        /* \"#utility.yul\":22734:22942   */\n    tag_422:\n        /* \"#utility.yul\":22748:22755   */\n      dup3\n        /* \"#utility.yul\":22745:22746   */\n      dup2\n        /* \"#utility.yul\":22742:22756   */\n      lt\n        /* \"#utility.yul\":22734:22942   */\n      iszero\n      tag_424\n      jumpi\n        /* \"#utility.yul\":22827:22836   */\n      dup5\n        /* \"#utility.yul\":22822:22825   */\n      dup10\n        /* \"#utility.yul\":22818:22837   */\n      add\n        /* \"#utility.yul\":22812:22838   */\n      mload\n        /* \"#utility.yul\":22804:22810   */\n      dup3\n        /* \"#utility.yul\":22797:22839   */\n      sstore\n        /* \"#utility.yul\":22878:22879   */\n      0x01\n        /* \"#utility.yul\":22870:22876   */\n      dup3\n        /* \"#utility.yul\":22866:22880   */\n      add\n        /* \"#utility.yul\":22856:22880   */\n      swap2\n      pop\n        /* \"#utility.yul\":22925:22927   */\n      0x20\n        /* \"#utility.yul\":22914:22923   */\n      dup6\n        /* \"#utility.yul\":22910:22928   */\n      add\n        /* \"#utility.yul\":22897:22928   */\n      swap5\n      pop\n        /* \"#utility.yul\":22771:22775   */\n      0x20\n        /* \"#utility.yul\":22768:22769   */\n      dup2\n        /* \"#utility.yul\":22764:22776   */\n      add\n        /* \"#utility.yul\":22759:22776   */\n      swap1\n      pop\n        /* \"#utility.yul\":22734:22942   */\n      jump(tag_422)\n    tag_424:\n        /* \"#utility.yul\":22970:22976   */\n      dup7\n        /* \"#utility.yul\":22961:22968   */\n      dup4\n        /* \"#utility.yul\":22958:22977   */\n      lt\n        /* \"#utility.yul\":22955:23134   */\n      iszero\n      tag_425\n      jumpi\n        /* \"#utility.yul\":23028:23037   */\n      dup5\n        /* \"#utility.yul\":23023:23026   */\n      dup10\n        /* \"#utility.yul\":23019:23038   */\n      add\n        /* \"#utility.yul\":23013:23039   */\n      mload\n        /* \"#utility.yul\":23071:23119   */\n      tag_426\n        /* \"#utility.yul\":23113:23117   */\n      0x1f\n        /* \"#utility.yul\":23105:23111   */\n      dup10\n        /* \"#utility.yul\":23101:23118   */\n      and\n        /* \"#utility.yul\":23090:23099   */\n      dup3\n        /* \"#utility.yul\":23071:23119   */\n      tag_199\n      jump\t// in\n    tag_426:\n        /* \"#utility.yul\":23063:23069   */\n      dup4\n        /* \"#utility.yul\":23056:23120   */\n      sstore\n        /* \"#utility.yul\":22978:23134   */\n      pop\n        /* \"#utility.yul\":22955:23134   */\n    tag_425:\n        /* \"#utility.yul\":23180:23181   */\n      0x01\n        /* \"#utility.yul\":23176:23177   */\n      0x02\n        /* \"#utility.yul\":23168:23174   */\n      dup9\n        /* \"#utility.yul\":23164:23178   */\n      mul\n        /* \"#utility.yul\":23160:23182   */\n      add\n        /* \"#utility.yul\":23154:23158   */\n      dup9\n        /* \"#utility.yul\":23147:23183   */\n      sstore\n        /* \"#utility.yul\":22582:23193   */\n      pop\n      pop\n      pop\n        /* \"#utility.yul\":22545:23432   */\n    tag_417:\n      pop\n        /* \"#utility.yul\":22135:23438   */\n      pop\n      pop\n      pop\n        /* \"#utility.yul\":22043:23438   */\n      pop\n      pop\n      jump\t// out\n        /* \"#utility.yul\":23444:23559   */\n    tag_201:\n        /* \"#utility.yul\":23529:23552   */\n      tag_428\n        /* \"#utility.yul\":23546:23551   */\n      dup2\n        /* \"#utility.yul\":23529:23552   */\n      tag_139\n      jump\t// in\n    tag_428:\n        /* \"#utility.yul\":23524:23527   */\n      dup3\n        /* \"#utility.yul\":23517:23553   */\n      mstore\n        /* \"#utility.yul\":23444:23559   */\n      pop\n      pop\n      jump\t// out\n        /* \"#utility.yul\":23565:24106   */\n    tag_89:\n        /* \"#utility.yul\":23736:23740   */\n      0x00\n        /* \"#utility.yul\":23774:23777   */\n      0x80\n        /* \"#utility.yul\":23763:23772   */\n      dup3\n        /* \"#utility.yul\":23759:23778   */\n      add\n        /* \"#utility.yul\":23751:23778   */\n      swap1\n      pop\n        /* \"#utility.yul\":23788:23855   */\n      tag_430\n        /* \"#utility.yul\":23852:23853   */\n      0x00\n        /* \"#utility.yul\":23841:23850   */\n      dup4\n        /* \"#utility.yul\":23837:23854   */\n      add\n        /* \"#utility.yul\":23828:23834   */\n      dup8\n        /* \"#utility.yul\":23788:23855   */\n      tag_183\n      jump\t// in\n    tag_430:\n        /* \"#utility.yul\":23865:23935   */\n      tag_431\n        /* \"#utility.yul\":23931:23933   */\n      0x20\n        /* \"#utility.yul\":23920:23929   */\n      dup4\n        /* \"#utility.yul\":23916:23934   */\n      add\n        /* \"#utility.yul\":23907:23913   */\n      dup7\n        /* \"#utility.yul\":23865:23935   */\n      tag_201\n      jump\t// in\n    tag_431:\n        /* \"#utility.yul\":23945:24017   */\n      tag_432\n        /* \"#utility.yul\":24013:24015   */\n      0x40\n        /* \"#utility.yul\":24002:24011   */\n      dup4\n        /* \"#utility.yul\":23998:24016   */\n      add\n        /* \"#utility.yul\":23989:23995   */\n      dup6\n        /* \"#utility.yul\":23945:24017   */\n      tag_173\n      jump\t// in\n    tag_432:\n        /* \"#utility.yul\":24027:24099   */\n      tag_433\n        /* \"#utility.yul\":24095:24097   */\n      0x60\n        /* \"#utility.yul\":24084:24093   */\n      dup4\n        /* \"#utility.yul\":24080:24098   */\n      add\n        /* \"#utility.yul\":24071:24077   */\n      dup5\n        /* \"#utility.yul\":24027:24099   */\n      tag_172\n      jump\t// in\n    tag_433:\n        /* \"#utility.yul\":23565:24106   */\n      swap6\n      swap5\n      pop\n      pop\n      pop\n      pop\n      pop\n      jump\t// out\n\n    auxdata: 0xa264697066735822122067c14c270d4e1056489819a4f0159c916f611b59cc793ba2f04b9f57dba8866564736f6c63430008220033\n}\n",
				"bytecode": {
					"linkReferences": {},
					"object": "608060405234801561000f575f5ffd5b50335f73ffffffffffffffffffffffffffffffffffffffff168173ffffffffffffffffffffffffffffffffffffffff1603610081575f6040517f1e4fbdf70000000000000000000000000000000000000000000000000000000081526004016100789190610196565b60405180910390fd5b6100908161009660201b60201c565b506101af565b5f5f5f9054906101000a900473ffffffffffffffffffffffffffffffffffffffff169050815f5f6101000a81548173ffffffffffffffffffffffffffffffffffffffff021916908373ffffffffffffffffffffffffffffffffffffffff1602179055508173ffffffffffffffffffffffffffffffffffffffff168173ffffffffffffffffffffffffffffffffffffffff167f8be0079c531659141344cd1fd0a4f28419497f9722a3daafe3b4186f6b6457e060405160405180910390a35050565b5f73ffffffffffffffffffffffffffffffffffffffff82169050919050565b5f61018082610157565b9050919050565b61019081610176565b82525050565b5f6020820190506101a95f830184610187565b92915050565b6119b2806101bc5f395ff3fe608060405234801561000f575f5ffd5b506004361061007b575f3560e01c8063715018a611610059578063715018a6146100e95780638da5cb5b146100f3578063c1be76d714610111578063f2fde38b1461012f5761007b565b806312670d4a1461007f5780636188f8511461009d57806368cfa2f9146100b9575b5f5ffd5b61008761014b565b6040516100949190610f7b565b60405180910390f35b6100b760048036038101906100b2919061112c565b6103b1565b005b6100d360048036038101906100ce91906111ed565b61081e565b6040516100e091906113a3565b60405180910390f35b6100f1610a77565b005b6100fb610a8a565b60405161010891906113d2565b60405180910390f35b610119610ab1565b60405161012691906113fa565b60405180910390f35b6101496004803603810190610144919061143d565b610abd565b005b610153610d6f565b5f60028054905003610191576040517f57dc5d4f00000000000000000000000000000000000000000000000000000000815260040160405180910390fd5b600260016002805490506101a59190611495565b815481106101b6576101b56114c8565b5b905f5260205f209060060201604051806101000160405290815f820180546101dd90611522565b80601f016020809104026020016040519081016040528092919081815260200182805461020990611522565b80156102545780601f1061022b57610100808354040283529160200191610254565b820191905f5260205f20905b81548152906001019060200180831161023757829003601f168201915b5050505050815260200160018201548152602001600282015f9054906101000a900460ff1660ff1660ff1681526020016002820160019054906101000a900460ff1660ff1660ff1681526020016002820160029054906101000a900460ff1660ff1660ff1681526020016003820180546102cd90611522565b80601f01602080910402602001604051908101604052809291908181526020018280546102f990611522565b80156103445780601f1061031b57610100808354040283529160200191610344565b820191905f5260205f20905b81548152906001019060200180831161032757829003601f168201915b5050505050815260200160048201548152602001600582015f9054906101000a900473ffffffffffffffffffffffffffffffffffffffff1673ffffffffffffffffffffffffffffffffffffffff1673ffffffffffffffffffffffffffffffffffffffff1681525050905090565b6103b9610b9c565b5f8651036103fc576040517f0e94c37e0000000000000000000000000000000000000000000000000000000081526004016103f3906115ac565b60405180910390fd5b5f81510361043f576040517f0e94c37e00000000000000000000000000000000000000000000000000000000815260040161043690611614565b60405180910390fd5b60648460ff16111561048857836040517faa67a8e700000000000000000000000000000000000000000000000000000000815260040161047f9190611641565b60405180910390fd5b60148360ff1611156104d157826040517fa8d761b00000000000000000000000000000000000000000000000000000000081526004016104c89190611641565b60405180910390fd5b60018260ff1610806104e6575060058260ff16115b1561052857816040517f9632db5100000000000000000000000000000000000000000000000000000000815260040161051f9190611641565b60405180910390fd5b5f6040518061010001604052808881526020018781526020018660ff1681526020018560ff1681526020018460ff1681526020018381526020014281526020013373ffffffffffffffffffffffffffffffffffffffff1681525090506001876040516105949190611694565b908152602001604051809103902081908060018154018082558091505060019003905f5260205f2090600602015f909190919091505f820151815f0190816105dc919061185b565b50602082015181600101556040820151816002015f6101000a81548160ff021916908360ff16021790555060608201518160020160016101000a81548160ff021916908360ff16021790555060808201518160020160026101000a81548160ff021916908360ff16021790555060a082015181600301908161065e919061185b565b5060c0820151816004015560e0820151816005015f6101000a81548173ffffffffffffffffffffffffffffffffffffffff021916908373ffffffffffffffffffffffffffffffffffffffff1602179055505050600281908060018154018082558091505060019003905f5260205f2090600602015f909190919091505f820151815f0190816106ed919061185b565b50602082015181600101556040820151816002015f6101000a81548160ff021916908360ff16021790555060608201518160020160016101000a81548160ff021916908360ff16021790555060808201518160020160026101000a81548160ff021916908360ff16021790555060a082015181600301908161076f919061185b565b5060c0820151816004015560e0820151816005015f6101000a81548173ffffffffffffffffffffffffffffffffffffffff021916908373ffffffffffffffffffffffffffffffffffffffff1602179055505050866040516107d09190611694565b60405180910390207f4314cb9ed0f3588d4307a46e2087ddf0b05e24ec4d4dda26b9ad01ae9d57d3228488423360405161080d9493929190611939565b60405180910390a250505050505050565b60606001826040516108309190611694565b9081526020016040518091039020805480602002602001604051908101604052809291908181526020015f905b82821015610a6c578382905f5260205f209060060201604051806101000160405290815f8201805461088e90611522565b80601f01602080910402602001604051908101604052809291908181526020018280546108ba90611522565b80156109055780601f106108dc57610100808354040283529160200191610905565b820191905f5260205f20905b8154815290600101906020018083116108e857829003601f168201915b5050505050815260200160018201548152602001600282015f9054906101000a900460ff1660ff1660ff1681526020016002820160019054906101000a900460ff1660ff1660ff1681526020016002820160029054906101000a900460ff1660ff1660ff16815260200160038201805461097e90611522565b80601f01602080910402602001604051908101604052809291908181526020018280546109aa90611522565b80156109f55780601f106109cc576101008083540402835291602001916109f5565b820191905f5260205f20905b8154815290600101906020018083116109d857829003601f168201915b5050505050815260200160048201548152602001600582015f9054906101000a900473ffffffffffffffffffffffffffffffffffffffff1673ffffffffffffffffffffffffffffffffffffffff1673ffffffffffffffffffffffffffffffffffffffff16815250508152602001906001019061085d565b505050509050919050565b610a7f610b9c565b610a885f610c23565b565b5f5f5f9054906101000a900473ffffffffffffffffffffffffffffffffffffffff16905090565b5f600280549050905090565b610ac5610b9c565b5f73ffffffffffffffffffffffffffffffffffffffff168173ffffffffffffffffffffffffffffffffffffffff1603610b2a576040517fd924e5f400000000000000000000000000000000000000000000000000000000815260040160405180910390fd5b5f610b33610a8a565b9050610b3e82610ce4565b8173ffffffffffffffffffffffffffffffffffffffff168173ffffffffffffffffffffffffffffffffffffffff167f7d46c44c679f20fcf2506fd685154a7fde7ba01a8538da8bfd1800b87c5d2dee60405160405180910390a35050565b610ba4610d68565b73ffffffffffffffffffffffffffffffffffffffff16610bc2610a8a565b73ffffffffffffffffffffffffffffffffffffffff1614610c2157610be5610d68565b6040517f118cdaa7000000000000000000000000000000000000000000000000000000008152600401610c1891906113d2565b60405180910390fd5b565b5f5f5f9054906101000a900473ffffffffffffffffffffffffffffffffffffffff169050815f5f6101000a81548173ffffffffffffffffffffffffffffffffffffffff021916908373ffffffffffffffffffffffffffffffffffffffff1602179055508173ffffffffffffffffffffffffffffffffffffffff168173ffffffffffffffffffffffffffffffffffffffff167f8be0079c531659141344cd1fd0a4f28419497f9722a3daafe3b4186f6b6457e060405160405180910390a35050565b610cec610b9c565b5f73ffffffffffffffffffffffffffffffffffffffff168173ffffffffffffffffffffffffffffffffffffffff1603610d5c575f6040517f1e4fbdf7000000000000000000000000000000000000000000000000000000008152600401610d5391906113d2565b60405180910390fd5b610d6581610c23565b50565b5f33905090565b604051806101000160405280606081526020015f81526020015f60ff1681526020015f60ff1681526020015f60ff168152602001606081526020015f81526020015f73ffffffffffffffffffffffffffffffffffffffff1681525090565b5f81519050919050565b5f82825260208201905092915050565b8281835e5f83830152505050565b5f601f19601f8301169050919050565b5f610e0f82610dcd565b610e198185610dd7565b9350610e29818560208601610de7565b610e3281610df5565b840191505092915050565b5f819050919050565b610e4f81610e3d565b82525050565b5f60ff82169050919050565b610e6a81610e55565b82525050565b5f819050919050565b610e8281610e70565b82525050565b5f73ffffffffffffffffffffffffffffffffffffffff82169050919050565b5f610eb182610e88565b9050919050565b610ec181610ea7565b82525050565b5f61010083015f8301518482035f860152610ee28282610e05565b9150506020830151610ef76020860182610e46565b506040830151610f0a6040860182610e61565b506060830151610f1d6060860182610e61565b506080830151610f306080860182610e61565b5060a083015184820360a0860152610f488282610e05565b91505060c0830151610f5d60c0860182610e79565b5060e0830151610f7060e0860182610eb8565b508091505092915050565b5f6020820190508181035f830152610f938184610ec7565b905092915050565b5f604051905090565b5f5ffd5b5f5ffd5b5f5ffd5b5f5ffd5b7f4e487b71000000000000000000000000000000000000000000000000000000005f52604160045260245ffd5b610fea82610df5565b810181811067ffffffffffffffff8211171561100957611008610fb4565b5b80604052505050565b5f61101b610f9b565b90506110278282610fe1565b919050565b5f67ffffffffffffffff82111561104657611045610fb4565b5b61104f82610df5565b9050602081019050919050565b828183375f83830152505050565b5f61107c6110778461102c565b611012565b90508281526020810184848401111561109857611097610fb0565b5b6110a384828561105c565b509392505050565b5f82601f8301126110bf576110be610fac565b5b81356110cf84826020860161106a565b91505092915050565b6110e181610e3d565b81146110eb575f5ffd5b50565b5f813590506110fc816110d8565b92915050565b61110b81610e55565b8114611115575f5ffd5b50565b5f8135905061112681611102565b92915050565b5f5f5f5f5f5f60c0878903121561114657611145610fa4565b5b5f87013567ffffffffffffffff81111561116357611162610fa8565b5b61116f89828a016110ab565b965050602061118089828a016110ee565b955050604061119189828a01611118565b94505060606111a289828a01611118565b93505060806111b389828a01611118565b92505060a087013567ffffffffffffffff8111156111d4576111d3610fa8565b5b6111e089828a016110ab565b9150509295509295509295565b5f6020828403121561120257611201610fa4565b5b5f82013567ffffffffffffffff81111561121f5761121e610fa8565b5b61122b848285016110ab565b91505092915050565b5f81519050919050565b5f82825260208201905092915050565b5f819050602082019050919050565b5f61010083015f8301518482035f8601526112788282610e05565b915050602083015161128d6020860182610e46565b5060408301516112a06040860182610e61565b5060608301516112b36060860182610e61565b5060808301516112c66080860182610e61565b5060a083015184820360a08601526112de8282610e05565b91505060c08301516112f360c0860182610e79565b5060e083015161130660e0860182610eb8565b508091505092915050565b5f61131c838361125d565b905092915050565b5f602082019050919050565b5f61133a82611234565b611344818561123e565b9350836020820285016113568561124e565b805f5b8581101561139157848403895281516113728582611311565b945061137d83611324565b925060208a01995050600181019050611359565b50829750879550505050505092915050565b5f6020820190508181035f8301526113bb8184611330565b905092915050565b6113cc81610ea7565b82525050565b5f6020820190506113e55f8301846113c3565b92915050565b6113f481610e70565b82525050565b5f60208201905061140d5f8301846113eb565b92915050565b61141c81610ea7565b8114611426575f5ffd5b50565b5f8135905061143781611413565b92915050565b5f6020828403121561145257611451610fa4565b5b5f61145f84828501611429565b91505092915050565b7f4e487b71000000000000000000000000000000000000000000000000000000005f52601160045260245ffd5b5f61149f82610e70565b91506114aa83610e70565b92508282039050818111156114c2576114c1611468565b5b92915050565b7f4e487b71000000000000000000000000000000000000000000000000000000005f52603260045260245ffd5b7f4e487b71000000000000000000000000000000000000000000000000000000005f52602260045260245ffd5b5f600282049050600182168061153957607f821691505b60208210810361154c5761154b6114f5565b5b50919050565b5f82825260208201905092915050565b7f63697479000000000000000000000000000000000000000000000000000000005f82015250565b5f611596600483611552565b91506115a182611562565b602082019050919050565b5f6020820190508181035f8301526115c38161158a565b9050919050565b7f73616665747941647669636500000000000000000000000000000000000000005f82015250565b5f6115fe600c83611552565b9150611609826115ca565b602082019050919050565b5f6020820190508181035f83015261162b816115f2565b9050919050565b61163b81610e55565b82525050565b5f6020820190506116545f830184611632565b92915050565b5f81905092915050565b5f61166e82610dcd565b611678818561165a565b9350611688818560208601610de7565b80840191505092915050565b5f61169f8284611664565b915081905092915050565b5f819050815f5260205f209050919050565b5f6020601f8301049050919050565b5f82821b905092915050565b5f600883026117067fffffffffffffffffffffffffffffffffffffffffffffffffffffffffffffffff826116cb565b61171086836116cb565b95508019841693508086168417925050509392505050565b5f819050919050565b5f61174b61174661174184610e70565b611728565b610e70565b9050919050565b5f819050919050565b61176483611731565b61177861177082611752565b8484546116d7565b825550505050565b5f5f905090565b61178f611780565b61179a81848461175b565b505050565b5f5b828110156117c0576117b55f828401611787565b6001810190506117a1565b505050565b601f8211156118135782821115611812576117df816116aa565b6117e8836116bc565b6117f1856116bc565b60208610156117fe575f90505b80830161180d8284038261179f565b505050505b5b505050565b5f82821c905092915050565b5f6118335f1984600802611818565b1980831691505092915050565b5f61184b8383611824565b9150826002028217905092915050565b61186482610dcd565b67ffffffffffffffff81111561187d5761187c610fb4565b5b6118878254611522565b6118928282856117c5565b5f60209050601f8311600181146118c3575f84156118b1578287015190505b6118bb8582611840565b865550611922565b601f1984166118d1866116aa565b5f5b828110156118f8578489015182556001820191506020850194506020810190506118d3565b868310156119155784890151611911601f891682611824565b8355505b6001600288020188555050505b505050505050565b61193381610e3d565b82525050565b5f60808201905061194c5f830187611632565b611959602083018661192a565b61196660408301856113eb565b61197360608301846113c3565b9594505050505056fea264697066735822122067c14c270d4e1056489819a4f0159c916f611b59cc793ba2f04b9f57dba8866564736f6c63430008220033",
					"opcodes": "PUSH1 0x80 PUSH1 0x40 MSTORE CALLVALUE DUP1 ISZERO PUSH2 0xF JUMPI PUSH0 PUSH0 REVERT JUMPDEST POP CALLER PUSH0 PUSH20 0xFFFFFFFFFFFFFFFFFFFFFFFFFFFFFFFFFFFFFFFF AND DUP2 PUSH20 0xFFFFFFFFFFFFFFFFFFFFFFFFFFFFFFFFFFFFFFFF AND SUB PUSH2 0x81 JUMPI PUSH0 PUSH1 0x40 MLOAD PUSH32 0x1E4FBDF700000000000000000000000000000000000000000000000000000000 DUP2 MSTORE PUSH1 0x4 ADD PUSH2 0x78 SWAP2 SWAP1 PUSH2 0x196 JUMP JUMPDEST PUSH1 0x40 MLOAD DUP1 SWAP2 SUB SWAP1 REVERT JUMPDEST PUSH2 0x90 DUP2 PUSH2 0x96 PUSH1 0x20 SHL PUSH1 0x20 SHR JUMP JUMPDEST POP PUSH2 0x1AF JUMP JUMPDEST PUSH0 PUSH0 PUSH0 SWAP1 SLOAD SWAP1 PUSH2 0x100 EXP SWAP1 DIV PUSH20 0xFFFFFFFFFFFFFFFFFFFFFFFFFFFFFFFFFFFFFFFF AND SWAP1 POP DUP2 PUSH0 PUSH0 PUSH2 0x100 EXP DUP2 SLOAD DUP2 PUSH20 0xFFFFFFFFFFFFFFFFFFFFFFFFFFFFFFFFFFFFFFFF MUL NOT AND SWAP1 DUP4 PUSH20 0xFFFFFFFFFFFFFFFFFFFFFFFFFFFFFFFFFFFFFFFF AND MUL OR SWAP1 SSTORE POP DUP2 PUSH20 0xFFFFFFFFFFFFFFFFFFFFFFFFFFFFFFFFFFFFFFFF AND DUP2 PUSH20 0xFFFFFFFFFFFFFFFFFFFFFFFFFFFFFFFFFFFFFFFF AND PUSH32 0x8BE0079C531659141344CD1FD0A4F28419497F9722A3DAAFE3B4186F6B6457E0 PUSH1 0x40 MLOAD PUSH1 0x40 MLOAD DUP1 SWAP2 SUB SWAP1 LOG3 POP POP JUMP JUMPDEST PUSH0 PUSH20 0xFFFFFFFFFFFFFFFFFFFFFFFFFFFFFFFFFFFFFFFF DUP3 AND SWAP1 POP SWAP2 SWAP1 POP JUMP JUMPDEST PUSH0 PUSH2 0x180 DUP3 PUSH2 0x157 JUMP JUMPDEST SWAP1 POP SWAP2 SWAP1 POP JUMP JUMPDEST PUSH2 0x190 DUP2 PUSH2 0x176 JUMP JUMPDEST DUP3 MSTORE POP POP JUMP JUMPDEST PUSH0 PUSH1 0x20 DUP3 ADD SWAP1 POP PUSH2 0x1A9 PUSH0 DUP4 ADD DUP5 PUSH2 0x187 JUMP JUMPDEST SWAP3 SWAP2 POP POP JUMP JUMPDEST PUSH2 0x19B2 DUP1 PUSH2 0x1BC PUSH0 CODECOPY PUSH0 RETURN INVALID PUSH1 0x80 PUSH1 0x40 MSTORE CALLVALUE DUP1 ISZERO PUSH2 0xF JUMPI PUSH0 PUSH0 REVERT JUMPDEST POP PUSH1 0x4 CALLDATASIZE LT PUSH2 0x7B JUMPI PUSH0 CALLDATALOAD PUSH1 0xE0 SHR DUP1 PUSH4 0x715018A6 GT PUSH2 0x59 JUMPI DUP1 PUSH4 0x715018A6 EQ PUSH2 0xE9 JUMPI DUP1 PUSH4 0x8DA5CB5B EQ PUSH2 0xF3 JUMPI DUP1 PUSH4 0xC1BE76D7 EQ PUSH2 0x111 JUMPI DUP1 PUSH4 0xF2FDE38B EQ PUSH2 0x12F JUMPI PUSH2 0x7B JUMP JUMPDEST DUP1 PUSH4 0x12670D4A EQ PUSH2 0x7F JUMPI DUP1 PUSH4 0x6188F851 EQ PUSH2 0x9D JUMPI DUP1 PUSH4 0x68CFA2F9 EQ PUSH2 0xB9 JUMPI JUMPDEST PUSH0 PUSH0 REVERT JUMPDEST PUSH2 0x87 PUSH2 0x14B JUMP JUMPDEST PUSH1 0x40 MLOAD PUSH2 0x94 SWAP2 SWAP1 PUSH2 0xF7B JUMP JUMPDEST PUSH1 0x40 MLOAD DUP1 SWAP2 SUB SWAP1 RETURN JUMPDEST PUSH2 0xB7 PUSH1 0x4 DUP1 CALLDATASIZE SUB DUP2 ADD SWAP1 PUSH2 0xB2 SWAP2 SWAP1 PUSH2 0x112C JUMP JUMPDEST PUSH2 0x3B1 JUMP JUMPDEST STOP JUMPDEST PUSH2 0xD3 PUSH1 0x4 DUP1 CALLDATASIZE SUB DUP2 ADD SWAP1 PUSH2 0xCE SWAP2 SWAP1 PUSH2 0x11ED JUMP JUMPDEST PUSH2 0x81E JUMP JUMPDEST PUSH1 0x40 MLOAD PUSH2 0xE0 SWAP2 SWAP1 PUSH2 0x13A3 JUMP JUMPDEST PUSH1 0x40 MLOAD DUP1 SWAP2 SUB SWAP1 RETURN JUMPDEST PUSH2 0xF1 PUSH2 0xA77 JUMP JUMPDEST STOP JUMPDEST PUSH2 0xFB PUSH2 0xA8A JUMP JUMPDEST PUSH1 0x40 MLOAD PUSH2 0x108 SWAP2 SWAP1 PUSH2 0x13D2 JUMP JUMPDEST PUSH1 0x40 MLOAD DUP1 SWAP2 SUB SWAP1 RETURN JUMPDEST PUSH2 0x119 PUSH2 0xAB1 JUMP JUMPDEST PUSH1 0x40 MLOAD PUSH2 0x126 SWAP2 SWAP1 PUSH2 0x13FA JUMP JUMPDEST PUSH1 0x40 MLOAD DUP1 SWAP2 SUB SWAP1 RETURN JUMPDEST PUSH2 0x149 PUSH1 0x4 DUP1 CALLDATASIZE SUB DUP2 ADD SWAP1 PUSH2 0x144 SWAP2 SWAP1 PUSH2 0x143D JUMP JUMPDEST PUSH2 0xABD JUMP JUMPDEST STOP JUMPDEST PUSH2 0x153 PUSH2 0xD6F JUMP JUMPDEST PUSH0 PUSH1 0x2 DUP1 SLOAD SWAP1 POP SUB PUSH2 0x191 JUMPI PUSH1 0x40 MLOAD PUSH32 0x57DC5D4F00000000000000000000000000000000000000000000000000000000 DUP2 MSTORE PUSH1 0x4 ADD PUSH1 0x40 MLOAD DUP1 SWAP2 SUB SWAP1 REVERT JUMPDEST PUSH1 0x2 PUSH1 0x1 PUSH1 0x2 DUP1 SLOAD SWAP1 POP PUSH2 0x1A5 SWAP2 SWAP1 PUSH2 0x1495 JUMP JUMPDEST DUP2 SLOAD DUP2 LT PUSH2 0x1B6 JUMPI PUSH2 0x1B5 PUSH2 0x14C8 JUMP JUMPDEST JUMPDEST SWAP1 PUSH0 MSTORE PUSH1 0x20 PUSH0 KECCAK256 SWAP1 PUSH1 0x6 MUL ADD PUSH1 0x40 MLOAD DUP1 PUSH2 0x100 ADD PUSH1 0x40 MSTORE SWAP1 DUP2 PUSH0 DUP3 ADD DUP1 SLOAD PUSH2 0x1DD SWAP1 PUSH2 0x1522 JUMP JUMPDEST DUP1 PUSH1 0x1F ADD PUSH1 0x20 DUP1 SWAP2 DIV MUL PUSH1 0x20 ADD PUSH1 0x40 MLOAD SWAP1 DUP2 ADD PUSH1 0x40 MSTORE DUP1 SWAP3 SWAP2 SWAP1 DUP2 DUP2 MSTORE PUSH1 0x20 ADD DUP3 DUP1 SLOAD PUSH2 0x209 SWAP1 PUSH2 0x1522 JUMP JUMPDEST DUP1 ISZERO PUSH2 0x254 JUMPI DUP1 PUSH1 0x1F LT PUSH2 0x22B JUMPI PUSH2 0x100 DUP1 DUP4 SLOAD DIV MUL DUP4 MSTORE SWAP2 PUSH1 0x20 ADD SWAP2 PUSH2 0x254 JUMP JUMPDEST DUP3 ADD SWAP2 SWAP1 PUSH0 MSTORE PUSH1 0x20 PUSH0 KECCAK256 SWAP1 JUMPDEST DUP2 SLOAD DUP2 MSTORE SWAP1 PUSH1 0x1 ADD SWAP1 PUSH1 0x20 ADD DUP1 DUP4 GT PUSH2 0x237 JUMPI DUP3 SWAP1 SUB PUSH1 0x1F AND DUP3 ADD SWAP2 JUMPDEST POP POP POP POP POP DUP2 MSTORE PUSH1 0x20 ADD PUSH1 0x1 DUP3 ADD SLOAD DUP2 MSTORE PUSH1 0x20 ADD PUSH1 0x2 DUP3 ADD PUSH0 SWAP1 SLOAD SWAP1 PUSH2 0x100 EXP SWAP1 DIV PUSH1 0xFF AND PUSH1 0xFF AND PUSH1 0xFF AND DUP2 MSTORE PUSH1 0x20 ADD PUSH1 0x2 DUP3 ADD PUSH1 0x1 SWAP1 SLOAD SWAP1 PUSH2 0x100 EXP SWAP1 DIV PUSH1 0xFF AND PUSH1 0xFF AND PUSH1 0xFF AND DUP2 MSTORE PUSH1 0x20 ADD PUSH1 0x2 DUP3 ADD PUSH1 0x2 SWAP1 SLOAD SWAP1 PUSH2 0x100 EXP SWAP1 DIV PUSH1 0xFF AND PUSH1 0xFF AND PUSH1 0xFF AND DUP2 MSTORE PUSH1 0x20 ADD PUSH1 0x3 DUP3 ADD DUP1 SLOAD PUSH2 0x2CD SWAP1 PUSH2 0x1522 JUMP JUMPDEST DUP1 PUSH1 0x1F ADD PUSH1 0x20 DUP1 SWAP2 DIV MUL PUSH1 0x20 ADD PUSH1 0x40 MLOAD SWAP1 DUP2 ADD PUSH1 0x40 MSTORE DUP1 SWAP3 SWAP2 SWAP1 DUP2 DUP2 MSTORE PUSH1 0x20 ADD DUP3 DUP1 SLOAD PUSH2 0x2F9 SWAP1 PUSH2 0x1522 JUMP JUMPDEST DUP1 ISZERO PUSH2 0x344 JUMPI DUP1 PUSH1 0x1F LT PUSH2 0x31B JUMPI PUSH2 0x100 DUP1 DUP4 SLOAD DIV MUL DUP4 MSTORE SWAP2 PUSH1 0x20 ADD SWAP2 PUSH2 0x344 JUMP JUMPDEST DUP3 ADD SWAP2 SWAP1 PUSH0 MSTORE PUSH1 0x20 PUSH0 KECCAK256 SWAP1 JUMPDEST DUP2 SLOAD DUP2 MSTORE SWAP1 PUSH1 0x1 ADD SWAP1 PUSH1 0x20 ADD DUP1 DUP4 GT PUSH2 0x327 JUMPI DUP3 SWAP1 SUB PUSH1 0x1F AND DUP3 ADD SWAP2 JUMPDEST POP POP POP POP POP DUP2 MSTORE PUSH1 0x20 ADD PUSH1 0x4 DUP3 ADD SLOAD DUP2 MSTORE PUSH1 0x20 ADD PUSH1 0x5 DUP3 ADD PUSH0 SWAP1 SLOAD SWAP1 PUSH2 0x100 EXP SWAP1 DIV PUSH20 0xFFFFFFFFFFFFFFFFFFFFFFFFFFFFFFFFFFFFFFFF AND PUSH20 0xFFFFFFFFFFFFFFFFFFFFFFFFFFFFFFFFFFFFFFFF AND PUSH20 0xFFFFFFFFFFFFFFFFFFFFFFFFFFFFFFFFFFFFFFFF AND DUP2 MSTORE POP POP SWAP1 POP SWAP1 JUMP JUMPDEST PUSH2 0x3B9 PUSH2 0xB9C JUMP JUMPDEST PUSH0 DUP7 MLOAD SUB PUSH2 0x3FC JUMPI PUSH1 0x40 MLOAD PUSH32 0xE94C37E00000000000000000000000000000000000000000000000000000000 DUP2 MSTORE PUSH1 0x4 ADD PUSH2 0x3F3 SWAP1 PUSH2 0x15AC JUMP JUMPDEST PUSH1 0x40 MLOAD DUP1 SWAP2 SUB SWAP1 REVERT JUMPDEST PUSH0 DUP2 MLOAD SUB PUSH2 0x43F JUMPI PUSH1 0x40 MLOAD PUSH32 0xE94C37E00000000000000000000000000000000000000000000000000000000 DUP2 MSTORE PUSH1 0x4 ADD PUSH2 0x436 SWAP1 PUSH2 0x1614 JUMP JUMPDEST PUSH1 0x40 MLOAD DUP1 SWAP2 SUB SWAP1 REVERT JUMPDEST PUSH1 0x64 DUP5 PUSH1 0xFF AND GT ISZERO PUSH2 0x488 JUMPI DUP4 PUSH1 0x40 MLOAD PUSH32 0xAA67A8E700000000000000000000000000000000000000000000000000000000 DUP2 MSTORE PUSH1 0x4 ADD PUSH2 0x47F SWAP2 SWAP1 PUSH2 0x1641 JUMP JUMPDEST PUSH1 0x40 MLOAD DUP1 SWAP2 SUB SWAP1 REVERT JUMPDEST PUSH1 0x14 DUP4 PUSH1 0xFF AND GT ISZERO PUSH2 0x4D1 JUMPI DUP3 PUSH1 0x40 MLOAD PUSH32 0xA8D761B000000000000000000000000000000000000000000000000000000000 DUP2 MSTORE PUSH1 0x4 ADD PUSH2 0x4C8 SWAP2 SWAP1 PUSH2 0x1641 JUMP JUMPDEST PUSH1 0x40 MLOAD DUP1 SWAP2 SUB SWAP1 REVERT JUMPDEST PUSH1 0x1 DUP3 PUSH1 0xFF AND LT DUP1 PUSH2 0x4E6 JUMPI POP PUSH1 0x5 DUP3 PUSH1 0xFF AND GT JUMPDEST ISZERO PUSH2 0x528 JUMPI DUP2 PUSH1 0x40 MLOAD PUSH32 0x9632DB5100000000000000000000000000000000000000000000000000000000 DUP2 MSTORE PUSH1 0x4 ADD PUSH2 0x51F SWAP2 SWAP1 PUSH2 0x1641 JUMP JUMPDEST PUSH1 0x40 MLOAD DUP1 SWAP2 SUB SWAP1 REVERT JUMPDEST PUSH0 PUSH1 0x40 MLOAD DUP1 PUSH2 0x100 ADD PUSH1 0x40 MSTORE DUP1 DUP9 DUP2 MSTORE PUSH1 0x20 ADD DUP8 DUP2 MSTORE PUSH1 0x20 ADD DUP7 PUSH1 0xFF AND DUP2 MSTORE PUSH1 0x20 ADD DUP6 PUSH1 0xFF AND DUP2 MSTORE PUSH1 0x20 ADD DUP5 PUSH1 0xFF AND DUP2 MSTORE PUSH1 0x20 ADD DUP4 DUP2 MSTORE PUSH1 0x20 ADD TIMESTAMP DUP2 MSTORE PUSH1 0x20 ADD CALLER PUSH20 0xFFFFFFFFFFFFFFFFFFFFFFFFFFFFFFFFFFFFFFFF AND DUP2 MSTORE POP SWAP1 POP PUSH1 0x1 DUP8 PUSH1 0x40 MLOAD PUSH2 0x594 SWAP2 SWAP1 PUSH2 0x1694 JUMP JUMPDEST SWAP1 DUP2 MSTORE PUSH1 0x20 ADD PUSH1 0x40 MLOAD DUP1 SWAP2 SUB SWAP1 KECCAK256 DUP2 SWAP1 DUP1 PUSH1 0x1 DUP2 SLOAD ADD DUP1 DUP3 SSTORE DUP1 SWAP2 POP POP PUSH1 0x1 SWAP1 SUB SWAP1 PUSH0 MSTORE PUSH1 0x20 PUSH0 KECCAK256 SWAP1 PUSH1 0x6 MUL ADD PUSH0 SWAP1 SWAP2 SWAP1 SWAP2 SWAP1 SWAP2 POP PUSH0 DUP3 ADD MLOAD DUP2 PUSH0 ADD SWAP1 DUP2 PUSH2 0x5DC SWAP2 SWAP1 PUSH2 0x185B JUMP JUMPDEST POP PUSH1 0x20 DUP3 ADD MLOAD DUP2 PUSH1 0x1 ADD SSTORE PUSH1 0x40 DUP3 ADD MLOAD DUP2 PUSH1 0x2 ADD PUSH0 PUSH2 0x100 EXP DUP2 SLOAD DUP2 PUSH1 0xFF MUL NOT AND SWAP1 DUP4 PUSH1 0xFF AND MUL OR SWAP1 SSTORE POP PUSH1 0x60 DUP3 ADD MLOAD DUP2 PUSH1 0x2 ADD PUSH1 0x1 PUSH2 0x100 EXP DUP2 SLOAD DUP2 PUSH1 0xFF MUL NOT AND SWAP1 DUP4 PUSH1 0xFF AND MUL OR SWAP1 SSTORE POP PUSH1 0x80 DUP3 ADD MLOAD DUP2 PUSH1 0x2 ADD PUSH1 0x2 PUSH2 0x100 EXP DUP2 SLOAD DUP2 PUSH1 0xFF MUL NOT AND SWAP1 DUP4 PUSH1 0xFF AND MUL OR SWAP1 SSTORE POP PUSH1 0xA0 DUP3 ADD MLOAD DUP2 PUSH1 0x3 ADD SWAP1 DUP2 PUSH2 0x65E SWAP2 SWAP1 PUSH2 0x185B JUMP JUMPDEST POP PUSH1 0xC0 DUP3 ADD MLOAD DUP2 PUSH1 0x4 ADD SSTORE PUSH1 0xE0 DUP3 ADD MLOAD DUP2 PUSH1 0x5 ADD PUSH0 PUSH2 0x100 EXP DUP2 SLOAD DUP2 PUSH20 0xFFFFFFFFFFFFFFFFFFFFFFFFFFFFFFFFFFFFFFFF MUL NOT AND SWAP1 DUP4 PUSH20 0xFFFFFFFFFFFFFFFFFFFFFFFFFFFFFFFFFFFFFFFF AND MUL OR SWAP1 SSTORE POP POP POP PUSH1 0x2 DUP2 SWAP1 DUP1 PUSH1 0x1 DUP2 SLOAD ADD DUP1 DUP3 SSTORE DUP1 SWAP2 POP POP PUSH1 0x1 SWAP1 SUB SWAP1 PUSH0 MSTORE PUSH1 0x20 PUSH0 KECCAK256 SWAP1 PUSH1 0x6 MUL ADD PUSH0 SWAP1 SWAP2 SWAP1 SWAP2 SWAP1 SWAP2 POP PUSH0 DUP3 ADD MLOAD DUP2 PUSH0 ADD SWAP1 DUP2 PUSH2 0x6ED SWAP2 SWAP1 PUSH2 0x185B JUMP JUMPDEST POP PUSH1 0x20 DUP3 ADD MLOAD DUP2 PUSH1 0x1 ADD SSTORE PUSH1 0x40 DUP3 ADD MLOAD DUP2 PUSH1 0x2 ADD PUSH0 PUSH2 0x100 EXP DUP2 SLOAD DUP2 PUSH1 0xFF MUL NOT AND SWAP1 DUP4 PUSH1 0xFF AND MUL OR SWAP1 SSTORE POP PUSH1 0x60 DUP3 ADD MLOAD DUP2 PUSH1 0x2 ADD PUSH1 0x1 PUSH2 0x100 EXP DUP2 SLOAD DUP2 PUSH1 0xFF MUL NOT AND SWAP1 DUP4 PUSH1 0xFF AND MUL OR SWAP1 SSTORE POP PUSH1 0x80 DUP3 ADD MLOAD DUP2 PUSH1 0x2 ADD PUSH1 0x2 PUSH2 0x100 EXP DUP2 SLOAD DUP2 PUSH1 0xFF MUL NOT AND SWAP1 DUP4 PUSH1 0xFF AND MUL OR SWAP1 SSTORE POP PUSH1 0xA0 DUP3 ADD MLOAD DUP2 PUSH1 0x3 ADD SWAP1 DUP2 PUSH2 0x76F SWAP2 SWAP1 PUSH2 0x185B JUMP JUMPDEST POP PUSH1 0xC0 DUP3 ADD MLOAD DUP2 PUSH1 0x4 ADD SSTORE PUSH1 0xE0 DUP3 ADD MLOAD DUP2 PUSH1 0x5 ADD PUSH0 PUSH2 0x100 EXP DUP2 SLOAD DUP2 PUSH20 0xFFFFFFFFFFFFFFFFFFFFFFFFFFFFFFFFFFFFFFFF MUL NOT AND SWAP1 DUP4 PUSH20 0xFFFFFFFFFFFFFFFFFFFFFFFFFFFFFFFFFFFFFFFF AND MUL OR SWAP1 SSTORE POP POP POP DUP7 PUSH1 0x40 MLOAD PUSH2 0x7D0 SWAP2 SWAP1 PUSH2 0x1694 JUMP JUMPDEST PUSH1 0x40 MLOAD DUP1 SWAP2 SUB SWAP1 KECCAK256 PUSH32 0x4314CB9ED0F3588D4307A46E2087DDF0B05E24EC4D4DDA26B9AD01AE9D57D322 DUP5 DUP9 TIMESTAMP CALLER PUSH1 0x40 MLOAD PUSH2 0x80D SWAP5 SWAP4 SWAP3 SWAP2 SWAP1 PUSH2 0x1939 JUMP JUMPDEST PUSH1 0x40 MLOAD DUP1 SWAP2 SUB SWAP1 LOG2 POP POP POP POP POP POP POP JUMP JUMPDEST PUSH1 0x60 PUSH1 0x1 DUP3 PUSH1 0x40 MLOAD PUSH2 0x830 SWAP2 SWAP1 PUSH2 0x1694 JUMP JUMPDEST SWAP1 DUP2 MSTORE PUSH1 0x20 ADD PUSH1 0x40 MLOAD DUP1 SWAP2 SUB SWAP1 KECCAK256 DUP1 SLOAD DUP1 PUSH1 0x20 MUL PUSH1 0x20 ADD PUSH1 0x40 MLOAD SWAP1 DUP2 ADD PUSH1 0x40 MSTORE DUP1 SWAP3 SWAP2 SWAP1 DUP2 DUP2 MSTORE PUSH1 0x20 ADD PUSH0 SWAP1 JUMPDEST DUP3 DUP3 LT ISZERO PUSH2 0xA6C JUMPI DUP4 DUP3 SWAP1 PUSH0 MSTORE PUSH1 0x20 PUSH0 KECCAK256 SWAP1 PUSH1 0x6 MUL ADD PUSH1 0x40 MLOAD DUP1 PUSH2 0x100 ADD PUSH1 0x40 MSTORE SWAP1 DUP2 PUSH0 DUP3 ADD DUP1 SLOAD PUSH2 0x88E SWAP1 PUSH2 0x1522 JUMP JUMPDEST DUP1 PUSH1 0x1F ADD PUSH1 0x20 DUP1 SWAP2 DIV MUL PUSH1 0x20 ADD PUSH1 0x40 MLOAD SWAP1 DUP2 ADD PUSH1 0x40 MSTORE DUP1 SWAP3 SWAP2 SWAP1 DUP2 DUP2 MSTORE PUSH1 0x20 ADD DUP3 DUP1 SLOAD PUSH2 0x8BA SWAP1 PUSH2 0x1522 JUMP JUMPDEST DUP1 ISZERO PUSH2 0x905 JUMPI DUP1 PUSH1 0x1F LT PUSH2 0x8DC JUMPI PUSH2 0x100 DUP1 DUP4 SLOAD DIV MUL DUP4 MSTORE SWAP2 PUSH1 0x20 ADD SWAP2 PUSH2 0x905 JUMP JUMPDEST DUP3 ADD SWAP2 SWAP1 PUSH0 MSTORE PUSH1 0x20 PUSH0 KECCAK256 SWAP1 JUMPDEST DUP2 SLOAD DUP2 MSTORE SWAP1 PUSH1 0x1 ADD SWAP1 PUSH1 0x20 ADD DUP1 DUP4 GT PUSH2 0x8E8 JUMPI DUP3 SWAP1 SUB PUSH1 0x1F AND DUP3 ADD SWAP2 JUMPDEST POP POP POP POP POP DUP2 MSTORE PUSH1 0x20 ADD PUSH1 0x1 DUP3 ADD SLOAD DUP2 MSTORE PUSH1 0x20 ADD PUSH1 0x2 DUP3 ADD PUSH0 SWAP1 SLOAD SWAP1 PUSH2 0x100 EXP SWAP1 DIV PUSH1 0xFF AND PUSH1 0xFF AND PUSH1 0xFF AND DUP2 MSTORE PUSH1 0x20 ADD PUSH1 0x2 DUP3 ADD PUSH1 0x1 SWAP1 SLOAD SWAP1 PUSH2 0x100 EXP SWAP1 DIV PUSH1 0xFF AND PUSH1 0xFF AND PUSH1 0xFF AND DUP2 MSTORE PUSH1 0x20 ADD PUSH1 0x2 DUP3 ADD PUSH1 0x2 SWAP1 SLOAD SWAP1 PUSH2 0x100 EXP SWAP1 DIV PUSH1 0xFF AND PUSH1 0xFF AND PUSH1 0xFF AND DUP2 MSTORE PUSH1 0x20 ADD PUSH1 0x3 DUP3 ADD DUP1 SLOAD PUSH2 0x97E SWAP1 PUSH2 0x1522 JUMP JUMPDEST DUP1 PUSH1 0x1F ADD PUSH1 0x20 DUP1 SWAP2 DIV MUL PUSH1 0x20 ADD PUSH1 0x40 MLOAD SWAP1 DUP2 ADD PUSH1 0x40 MSTORE DUP1 SWAP3 SWAP2 SWAP1 DUP2 DUP2 MSTORE PUSH1 0x20 ADD DUP3 DUP1 SLOAD PUSH2 0x9AA SWAP1 PUSH2 0x1522 JUMP JUMPDEST DUP1 ISZERO PUSH2 0x9F5 JUMPI DUP1 PUSH1 0x1F LT PUSH2 0x9CC JUMPI PUSH2 0x100 DUP1 DUP4 SLOAD DIV MUL DUP4 MSTORE SWAP2 PUSH1 0x20 ADD SWAP2 PUSH2 0x9F5 JUMP JUMPDEST DUP3 ADD SWAP2 SWAP1 PUSH0 MSTORE PUSH1 0x20 PUSH0 KECCAK256 SWAP1 JUMPDEST DUP2 SLOAD DUP2 MSTORE SWAP1 PUSH1 0x1 ADD SWAP1 PUSH1 0x20 ADD DUP1 DUP4 GT PUSH2 0x9D8 JUMPI DUP3 SWAP1 SUB PUSH1 0x1F AND DUP3 ADD SWAP2 JUMPDEST POP POP POP POP POP DUP2 MSTORE PUSH1 0x20 ADD PUSH1 0x4 DUP3 ADD SLOAD DUP2 MSTORE PUSH1 0x20 ADD PUSH1 0x5 DUP3 ADD PUSH0 SWAP1 SLOAD SWAP1 PUSH2 0x100 EXP SWAP1 DIV PUSH20 0xFFFFFFFFFFFFFFFFFFFFFFFFFFFFFFFFFFFFFFFF AND PUSH20 0xFFFFFFFFFFFFFFFFFFFFFFFFFFFFFFFFFFFFFFFF AND PUSH20 0xFFFFFFFFFFFFFFFFFFFFFFFFFFFFFFFFFFFFFFFF AND DUP2 MSTORE POP POP DUP2 MSTORE PUSH1 0x20 ADD SWAP1 PUSH1 0x1 ADD SWAP1 PUSH2 0x85D JUMP JUMPDEST POP POP POP POP SWAP1 POP SWAP2 SWAP1 POP JUMP JUMPDEST PUSH2 0xA7F PUSH2 0xB9C JUMP JUMPDEST PUSH2 0xA88 PUSH0 PUSH2 0xC23 JUMP JUMPDEST JUMP JUMPDEST PUSH0 PUSH0 PUSH0 SWAP1 SLOAD SWAP1 PUSH2 0x100 EXP SWAP1 DIV PUSH20 0xFFFFFFFFFFFFFFFFFFFFFFFFFFFFFFFFFFFFFFFF AND SWAP1 POP SWAP1 JUMP JUMPDEST PUSH0 PUSH1 0x2 DUP1 SLOAD SWAP1 POP SWAP1 POP SWAP1 JUMP JUMPDEST PUSH2 0xAC5 PUSH2 0xB9C JUMP JUMPDEST PUSH0 PUSH20 0xFFFFFFFFFFFFFFFFFFFFFFFFFFFFFFFFFFFFFFFF AND DUP2 PUSH20 0xFFFFFFFFFFFFFFFFFFFFFFFFFFFFFFFFFFFFFFFF AND SUB PUSH2 0xB2A JUMPI PUSH1 0x40 MLOAD PUSH32 0xD924E5F400000000000000000000000000000000000000000000000000000000 DUP2 MSTORE PUSH1 0x4 ADD PUSH1 0x40 MLOAD DUP1 SWAP2 SUB SWAP1 REVERT JUMPDEST PUSH0 PUSH2 0xB33 PUSH2 0xA8A JUMP JUMPDEST SWAP1 POP PUSH2 0xB3E DUP3 PUSH2 0xCE4 JUMP JUMPDEST DUP2 PUSH20 0xFFFFFFFFFFFFFFFFFFFFFFFFFFFFFFFFFFFFFFFF AND DUP2 PUSH20 0xFFFFFFFFFFFFFFFFFFFFFFFFFFFFFFFFFFFFFFFF AND PUSH32 0x7D46C44C679F20FCF2506FD685154A7FDE7BA01A8538DA8BFD1800B87C5D2DEE PUSH1 0x40 MLOAD PUSH1 0x40 MLOAD DUP1 SWAP2 SUB SWAP1 LOG3 POP POP JUMP JUMPDEST PUSH2 0xBA4 PUSH2 0xD68 JUMP JUMPDEST PUSH20 0xFFFFFFFFFFFFFFFFFFFFFFFFFFFFFFFFFFFFFFFF AND PUSH2 0xBC2 PUSH2 0xA8A JUMP JUMPDEST PUSH20 0xFFFFFFFFFFFFFFFFFFFFFFFFFFFFFFFFFFFFFFFF AND EQ PUSH2 0xC21 JUMPI PUSH2 0xBE5 PUSH2 0xD68 JUMP JUMPDEST PUSH1 0x40 MLOAD PUSH32 0x118CDAA700000000000000000000000000000000000000000000000000000000 DUP2 MSTORE PUSH1 0x4 ADD PUSH2 0xC18 SWAP2 SWAP1 PUSH2 0x13D2 JUMP JUMPDEST PUSH1 0x40 MLOAD DUP1 SWAP2 SUB SWAP1 REVERT JUMPDEST JUMP JUMPDEST PUSH0 PUSH0 PUSH0 SWAP1 SLOAD SWAP1 PUSH2 0x100 EXP SWAP1 DIV PUSH20 0xFFFFFFFFFFFFFFFFFFFFFFFFFFFFFFFFFFFFFFFF AND SWAP1 POP DUP2 PUSH0 PUSH0 PUSH2 0x100 EXP DUP2 SLOAD DUP2 PUSH20 0xFFFFFFFFFFFFFFFFFFFFFFFFFFFFFFFFFFFFFFFF MUL NOT AND SWAP1 DUP4 PUSH20 0xFFFFFFFFFFFFFFFFFFFFFFFFFFFFFFFFFFFFFFFF AND MUL OR SWAP1 SSTORE POP DUP2 PUSH20 0xFFFFFFFFFFFFFFFFFFFFFFFFFFFFFFFFFFFFFFFF AND DUP2 PUSH20 0xFFFFFFFFFFFFFFFFFFFFFFFFFFFFFFFFFFFFFFFF AND PUSH32 0x8BE0079C531659141344CD1FD0A4F28419497F9722A3DAAFE3B4186F6B6457E0 PUSH1 0x40 MLOAD PUSH1 0x40 MLOAD DUP1 SWAP2 SUB SWAP1 LOG3 POP POP JUMP JUMPDEST PUSH2 0xCEC PUSH2 0xB9C JUMP JUMPDEST PUSH0 PUSH20 0xFFFFFFFFFFFFFFFFFFFFFFFFFFFFFFFFFFFFFFFF AND DUP2 PUSH20 0xFFFFFFFFFFFFFFFFFFFFFFFFFFFFFFFFFFFFFFFF AND SUB PUSH2 0xD5C JUMPI PUSH0 PUSH1 0x40 MLOAD PUSH32 0x1E4FBDF700000000000000000000000000000000000000000000000000000000 DUP2 MSTORE PUSH1 0x4 ADD PUSH2 0xD53 SWAP2 SWAP1 PUSH2 0x13D2 JUMP JUMPDEST PUSH1 0x40 MLOAD DUP1 SWAP2 SUB SWAP1 REVERT JUMPDEST PUSH2 0xD65 DUP2 PUSH2 0xC23 JUMP JUMPDEST POP JUMP JUMPDEST PUSH0 CALLER SWAP1 POP SWAP1 JUMP JUMPDEST PUSH1 0x40 MLOAD DUP1 PUSH2 0x100 ADD PUSH1 0x40 MSTORE DUP1 PUSH1 0x60 DUP2 MSTORE PUSH1 0x20 ADD PUSH0 DUP2 MSTORE PUSH1 0x20 ADD PUSH0 PUSH1 0xFF AND DUP2 MSTORE PUSH1 0x20 ADD PUSH0 PUSH1 0xFF AND DUP2 MSTORE PUSH1 0x20 ADD PUSH0 PUSH1 0xFF AND DUP2 MSTORE PUSH1 0x20 ADD PUSH1 0x60 DUP2 MSTORE PUSH1 0x20 ADD PUSH0 DUP2 MSTORE PUSH1 0x20 ADD PUSH0 PUSH20 0xFFFFFFFFFFFFFFFFFFFFFFFFFFFFFFFFFFFFFFFF AND DUP2 MSTORE POP SWAP1 JUMP JUMPDEST PUSH0 DUP2 MLOAD SWAP1 POP SWAP2 SWAP1 POP JUMP JUMPDEST PUSH0 DUP3 DUP3 MSTORE PUSH1 0x20 DUP3 ADD SWAP1 POP SWAP3 SWAP2 POP POP JUMP JUMPDEST DUP3 DUP2 DUP4 MCOPY PUSH0 DUP4 DUP4 ADD MSTORE POP POP POP JUMP JUMPDEST PUSH0 PUSH1 0x1F NOT PUSH1 0x1F DUP4 ADD AND SWAP1 POP SWAP2 SWAP1 POP JUMP JUMPDEST PUSH0 PUSH2 0xE0F DUP3 PUSH2 0xDCD JUMP JUMPDEST PUSH2 0xE19 DUP2 DUP6 PUSH2 0xDD7 JUMP JUMPDEST SWAP4 POP PUSH2 0xE29 DUP2 DUP6 PUSH1 0x20 DUP7 ADD PUSH2 0xDE7 JUMP JUMPDEST PUSH2 0xE32 DUP2 PUSH2 0xDF5 JUMP JUMPDEST DUP5 ADD SWAP2 POP POP SWAP3 SWAP2 POP POP JUMP JUMPDEST PUSH0 DUP2 SWAP1 POP SWAP2 SWAP1 POP JUMP JUMPDEST PUSH2 0xE4F DUP2 PUSH2 0xE3D JUMP JUMPDEST DUP3 MSTORE POP POP JUMP JUMPDEST PUSH0 PUSH1 0xFF DUP3 AND SWAP1 POP SWAP2 SWAP1 POP JUMP JUMPDEST PUSH2 0xE6A DUP2 PUSH2 0xE55 JUMP JUMPDEST DUP3 MSTORE POP POP JUMP JUMPDEST PUSH0 DUP2 SWAP1 POP SWAP2 SWAP1 POP JUMP JUMPDEST PUSH2 0xE82 DUP2 PUSH2 0xE70 JUMP JUMPDEST DUP3 MSTORE POP POP JUMP JUMPDEST PUSH0 PUSH20 0xFFFFFFFFFFFFFFFFFFFFFFFFFFFFFFFFFFFFFFFF DUP3 AND SWAP1 POP SWAP2 SWAP1 POP JUMP JUMPDEST PUSH0 PUSH2 0xEB1 DUP3 PUSH2 0xE88 JUMP JUMPDEST SWAP1 POP SWAP2 SWAP1 POP JUMP JUMPDEST PUSH2 0xEC1 DUP2 PUSH2 0xEA7 JUMP JUMPDEST DUP3 MSTORE POP POP JUMP JUMPDEST PUSH0 PUSH2 0x100 DUP4 ADD PUSH0 DUP4 ADD MLOAD DUP5 DUP3 SUB PUSH0 DUP7 ADD MSTORE PUSH2 0xEE2 DUP3 DUP3 PUSH2 0xE05 JUMP JUMPDEST SWAP2 POP POP PUSH1 0x20 DUP4 ADD MLOAD PUSH2 0xEF7 PUSH1 0x20 DUP7 ADD DUP3 PUSH2 0xE46 JUMP JUMPDEST POP PUSH1 0x40 DUP4 ADD MLOAD PUSH2 0xF0A PUSH1 0x40 DUP7 ADD DUP3 PUSH2 0xE61 JUMP JUMPDEST POP PUSH1 0x60 DUP4 ADD MLOAD PUSH2 0xF1D PUSH1 0x60 DUP7 ADD DUP3 PUSH2 0xE61 JUMP JUMPDEST POP PUSH1 0x80 DUP4 ADD MLOAD PUSH2 0xF30 PUSH1 0x80 DUP7 ADD DUP3 PUSH2 0xE61 JUMP JUMPDEST POP PUSH1 0xA0 DUP4 ADD MLOAD DUP5 DUP3 SUB PUSH1 0xA0 DUP7 ADD MSTORE PUSH2 0xF48 DUP3 DUP3 PUSH2 0xE05 JUMP JUMPDEST SWAP2 POP POP PUSH1 0xC0 DUP4 ADD MLOAD PUSH2 0xF5D PUSH1 0xC0 DUP7 ADD DUP3 PUSH2 0xE79 JUMP JUMPDEST POP PUSH1 0xE0 DUP4 ADD MLOAD PUSH2 0xF70 PUSH1 0xE0 DUP7 ADD DUP3 PUSH2 0xEB8 JUMP JUMPDEST POP DUP1 SWAP2 POP POP SWAP3 SWAP2 POP POP JUMP JUMPDEST PUSH0 PUSH1 0x20 DUP3 ADD SWAP1 POP DUP2 DUP2 SUB PUSH0 DUP4 ADD MSTORE PUSH2 0xF93 DUP2 DUP5 PUSH2 0xEC7 JUMP JUMPDEST SWAP1 POP SWAP3 SWAP2 POP POP JUMP JUMPDEST PUSH0 PUSH1 0x40 MLOAD SWAP1 POP SWAP1 JUMP JUMPDEST PUSH0 PUSH0 REVERT JUMPDEST PUSH0 PUSH0 REVERT JUMPDEST PUSH0 PUSH0 REVERT JUMPDEST PUSH0 PUSH0 REVERT JUMPDEST PUSH32 0x4E487B7100000000000000000000000000000000000000000000000000000000 PUSH0 MSTORE PUSH1 0x41 PUSH1 0x4 MSTORE PUSH1 0x24 PUSH0 REVERT JUMPDEST PUSH2 0xFEA DUP3 PUSH2 0xDF5 JUMP JUMPDEST DUP2 ADD DUP2 DUP2 LT PUSH8 0xFFFFFFFFFFFFFFFF DUP3 GT OR ISZERO PUSH2 0x1009 JUMPI PUSH2 0x1008 PUSH2 0xFB4 JUMP JUMPDEST JUMPDEST DUP1 PUSH1 0x40 MSTORE POP POP POP JUMP JUMPDEST PUSH0 PUSH2 0x101B PUSH2 0xF9B JUMP JUMPDEST SWAP1 POP PUSH2 0x1027 DUP3 DUP3 PUSH2 0xFE1 JUMP JUMPDEST SWAP2 SWAP1 POP JUMP JUMPDEST PUSH0 PUSH8 0xFFFFFFFFFFFFFFFF DUP3 GT ISZERO PUSH2 0x1046 JUMPI PUSH2 0x1045 PUSH2 0xFB4 JUMP JUMPDEST JUMPDEST PUSH2 0x104F DUP3 PUSH2 0xDF5 JUMP JUMPDEST SWAP1 POP PUSH1 0x20 DUP2 ADD SWAP1 POP SWAP2 SWAP1 POP JUMP JUMPDEST DUP3 DUP2 DUP4 CALLDATACOPY PUSH0 DUP4 DUP4 ADD MSTORE POP POP POP JUMP JUMPDEST PUSH0 PUSH2 0x107C PUSH2 0x1077 DUP5 PUSH2 0x102C JUMP JUMPDEST PUSH2 0x1012 JUMP JUMPDEST SWAP1 POP DUP3 DUP2 MSTORE PUSH1 0x20 DUP2 ADD DUP5 DUP5 DUP5 ADD GT ISZERO PUSH2 0x1098 JUMPI PUSH2 0x1097 PUSH2 0xFB0 JUMP JUMPDEST JUMPDEST PUSH2 0x10A3 DUP5 DUP3 DUP6 PUSH2 0x105C JUMP JUMPDEST POP SWAP4 SWAP3 POP POP POP JUMP JUMPDEST PUSH0 DUP3 PUSH1 0x1F DUP4 ADD SLT PUSH2 0x10BF JUMPI PUSH2 0x10BE PUSH2 0xFAC JUMP JUMPDEST JUMPDEST DUP2 CALLDATALOAD PUSH2 0x10CF DUP5 DUP3 PUSH1 0x20 DUP7 ADD PUSH2 0x106A JUMP JUMPDEST SWAP2 POP POP SWAP3 SWAP2 POP POP JUMP JUMPDEST PUSH2 0x10E1 DUP2 PUSH2 0xE3D JUMP JUMPDEST DUP2 EQ PUSH2 0x10EB JUMPI PUSH0 PUSH0 REVERT JUMPDEST POP JUMP JUMPDEST PUSH0 DUP2 CALLDATALOAD SWAP1 POP PUSH2 0x10FC DUP2 PUSH2 0x10D8 JUMP JUMPDEST SWAP3 SWAP2 POP POP JUMP JUMPDEST PUSH2 0x110B DUP2 PUSH2 0xE55 JUMP JUMPDEST DUP2 EQ PUSH2 0x1115 JUMPI PUSH0 PUSH0 REVERT JUMPDEST POP JUMP JUMPDEST PUSH0 DUP2 CALLDATALOAD SWAP1 POP PUSH2 0x1126 DUP2 PUSH2 0x1102 JUMP JUMPDEST SWAP3 SWAP2 POP POP JUMP JUMPDEST PUSH0 PUSH0 PUSH0 PUSH0 PUSH0 PUSH0 PUSH1 0xC0 DUP8 DUP10 SUB SLT ISZERO PUSH2 0x1146 JUMPI PUSH2 0x1145 PUSH2 0xFA4 JUMP JUMPDEST JUMPDEST PUSH0 DUP8 ADD CALLDATALOAD PUSH8 0xFFFFFFFFFFFFFFFF DUP2 GT ISZERO PUSH2 0x1163 JUMPI PUSH2 0x1162 PUSH2 0xFA8 JUMP JUMPDEST JUMPDEST PUSH2 0x116F DUP10 DUP3 DUP11 ADD PUSH2 0x10AB JUMP JUMPDEST SWAP7 POP POP PUSH1 0x20 PUSH2 0x1180 DUP10 DUP3 DUP11 ADD PUSH2 0x10EE JUMP JUMPDEST SWAP6 POP POP PUSH1 0x40 PUSH2 0x1191 DUP10 DUP3 DUP11 ADD PUSH2 0x1118 JUMP JUMPDEST SWAP5 POP POP PUSH1 0x60 PUSH2 0x11A2 DUP10 DUP3 DUP11 ADD PUSH2 0x1118 JUMP JUMPDEST SWAP4 POP POP PUSH1 0x80 PUSH2 0x11B3 DUP10 DUP3 DUP11 ADD PUSH2 0x1118 JUMP JUMPDEST SWAP3 POP POP PUSH1 0xA0 DUP8 ADD CALLDATALOAD PUSH8 0xFFFFFFFFFFFFFFFF DUP2 GT ISZERO PUSH2 0x11D4 JUMPI PUSH2 0x11D3 PUSH2 0xFA8 JUMP JUMPDEST JUMPDEST PUSH2 0x11E0 DUP10 DUP3 DUP11 ADD PUSH2 0x10AB JUMP JUMPDEST SWAP2 POP POP SWAP3 SWAP6 POP SWAP3 SWAP6 POP SWAP3 SWAP6 JUMP JUMPDEST PUSH0 PUSH1 0x20 DUP3 DUP5 SUB SLT ISZERO PUSH2 0x1202 JUMPI PUSH2 0x1201 PUSH2 0xFA4 JUMP JUMPDEST JUMPDEST PUSH0 DUP3 ADD CALLDATALOAD PUSH8 0xFFFFFFFFFFFFFFFF DUP2 GT ISZERO PUSH2 0x121F JUMPI PUSH2 0x121E PUSH2 0xFA8 JUMP JUMPDEST JUMPDEST PUSH2 0x122B DUP5 DUP3 DUP6 ADD PUSH2 0x10AB JUMP JUMPDEST SWAP2 POP POP SWAP3 SWAP2 POP POP JUMP JUMPDEST PUSH0 DUP2 MLOAD SWAP1 POP SWAP2 SWAP1 POP JUMP JUMPDEST PUSH0 DUP3 DUP3 MSTORE PUSH1 0x20 DUP3 ADD SWAP1 POP SWAP3 SWAP2 POP POP JUMP JUMPDEST PUSH0 DUP2 SWAP1 POP PUSH1 0x20 DUP3 ADD SWAP1 POP SWAP2 SWAP1 POP JUMP JUMPDEST PUSH0 PUSH2 0x100 DUP4 ADD PUSH0 DUP4 ADD MLOAD DUP5 DUP3 SUB PUSH0 DUP7 ADD MSTORE PUSH2 0x1278 DUP3 DUP3 PUSH2 0xE05 JUMP JUMPDEST SWAP2 POP POP PUSH1 0x20 DUP4 ADD MLOAD PUSH2 0x128D PUSH1 0x20 DUP7 ADD DUP3 PUSH2 0xE46 JUMP JUMPDEST POP PUSH1 0x40 DUP4 ADD MLOAD PUSH2 0x12A0 PUSH1 0x40 DUP7 ADD DUP3 PUSH2 0xE61 JUMP JUMPDEST POP PUSH1 0x60 DUP4 ADD MLOAD PUSH2 0x12B3 PUSH1 0x60 DUP7 ADD DUP3 PUSH2 0xE61 JUMP JUMPDEST POP PUSH1 0x80 DUP4 ADD MLOAD PUSH2 0x12C6 PUSH1 0x80 DUP7 ADD DUP3 PUSH2 0xE61 JUMP JUMPDEST POP PUSH1 0xA0 DUP4 ADD MLOAD DUP5 DUP3 SUB PUSH1 0xA0 DUP7 ADD MSTORE PUSH2 0x12DE DUP3 DUP3 PUSH2 0xE05 JUMP JUMPDEST SWAP2 POP POP PUSH1 0xC0 DUP4 ADD MLOAD PUSH2 0x12F3 PUSH1 0xC0 DUP7 ADD DUP3 PUSH2 0xE79 JUMP JUMPDEST POP PUSH1 0xE0 DUP4 ADD MLOAD PUSH2 0x1306 PUSH1 0xE0 DUP7 ADD DUP3 PUSH2 0xEB8 JUMP JUMPDEST POP DUP1 SWAP2 POP POP SWAP3 SWAP2 POP POP JUMP JUMPDEST PUSH0 PUSH2 0x131C DUP4 DUP4 PUSH2 0x125D JUMP JUMPDEST SWAP1 POP SWAP3 SWAP2 POP POP JUMP JUMPDEST PUSH0 PUSH1 0x20 DUP3 ADD SWAP1 POP SWAP2 SWAP1 POP JUMP JUMPDEST PUSH0 PUSH2 0x133A DUP3 PUSH2 0x1234 JUMP JUMPDEST PUSH2 0x1344 DUP2 DUP6 PUSH2 0x123E JUMP JUMPDEST SWAP4 POP DUP4 PUSH1 0x20 DUP3 MUL DUP6 ADD PUSH2 0x1356 DUP6 PUSH2 0x124E JUMP JUMPDEST DUP1 PUSH0 JUMPDEST DUP6 DUP2 LT ISZERO PUSH2 0x1391 JUMPI DUP5 DUP5 SUB DUP10 MSTORE DUP2 MLOAD PUSH2 0x1372 DUP6 DUP3 PUSH2 0x1311 JUMP JUMPDEST SWAP5 POP PUSH2 0x137D DUP4 PUSH2 0x1324 JUMP JUMPDEST SWAP3 POP PUSH1 0x20 DUP11 ADD SWAP10 POP POP PUSH1 0x1 DUP2 ADD SWAP1 POP PUSH2 0x1359 JUMP JUMPDEST POP DUP3 SWAP8 POP DUP8 SWAP6 POP POP POP POP POP POP SWAP3 SWAP2 POP POP JUMP JUMPDEST PUSH0 PUSH1 0x20 DUP3 ADD SWAP1 POP DUP2 DUP2 SUB PUSH0 DUP4 ADD MSTORE PUSH2 0x13BB DUP2 DUP5 PUSH2 0x1330 JUMP JUMPDEST SWAP1 POP SWAP3 SWAP2 POP POP JUMP JUMPDEST PUSH2 0x13CC DUP2 PUSH2 0xEA7 JUMP JUMPDEST DUP3 MSTORE POP POP JUMP JUMPDEST PUSH0 PUSH1 0x20 DUP3 ADD SWAP1 POP PUSH2 0x13E5 PUSH0 DUP4 ADD DUP5 PUSH2 0x13C3 JUMP JUMPDEST SWAP3 SWAP2 POP POP JUMP JUMPDEST PUSH2 0x13F4 DUP2 PUSH2 0xE70 JUMP JUMPDEST DUP3 MSTORE POP POP JUMP JUMPDEST PUSH0 PUSH1 0x20 DUP3 ADD SWAP1 POP PUSH2 0x140D PUSH0 DUP4 ADD DUP5 PUSH2 0x13EB JUMP JUMPDEST SWAP3 SWAP2 POP POP JUMP JUMPDEST PUSH2 0x141C DUP2 PUSH2 0xEA7 JUMP JUMPDEST DUP2 EQ PUSH2 0x1426 JUMPI PUSH0 PUSH0 REVERT JUMPDEST POP JUMP JUMPDEST PUSH0 DUP2 CALLDATALOAD SWAP1 POP PUSH2 0x1437 DUP2 PUSH2 0x1413 JUMP JUMPDEST SWAP3 SWAP2 POP POP JUMP JUMPDEST PUSH0 PUSH1 0x20 DUP3 DUP5 SUB SLT ISZERO PUSH2 0x1452 JUMPI PUSH2 0x1451 PUSH2 0xFA4 JUMP JUMPDEST JUMPDEST PUSH0 PUSH2 0x145F DUP5 DUP3 DUP6 ADD PUSH2 0x1429 JUMP JUMPDEST SWAP2 POP POP SWAP3 SWAP2 POP POP JUMP JUMPDEST PUSH32 0x4E487B7100000000000000000000000000000000000000000000000000000000 PUSH0 MSTORE PUSH1 0x11 PUSH1 0x4 MSTORE PUSH1 0x24 PUSH0 REVERT JUMPDEST PUSH0 PUSH2 0x149F DUP3 PUSH2 0xE70 JUMP JUMPDEST SWAP2 POP PUSH2 0x14AA DUP4 PUSH2 0xE70 JUMP JUMPDEST SWAP3 POP DUP3 DUP3 SUB SWAP1 POP DUP2 DUP2 GT ISZERO PUSH2 0x14C2 JUMPI PUSH2 0x14C1 PUSH2 0x1468 JUMP JUMPDEST JUMPDEST SWAP3 SWAP2 POP POP JUMP JUMPDEST PUSH32 0x4E487B7100000000000000000000000000000000000000000000000000000000 PUSH0 MSTORE PUSH1 0x32 PUSH1 0x4 MSTORE PUSH1 0x24 PUSH0 REVERT JUMPDEST PUSH32 0x4E487B7100000000000000000000000000000000000000000000000000000000 PUSH0 MSTORE PUSH1 0x22 PUSH1 0x4 MSTORE PUSH1 0x24 PUSH0 REVERT JUMPDEST PUSH0 PUSH1 0x2 DUP3 DIV SWAP1 POP PUSH1 0x1 DUP3 AND DUP1 PUSH2 0x1539 JUMPI PUSH1 0x7F DUP3 AND SWAP2 POP JUMPDEST PUSH1 0x20 DUP3 LT DUP2 SUB PUSH2 0x154C JUMPI PUSH2 0x154B PUSH2 0x14F5 JUMP JUMPDEST JUMPDEST POP SWAP2 SWAP1 POP JUMP JUMPDEST PUSH0 DUP3 DUP3 MSTORE PUSH1 0x20 DUP3 ADD SWAP1 POP SWAP3 SWAP2 POP POP JUMP JUMPDEST PUSH32 0x6369747900000000000000000000000000000000000000000000000000000000 PUSH0 DUP3 ADD MSTORE POP JUMP JUMPDEST PUSH0 PUSH2 0x1596 PUSH1 0x4 DUP4 PUSH2 0x1552 JUMP JUMPDEST SWAP2 POP PUSH2 0x15A1 DUP3 PUSH2 0x1562 JUMP JUMPDEST PUSH1 0x20 DUP3 ADD SWAP1 POP SWAP2 SWAP1 POP JUMP JUMPDEST PUSH0 PUSH1 0x20 DUP3 ADD SWAP1 POP DUP2 DUP2 SUB PUSH0 DUP4 ADD MSTORE PUSH2 0x15C3 DUP2 PUSH2 0x158A JUMP JUMPDEST SWAP1 POP SWAP2 SWAP1 POP JUMP JUMPDEST PUSH32 0x7361666574794164766963650000000000000000000000000000000000000000 PUSH0 DUP3 ADD MSTORE POP JUMP JUMPDEST PUSH0 PUSH2 0x15FE PUSH1 0xC DUP4 PUSH2 0x1552 JUMP JUMPDEST SWAP2 POP PUSH2 0x1609 DUP3 PUSH2 0x15CA JUMP JUMPDEST PUSH1 0x20 DUP3 ADD SWAP1 POP SWAP2 SWAP1 POP JUMP JUMPDEST PUSH0 PUSH1 0x20 DUP3 ADD SWAP1 POP DUP2 DUP2 SUB PUSH0 DUP4 ADD MSTORE PUSH2 0x162B DUP2 PUSH2 0x15F2 JUMP JUMPDEST SWAP1 POP SWAP2 SWAP1 POP JUMP JUMPDEST PUSH2 0x163B DUP2 PUSH2 0xE55 JUMP JUMPDEST DUP3 MSTORE POP POP JUMP JUMPDEST PUSH0 PUSH1 0x20 DUP3 ADD SWAP1 POP PUSH2 0x1654 PUSH0 DUP4 ADD DUP5 PUSH2 0x1632 JUMP JUMPDEST SWAP3 SWAP2 POP POP JUMP JUMPDEST PUSH0 DUP2 SWAP1 POP SWAP3 SWAP2 POP POP JUMP JUMPDEST PUSH0 PUSH2 0x166E DUP3 PUSH2 0xDCD JUMP JUMPDEST PUSH2 0x1678 DUP2 DUP6 PUSH2 0x165A JUMP JUMPDEST SWAP4 POP PUSH2 0x1688 DUP2 DUP6 PUSH1 0x20 DUP7 ADD PUSH2 0xDE7 JUMP JUMPDEST DUP1 DUP5 ADD SWAP2 POP POP SWAP3 SWAP2 POP POP JUMP JUMPDEST PUSH0 PUSH2 0x169F DUP3 DUP5 PUSH2 0x1664 JUMP JUMPDEST SWAP2 POP DUP2 SWAP1 POP SWAP3 SWAP2 POP POP JUMP JUMPDEST PUSH0 DUP2 SWAP1 POP DUP2 PUSH0 MSTORE PUSH1 0x20 PUSH0 KECCAK256 SWAP1 POP SWAP2 SWAP1 POP JUMP JUMPDEST PUSH0 PUSH1 0x20 PUSH1 0x1F DUP4 ADD DIV SWAP1 POP SWAP2 SWAP1 POP JUMP JUMPDEST PUSH0 DUP3 DUP3 SHL SWAP1 POP SWAP3 SWAP2 POP POP JUMP JUMPDEST PUSH0 PUSH1 0x8 DUP4 MUL PUSH2 0x1706 PUSH32 0xFFFFFFFFFFFFFFFFFFFFFFFFFFFFFFFFFFFFFFFFFFFFFFFFFFFFFFFFFFFFFFFF DUP3 PUSH2 0x16CB JUMP JUMPDEST PUSH2 0x1710 DUP7 DUP4 PUSH2 0x16CB JUMP JUMPDEST SWAP6 POP DUP1 NOT DUP5 AND SWAP4 POP DUP1 DUP7 AND DUP5 OR SWAP3 POP POP POP SWAP4 SWAP3 POP POP POP JUMP JUMPDEST PUSH0 DUP2 SWAP1 POP SWAP2 SWAP1 POP JUMP JUMPDEST PUSH0 PUSH2 0x174B PUSH2 0x1746 PUSH2 0x1741 DUP5 PUSH2 0xE70 JUMP JUMPDEST PUSH2 0x1728 JUMP JUMPDEST PUSH2 0xE70 JUMP JUMPDEST SWAP1 POP SWAP2 SWAP1 POP JUMP JUMPDEST PUSH0 DUP2 SWAP1 POP SWAP2 SWAP1 POP JUMP JUMPDEST PUSH2 0x1764 DUP4 PUSH2 0x1731 JUMP JUMPDEST PUSH2 0x1778 PUSH2 0x1770 DUP3 PUSH2 0x1752 JUMP JUMPDEST DUP5 DUP5 SLOAD PUSH2 0x16D7 JUMP JUMPDEST DUP3 SSTORE POP POP POP POP JUMP JUMPDEST PUSH0 PUSH0 SWAP1 POP SWAP1 JUMP JUMPDEST PUSH2 0x178F PUSH2 0x1780 JUMP JUMPDEST PUSH2 0x179A DUP2 DUP5 DUP5 PUSH2 0x175B JUMP JUMPDEST POP POP POP JUMP JUMPDEST PUSH0 JUMPDEST DUP3 DUP2 LT ISZERO PUSH2 0x17C0 JUMPI PUSH2 0x17B5 PUSH0 DUP3 DUP5 ADD PUSH2 0x1787 JUMP JUMPDEST PUSH1 0x1 DUP2 ADD SWAP1 POP PUSH2 0x17A1 JUMP JUMPDEST POP POP POP JUMP JUMPDEST PUSH1 0x1F DUP3 GT ISZERO PUSH2 0x1813 JUMPI DUP3 DUP3 GT ISZERO PUSH2 0x1812 JUMPI PUSH2 0x17DF DUP2 PUSH2 0x16AA JUMP JUMPDEST PUSH2 0x17E8 DUP4 PUSH2 0x16BC JUMP JUMPDEST PUSH2 0x17F1 DUP6 PUSH2 0x16BC JUMP JUMPDEST PUSH1 0x20 DUP7 LT ISZERO PUSH2 0x17FE JUMPI PUSH0 SWAP1 POP JUMPDEST DUP1 DUP4 ADD PUSH2 0x180D DUP3 DUP5 SUB DUP3 PUSH2 0x179F JUMP JUMPDEST POP POP POP POP JUMPDEST JUMPDEST POP POP POP JUMP JUMPDEST PUSH0 DUP3 DUP3 SHR SWAP1 POP SWAP3 SWAP2 POP POP JUMP JUMPDEST PUSH0 PUSH2 0x1833 PUSH0 NOT DUP5 PUSH1 0x8 MUL PUSH2 0x1818 JUMP JUMPDEST NOT DUP1 DUP4 AND SWAP2 POP POP SWAP3 SWAP2 POP POP JUMP JUMPDEST PUSH0 PUSH2 0x184B DUP4 DUP4 PUSH2 0x1824 JUMP JUMPDEST SWAP2 POP DUP3 PUSH1 0x2 MUL DUP3 OR SWAP1 POP SWAP3 SWAP2 POP POP JUMP JUMPDEST PUSH2 0x1864 DUP3 PUSH2 0xDCD JUMP JUMPDEST PUSH8 0xFFFFFFFFFFFFFFFF DUP2 GT ISZERO PUSH2 0x187D JUMPI PUSH2 0x187C PUSH2 0xFB4 JUMP JUMPDEST JUMPDEST PUSH2 0x1887 DUP3 SLOAD PUSH2 0x1522 JUMP JUMPDEST PUSH2 0x1892 DUP3 DUP3 DUP6 PUSH2 0x17C5 JUMP JUMPDEST PUSH0 PUSH1 0x20 SWAP1 POP PUSH1 0x1F DUP4 GT PUSH1 0x1 DUP2 EQ PUSH2 0x18C3 JUMPI PUSH0 DUP5 ISZERO PUSH2 0x18B1 JUMPI DUP3 DUP8 ADD MLOAD SWAP1 POP JUMPDEST PUSH2 0x18BB DUP6 DUP3 PUSH2 0x1840 JUMP JUMPDEST DUP7 SSTORE POP PUSH2 0x1922 JUMP JUMPDEST PUSH1 0x1F NOT DUP5 AND PUSH2 0x18D1 DUP7 PUSH2 0x16AA JUMP JUMPDEST PUSH0 JUMPDEST DUP3 DUP2 LT ISZERO PUSH2 0x18F8 JUMPI DUP5 DUP10 ADD MLOAD DUP3 SSTORE PUSH1 0x1 DUP3 ADD SWAP2 POP PUSH1 0x20 DUP6 ADD SWAP5 POP PUSH1 0x20 DUP2 ADD SWAP1 POP PUSH2 0x18D3 JUMP JUMPDEST DUP7 DUP4 LT ISZERO PUSH2 0x1915 JUMPI DUP5 DUP10 ADD MLOAD PUSH2 0x1911 PUSH1 0x1F DUP10 AND DUP3 PUSH2 0x1824 JUMP JUMPDEST DUP4 SSTORE POP JUMPDEST PUSH1 0x1 PUSH1 0x2 DUP9 MUL ADD DUP9 SSTORE POP POP POP JUMPDEST POP POP POP POP POP POP JUMP JUMPDEST PUSH2 0x1933 DUP2 PUSH2 0xE3D JUMP JUMPDEST DUP3 MSTORE POP POP JUMP JUMPDEST PUSH0 PUSH1 0x80 DUP3 ADD SWAP1 POP PUSH2 0x194C PUSH0 DUP4 ADD DUP8 PUSH2 0x1632 JUMP JUMPDEST PUSH2 0x1959 PUSH1 0x20 DUP4 ADD DUP7 PUSH2 0x192A JUMP JUMPDEST PUSH2 0x1966 PUSH1 0x40 DUP4 ADD DUP6 PUSH2 0x13EB JUMP JUMPDEST PUSH2 0x1973 PUSH1 0x60 DUP4 ADD DUP5 PUSH2 0x13C3 JUMP JUMPDEST SWAP6 SWAP5 POP POP POP POP POP JUMP INVALID LOG2 PUSH5 0x6970667358 0x22 SLT KECCAK256 PUSH8 0xC14C270D4E105648 SWAP9 NOT LOG4 CREATE ISZERO SWAP13 SWAP2 PUSH16 0x611B59CC793BA2F04B9F57DBA8866564 PUSH20 0x6F6C634300082200330000000000000000000000 "
				},
				"gasEstimates": {
					"creation": {
						"codeDepositCost": "1315600",
						"executionCost": "infinite",
						"totalCost": "infinite"
					},
					"external": {
						"getAlertsByCity(string)": "infinite",
						"getLatestAlert()": "infinite",
						"getTotalAlerts()": "2484",
						"owner()": "2536",
						"publishAlert(string,int256,uint8,uint8,uint8,string)": "infinite",
						"renounceOwnership()": "infinite",
						"transferOwnership(address)": "infinite"
					}
				},
				"methodIdentifiers": {
					"getAlertsByCity(string)": "68cfa2f9",
					"getLatestAlert()": "12670d4a",
					"getTotalAlerts()": "c1be76d7",
					"owner()": "8da5cb5b",
					"publishAlert(string,int256,uint8,uint8,uint8,string)": "6188f851",
					"renounceOwnership()": "715018a6",
					"transferOwnership(address)": "f2fde38b"
				}
			},
			"storageLayout": {
				"storage": [
					{
						"astId": 302,
						"contract": "/contracts/HeatwaveProof.sol:HeatwaveProof",
						"label": "_owner",
						"offset": 0,
						"slot": "0",
						"type": "t_address"
					},
					{
						"astId": 31,
						"contract": "/contracts/HeatwaveProof.sol:HeatwaveProof",
						"label": "cityAlerts",
						"offset": 0,
						"slot": "1",
						"type": "t_mapping(t_string_memory_ptr,t_array(t_struct(Alert)24_storage)dyn_storage)"
					},
					{
						"astId": 36,
						"contract": "/contracts/HeatwaveProof.sol:HeatwaveProof",
						"label": "allAlerts",
						"offset": 0,
						"slot": "2",
						"type": "t_array(t_struct(Alert)24_storage)dyn_storage"
					}
				],
				"types": {
					"t_address": {
						"encoding": "inplace",
						"label": "address",
						"numberOfBytes": "20"
					},
					"t_array(t_struct(Alert)24_storage)dyn_storage": {
						"base": "t_struct(Alert)24_storage",
						"encoding": "dynamic_array",
						"label": "struct HeatwaveProof.Alert[]",
						"numberOfBytes": "32"
					},
					"t_int256": {
						"encoding": "inplace",
						"label": "int256",
						"numberOfBytes": "32"
					},
					"t_mapping(t_string_memory_ptr,t_array(t_struct(Alert)24_storage)dyn_storage)": {
						"encoding": "mapping",
						"key": "t_string_memory_ptr",
						"label": "mapping(string => struct HeatwaveProof.Alert[])",
						"numberOfBytes": "32",
						"value": "t_array(t_struct(Alert)24_storage)dyn_storage"
					},
					"t_string_memory_ptr": {
						"encoding": "bytes",
						"label": "string",
						"numberOfBytes": "32"
					},
					"t_string_storage": {
						"encoding": "bytes",
						"label": "string",
						"numberOfBytes": "32"
					},
					"t_struct(Alert)24_storage": {
						"encoding": "inplace",
						"label": "struct HeatwaveProof.Alert",
						"members": [
							{
								"astId": 9,
								"contract": "/contracts/HeatwaveProof.sol:HeatwaveProof",
								"label": "city",
								"offset": 0,
								"slot": "0",
								"type": "t_string_storage"
							},
							{
								"astId": 11,
								"contract": "/contracts/HeatwaveProof.sol:HeatwaveProof",
								"label": "temperature",
								"offset": 0,
								"slot": "1",
								"type": "t_int256"
							},
							{
								"astId": 13,
								"contract": "/contracts/HeatwaveProof.sol:HeatwaveProof",
								"label": "humidity",
								"offset": 0,
								"slot": "2",
								"type": "t_uint8"
							},
							{
								"astId": 15,
								"contract": "/contracts/HeatwaveProof.sol:HeatwaveProof",
								"label": "uvIndex",
								"offset": 1,
								"slot": "2",
								"type": "t_uint8"
							},
							{
								"astId": 17,
								"contract": "/contracts/HeatwaveProof.sol:HeatwaveProof",
								"label": "riskLevel",
								"offset": 2,
								"slot": "2",
								"type": "t_uint8"
							},
							{
								"astId": 19,
								"contract": "/contracts/HeatwaveProof.sol:HeatwaveProof",
								"label": "safetyAdvice",
								"offset": 0,
								"slot": "3",
								"type": "t_string_storage"
							},
							{
								"astId": 21,
								"contract": "/contracts/HeatwaveProof.sol:HeatwaveProof",
								"label": "timestamp",
								"offset": 0,
								"slot": "4",
								"type": "t_uint256"
							},
							{
								"astId": 23,
								"contract": "/contracts/HeatwaveProof.sol:HeatwaveProof",
								"label": "publisher",
								"offset": 0,
								"slot": "5",
								"type": "t_address"
							}
						],
						"numberOfBytes": "192"
					},
					"t_uint256": {
						"encoding": "inplace",
						"label": "uint256",
						"numberOfBytes": "32"
					},
					"t_uint8": {
						"encoding": "inplace",
						"label": "uint8",
						"numberOfBytes": "1"
					}
				}
			},
			"userdoc": {
				"errors": {
					"EmptyStringNotAllowed(string)": [
						{
							"notice": "Thrown when an empty string is supplied for a required field."
						}
					],
					"HumidityOutOfRange(uint8)": [
						{
							"notice": "Thrown when humidity is outside the valid range 0–100."
						}
					],
					"InvalidOwnerAddress()": [
						{
							"notice": "Thrown when the new owner address is the zero address."
						}
					],
					"NoAlertsPublished()": [
						{
							"notice": "Thrown when there are no alerts published yet."
						}
					],
					"RiskLevelOutOfRange(uint8)": [
						{
							"notice": "Thrown when riskLevel is outside the valid range 1–5."
						}
					],
					"UvIndexOutOfRange(uint8)": [
						{
							"notice": "Thrown when uvIndex is outside the valid range 0–20."
						}
					]
				},
				"events": {
					"HeatwaveAlertPublished(string,uint8,int256,uint256,address)": {
						"notice": "Emitted every time a new heatwave alert is successfully published."
					},
					"OwnershipTransferredTo(address,address)": {
						"notice": "Emitted when contract ownership is transferred to a new address."
					}
				},
				"kind": "user",
				"methods": {
					"constructor": {
						"notice": "Deploys the HeatwaveProof contract and sets the deployer as owner."
					},
					"getAlertsByCity(string)": {
						"notice": "Returns all alerts ever published for a specific city."
					},
					"getLatestAlert()": {
						"notice": "Returns the most recently published alert across all cities."
					},
					"getTotalAlerts()": {
						"notice": "Returns the total number of alerts published across all cities."
					},
					"publishAlert(string,int256,uint8,uint8,uint8,string)": {
						"notice": "Publishes a new heatwave alert for a given city."
					},
					"transferOwnership(address)": {
						"notice": "Transfers ownership of the contract to `newOwner`."
					}
				},
				"notice": "Stores and serves heatwave safety alerts for cities on-chain.",
				"version": 1
			}
		}
	}
}